{
  "contractName": "DidRegistry",
  "abi": [
    {
      "inputs": [],
      "stateMutability": "nonpayable",
      "type": "constructor"
    },
    {
      "inputs": [],
      "name": "getStatekeepers",
      "outputs": [
        {
          "internalType": "address[]",
          "name": "",
          "type": "address[]"
        }
      ],
      "stateMutability": "view",
      "type": "function",
      "constant": true
    },
    {
      "inputs": [
        {
          "internalType": "string",
          "name": "_issuerDID",
          "type": "string"
        }
      ],
      "name": "addTrustedLabo",
      "outputs": [],
      "stateMutability": "nonpayable",
      "type": "function"
    },
    {
      "inputs": [
        {
          "internalType": "string",
          "name": "_issuerDID",
          "type": "string"
        }
      ],
      "name": "removeTrustedLabo",
      "outputs": [],
      "stateMutability": "nonpayable",
      "type": "function"
    },
    {
      "inputs": [],
      "name": "getTrustedLabos",
      "outputs": [
        {
          "internalType": "string[]",
          "name": "",
          "type": "string[]"
        }
      ],
      "stateMutability": "view",
      "type": "function",
      "constant": true
    },
    {
      "inputs": [
        {
          "internalType": "string",
          "name": "_fournisseurDID",
          "type": "string"
        }
      ],
      "name": "isTrustedlabo",
      "outputs": [
        {
          "internalType": "bool",
          "name": "",
          "type": "bool"
        }
      ],
      "stateMutability": "view",
      "type": "function",
      "constant": true
    },
    {
      "inputs": [
        {
          "internalType": "string",
          "name": "_fournisseurDID",
          "type": "string"
        }
      ],
      "name": "addTrustedFournisseur",
      "outputs": [],
      "stateMutability": "nonpayable",
      "type": "function"
    },
    {
      "inputs": [
        {
          "internalType": "string",
          "name": "_fournisseurDID",
          "type": "string"
        }
      ],
      "name": "removeTrustedFournisseurs",
      "outputs": [],
      "stateMutability": "nonpayable",
      "type": "function"
    },
    {
      "inputs": [],
      "name": "getTrustedFournisseurs",
      "outputs": [
        {
          "internalType": "string[]",
          "name": "",
          "type": "string[]"
        }
      ],
      "stateMutability": "view",
      "type": "function",
      "constant": true
    },
    {
      "inputs": [
        {
          "internalType": "string",
          "name": "_fournisseurDID",
          "type": "string"
        }
      ],
      "name": "isTrustedFournisseur",
      "outputs": [
        {
          "internalType": "bool",
          "name": "",
          "type": "bool"
        }
      ],
      "stateMutability": "view",
      "type": "function",
      "constant": true
    }
  ],
  "bytecode": "0x608060405234801561001057600080fd5b5060016000800160003373ffffffffffffffffffffffffffffffffffffffff1673ffffffffffffffffffffffffffffffffffffffff16815260200190815260200160002060006101000a81548160ff0219169083151502179055506000600101339080600181540180825580915050600190039060005260206000200160009091909190916101000a81548173ffffffffffffffffffffffffffffffffffffffff021916908373ffffffffffffffffffffffffffffffffffffffff160217905550611abe806100e06000396000f3fe608060405234801561001057600080fd5b50600436106100935760003560e01c80636adba2d1116100665780636adba2d1146101205780638e1de2ef1461013c578063b04f71fc14610158578063b304a00614610188578063bfa961c2146101a657610093565b8063396e26cd14610098578063446262d4146100b657806346160363146100d457806360c4284f14610104575b600080fd5b6100a06101c2565b6040516100ad9190610f22565b60405180910390f35b6100be61029e565b6040516100cb9190610f22565b60405180910390f35b6100ee60048036038101906100e9919061108d565b61037a565b6040516100fb91906110f1565b60405180910390f35b61011e6004803603810190610119919061108d565b6103b2565b005b61013a6004803603810190610135919061108d565b61052f565b005b6101566004803603810190610151919061108d565b61082e565b005b610172600480360381019061016d919061108d565b610b2d565b60405161017f91906110f1565b60405180910390f35b610190610b65565b60405161019d91906111fc565b60405180910390f35b6101c060048036038101906101bb919061108d565b610bf6565b005b60606008600201805480602002602001604051908101604052809291908181526020016000905b828210156102955783829060005260206000200180546102089061124d565b80601f01602080910402602001604051908101604052809291908181526020018280546102349061124d565b80156102815780601f1061025657610100808354040283529160200191610281565b820191906000526020600020905b81548152906001019060200180831161026457829003601f168201915b5050505050815260200190600101906101e9565b50505050905090565b60606005600201805480602002602001604051908101604052809291908181526020016000905b828210156103715783829060005260206000200180546102e49061124d565b80601f01602080910402602001604051908101604052809291908181526020018280546103109061124d565b801561035d5780601f106103325761010080835404028352916020019161035d565b820191906000526020600020905b81548152906001019060200180831161034057829003601f168201915b5050505050815260200190600101906102c5565b50505050905090565b600060056000018260405161038f91906112ba565b908152602001604051809103902060009054906101000a900460ff169050919050565b600115156000800160003373ffffffffffffffffffffffffffffffffffffffff1673ffffffffffffffffffffffffffffffffffffffff16815260200190815260200160002060009054906101000a900460ff16151514610447576040517f08c379a000000000000000000000000000000000000000000000000000000000815260040161043e9061132e565b60405180910390fd5b60086000018160405161045a91906112ba565b908152602001604051809103902060009054906101000a900460ff166104f157600160086000018260405161048f91906112ba565b908152602001604051809103902060006101000a81548160ff0219169083151502179055506008600201819080600181540180825580915050600190039060005260206000200160009091909190915090816104eb9190611504565b5061052c565b6040517f08c379a000000000000000000000000000000000000000000000000000000000815260040161052390611648565b60405180910390fd5b50565b600115156000800160003373ffffffffffffffffffffffffffffffffffffffff1673ffffffffffffffffffffffffffffffffffffffff16815260200190815260200160002060009054906101000a900460ff161515146105c4576040517f08c379a00000000000000000000000000000000000000000000000000000000081526004016105bb9061132e565b60405180910390fd5b6008600001816040516105d791906112ba565b908152602001604051809103902060009054906101000a900460ff161561062e5760086000018160405161060b91906112ba565b908152602001604051809103902060006101000a81549060ff0219169055610669565b6040517f08c379a0000000000000000000000000000000000000000000000000000000008152600401610660906116da565b60405180910390fd5b60007fffffffffffffffffffffffffffffffffffffffffffffffffffffffffffffffff905060005b60086002018054905081101561072b57826040516020016106b291906112ba565b60405160208183030381529060405280519060200120600860020182815481106106df576106de6116fa565b5b906000526020600020016040516020016106f991906117ac565b6040516020818303038152906040528051906020012003610718578091505b8080610723906117f2565b915050610691565b507fffffffffffffffffffffffffffffffffffffffffffffffffffffffffffffffff8113156107ef576008600201600160086002018054905061076e919061183a565b8154811061077f5761077e6116fa565b5b90600052602060002001600860020182815481106107a05761079f6116fa565b5b9060005260206000200190816107b69190611899565b5060086002018054806107cc576107cb611981565b5b6001900381819060005260206000200160006107e89190610d73565b905561082a565b6040517f08c379a0000000000000000000000000000000000000000000000000000000008152600401610821906116da565b60405180910390fd5b5050565b600115156000800160003373ffffffffffffffffffffffffffffffffffffffff1673ffffffffffffffffffffffffffffffffffffffff16815260200190815260200160002060009054906101000a900460ff161515146108c3576040517f08c379a00000000000000000000000000000000000000000000000000000000081526004016108ba9061132e565b60405180910390fd5b6005600001816040516108d691906112ba565b908152602001604051809103902060009054906101000a900460ff161561092d5760056000018160405161090a91906112ba565b908152602001604051809103902060006101000a81549060ff0219169055610968565b6040517f08c379a000000000000000000000000000000000000000000000000000000000815260040161095f906119fc565b60405180910390fd5b60007fffffffffffffffffffffffffffffffffffffffffffffffffffffffffffffffff905060005b600560020180549050811015610a2a57826040516020016109b191906112ba565b60405160208183030381529060405280519060200120600560020182815481106109de576109dd6116fa565b5b906000526020600020016040516020016109f891906117ac565b6040516020818303038152906040528051906020012003610a17578091505b8080610a22906117f2565b915050610990565b507fffffffffffffffffffffffffffffffffffffffffffffffffffffffffffffffff811315610aee5760056002016001600560020180549050610a6d919061183a565b81548110610a7e57610a7d6116fa565b5b9060005260206000200160056002018281548110610a9f57610a9e6116fa565b5b906000526020600020019081610ab59190611899565b506005600201805480610acb57610aca611981565b5b600190038181906000526020600020016000610ae79190610d73565b9055610b29565b6040517f08c379a0000000000000000000000000000000000000000000000000000000008152600401610b20906119fc565b60405180910390fd5b5050565b6000600860000182604051610b4291906112ba565b908152602001604051809103902060009054906101000a900460ff169050919050565b60606000600101805480602002602001604051908101604052809291908181526020018280548015610bec57602002820191906000526020600020905b8160009054906101000a900473ffffffffffffffffffffffffffffffffffffffff1673ffffffffffffffffffffffffffffffffffffffff1681526020019060010190808311610ba2575b5050505050905090565b600115156000800160003373ffffffffffffffffffffffffffffffffffffffff1673ffffffffffffffffffffffffffffffffffffffff16815260200190815260200160002060009054906101000a900460ff16151514610c8b576040517f08c379a0000000000000000000000000000000000000000000000000000000008152600401610c829061132e565b60405180910390fd5b600560000181604051610c9e91906112ba565b908152602001604051809103902060009054906101000a900460ff16610d35576001600560000182604051610cd391906112ba565b908152602001604051809103902060006101000a81548160ff021916908315150217905550600560020181908060018154018082558091505060019003906000526020600020016000909190919091509081610d2f9190611504565b50610d70565b6040517f08c379a0000000000000000000000000000000000000000000000000000000008152600401610d6790611a68565b60405180910390fd5b50565b508054610d7f9061124d565b6000825580601f10610d915750610db0565b601f016020900490600052602060002090810190610daf9190610db3565b5b50565b5b80821115610dcc576000816000905550600101610db4565b5090565b600081519050919050565b600082825260208201905092915050565b6000819050602082019050919050565b600081519050919050565b600082825260208201905092915050565b60005b83811015610e36578082015181840152602081019050610e1b565b60008484015250505050565b6000601f19601f8301169050919050565b6000610e5e82610dfc565b610e688185610e07565b9350610e78818560208601610e18565b610e8181610e42565b840191505092915050565b6000610e988383610e53565b905092915050565b6000602082019050919050565b6000610eb882610dd0565b610ec28185610ddb565b935083602082028501610ed485610dec565b8060005b85811015610f105784840389528151610ef18582610e8c565b9450610efc83610ea0565b925060208a01995050600181019050610ed8565b50829750879550505050505092915050565b60006020820190508181036000830152610f3c8184610ead565b905092915050565b6000604051905090565b600080fd5b600080fd5b600080fd5b600080fd5b7f4e487b7100000000000000000000000000000000000000000000000000000000600052604160045260246000fd5b610f9a82610e42565b810181811067ffffffffffffffff82111715610fb957610fb8610f62565b5b80604052505050565b6000610fcc610f44565b9050610fd88282610f91565b919050565b600067ffffffffffffffff821115610ff857610ff7610f62565b5b61100182610e42565b9050602081019050919050565b82818337600083830152505050565b600061103061102b84610fdd565b610fc2565b90508281526020810184848401111561104c5761104b610f5d565b5b61105784828561100e565b509392505050565b600082601f83011261107457611073610f58565b5b813561108484826020860161101d565b91505092915050565b6000602082840312156110a3576110a2610f4e565b5b600082013567ffffffffffffffff8111156110c1576110c0610f53565b5b6110cd8482850161105f565b91505092915050565b60008115159050919050565b6110eb816110d6565b82525050565b600060208201905061110660008301846110e2565b92915050565b600081519050919050565b600082825260208201905092915050565b6000819050602082019050919050565b600073ffffffffffffffffffffffffffffffffffffffff82169050919050565b600061116382611138565b9050919050565b61117381611158565b82525050565b6000611185838361116a565b60208301905092915050565b6000602082019050919050565b60006111a98261110c565b6111b38185611117565b93506111be83611128565b8060005b838110156111ef5781516111d68882611179565b97506111e183611191565b9250506001810190506111c2565b5085935050505092915050565b60006020820190508181036000830152611216818461119e565b905092915050565b7f4e487b7100000000000000000000000000000000000000000000000000000000600052602260045260246000fd5b6000600282049050600182168061126557607f821691505b6020821081036112785761127761121e565b5b50919050565b600081905092915050565b600061129482610dfc565b61129e818561127e565b93506112ae818560208601610e18565b80840191505092915050565b60006112c68284611289565b915081905092915050565b600082825260208201905092915050565b7f43616c6c6572206973206e6f7420612073746174656b65657065720000000000600082015250565b6000611318601b836112d1565b9150611323826112e2565b602082019050919050565b600060208201905081810360008301526113478161130b565b9050919050565b60008190508160005260206000209050919050565b60006020601f8301049050919050565b600082821b905092915050565b6000600883026113b07fffffffffffffffffffffffffffffffffffffffffffffffffffffffffffffffff82611373565b6113ba8683611373565b95508019841693508086168417925050509392505050565b6000819050919050565b6000819050919050565b60006114016113fc6113f7846113d2565b6113dc565b6113d2565b9050919050565b6000819050919050565b61141b836113e6565b61142f61142782611408565b848454611380565b825550505050565b600090565b611444611437565b61144f818484611412565b505050565b5b818110156114735761146860008261143c565b600181019050611455565b5050565b601f8211156114b8576114898161134e565b61149284611363565b810160208510156114a1578190505b6114b56114ad85611363565b830182611454565b50505b505050565b600082821c905092915050565b60006114db600019846008026114bd565b1980831691505092915050565b60006114f483836114ca565b9150826002028217905092915050565b61150d82610dfc565b67ffffffffffffffff81111561152657611525610f62565b5b611530825461124d565b61153b828285611477565b600060209050601f83116001811461156e576000841561155c578287015190505b61156685826114e8565b8655506115ce565b601f19841661157c8661134e565b60005b828110156115a45784890151825560018201915060208501945060208101905061157f565b868310156115c157848901516115bd601f8916826114ca565b8355505b6001600288020188555050505b505050505050565b7f44494420697320616c72656164792061205472757374656420466f75726e697360008201527f7365757221000000000000000000000000000000000000000000000000000000602082015250565b60006116326025836112d1565b915061163d826115d6565b604082019050919050565b6000602082019050818103600083015261166181611625565b9050919050565b7f5468697320444944206973206e6f742061205472757374656420466f75726e6960008201527f7373657572210000000000000000000000000000000000000000000000000000602082015250565b60006116c46026836112d1565b91506116cf82611668565b604082019050919050565b600060208201905081810360008301526116f3816116b7565b9050919050565b7f4e487b7100000000000000000000000000000000000000000000000000000000600052603260045260246000fd5b600081546117368161124d565b611740818661127e565b9450600182166000811461175b5760018114611770576117a3565b60ff19831686528115158202860193506117a3565b6117798561134e565b60005b8381101561179b5781548189015260018201915060208101905061177c565b838801955050505b50505092915050565b60006117b88284611729565b915081905092915050565b7f4e487b7100000000000000000000000000000000000000000000000000000000600052601160045260246000fd5b60006117fd826113d2565b91507fffffffffffffffffffffffffffffffffffffffffffffffffffffffffffffffff820361182f5761182e6117c3565b5b600182019050919050565b6000611845826113d2565b9150611850836113d2565b9250828203905081811115611868576118676117c3565b5b92915050565b60008154905061187d8161124d565b9050919050565b60008190508160005260206000209050919050565b8181036118a757505061197f565b6118b08261186e565b67ffffffffffffffff8111156118c9576118c8610f62565b5b6118d3825461124d565b6118de828285611477565b6000601f83116001811461190d57600084156118fb578287015490505b61190585826114e8565b865550611978565b601f19841661191b87611884565b96506119268661134e565b60005b8281101561194e57848901548255600182019150600185019450602081019050611929565b8683101561196b5784890154611967601f8916826114ca565b8355505b6001600288020188555050505b5050505050505b565b7f4e487b7100000000000000000000000000000000000000000000000000000000600052603160045260246000fd5b7f5468697320444944206973206e6f7420612054727573746564204c61626f2100600082015250565b60006119e6601f836112d1565b91506119f1826119b0565b602082019050919050565b60006020820190508181036000830152611a15816119d9565b9050919050565b7f44494420697320616c726561647920612054727573746564204c61626f210000600082015250565b6000611a52601e836112d1565b9150611a5d82611a1c565b602082019050919050565b60006020820190508181036000830152611a8181611a45565b905091905056fea26469706673582212205902c221efa2aab3e2a548dbfc41a9d6ae4e21c6355f2365ee964d9d8e62b69f64736f6c63430008110033",
  "immutableReferences": {},
  "source": "pragma solidity ^0.8.0;\r\n\r\ncontract DidRegistry {\r\n    // Stores\r\n    AddressStore statekeepers;\r\n    DIDStore trustedIssuers;\r\n    DIDStore trustedLabo;\r\n    DIDStore trustedFournisseurs;\r\n\r\n    constructor() {\r\n        statekeepers.map[msg.sender] = true;\r\n        statekeepers.keys.push(msg.sender);\r\n    }\r\n\r\n    function addStatekeeper(address _statekeeperAddress) internal {\r\n        if (!statekeepers.map[_statekeeperAddress]) {\r\n            statekeepers.map[_statekeeperAddress] = true;\r\n            statekeepers.keys.push(_statekeeperAddress);\r\n        } else {\r\n            revert(\"Address is already a Statekeeper!\");\r\n        }\r\n    }\r\n\r\n    function removeStatekeeper(address _statekeeperAddress) internal {\r\n        if (statekeepers.map[_statekeeperAddress]) {\r\n            delete statekeepers.map[_statekeeperAddress];\r\n        } else {\r\n            revert(\"This address is not a Statekeeper!\");\r\n        }\r\n\r\n        int256 index = -1;\r\n        for (uint256 i = 0; i < statekeepers.keys.length; i++) {\r\n            if (statekeepers.keys[i] == _statekeeperAddress) {\r\n                index = int256(i);\r\n            }\r\n        }\r\n\r\n        if (index > -1) {\r\n            // Move to be delete element to last position and then pop it out -> this prevents \"gaps\" in the array\r\n            statekeepers.keys[uint256(index)] = statekeepers.keys[\r\n                statekeepers.keys.length - 1\r\n            ];\r\n            statekeepers.keys.pop();\r\n        } else {\r\n            revert(\"This address is not a Statekeeper!\");\r\n        }\r\n    }\r\n\r\n    function getStatekeepers() public view returns (address[] memory) {\r\n        return statekeepers.keys;\r\n    }\r\n\r\n    function addTrustedLabo(string memory _issuerDID) public onlyStatekeepers {\r\n        if (!trustedLabo.map[_issuerDID]) {\r\n            trustedLabo.map[_issuerDID] = true;\r\n            trustedLabo.keys.push(_issuerDID);\r\n        } else {\r\n            revert(\"DID is already a Trusted Labo!\");\r\n        }\r\n    }\r\n\r\n    function removeTrustedLabo(string memory _issuerDID)\r\n        public\r\n        onlyStatekeepers\r\n    {\r\n        if (trustedLabo.map[_issuerDID]) {\r\n            delete trustedLabo.map[_issuerDID];\r\n        } else {\r\n            revert(\"This DID is not a Trusted Labo!\");\r\n        }\r\n\r\n        int256 index = -1;\r\n        // You can't compare strings in Solidity -> compare hashes\r\n        // https://ethereum.stackexchange.com/questions/45813/compare-strings-in-solidity\r\n        for (uint256 i = 0; i < trustedLabo.keys.length; i++) {\r\n            if (\r\n                keccak256(abi.encodePacked(trustedLabo.keys[i])) ==\r\n                keccak256(abi.encodePacked(_issuerDID))\r\n            ) {\r\n                index = int256(i);\r\n            }\r\n        }\r\n\r\n        if (index > -1) {\r\n            // Move to be delete element to last position and then pop it out -> this prevents \"gaps\" in the array\r\n            trustedLabo.keys[uint256(index)] = trustedLabo.keys[\r\n                trustedLabo.keys.length - 1\r\n            ];\r\n            trustedLabo.keys.pop();\r\n        } else {\r\n            revert(\"This DID is not a Trusted Labo!\");\r\n        }\r\n    }\r\n\r\n    // This will be called by verifiers to get all trusted issuer DIDs\r\n    function getTrustedLabos() public view returns (string[] memory) {\r\n        return trustedLabo.keys;\r\n    }\r\n\r\n    // This will be called by verifiers to check for a singular DID\r\n    function isTrustedlabo(string memory _fournisseurDID)\r\n        public\r\n        view\r\n        returns (bool)\r\n    {\r\n        return trustedLabo.map[_fournisseurDID];\r\n    }\r\n\r\n    function addTrustedFournisseur(string memory _fournisseurDID)\r\n        public\r\n        onlyStatekeepers\r\n    {\r\n        if (!trustedFournisseurs.map[_fournisseurDID]) {\r\n            trustedFournisseurs.map[_fournisseurDID] = true;\r\n            trustedFournisseurs.keys.push(_fournisseurDID);\r\n        } else {\r\n            revert(\"DID is already a Trusted Fournisseur!\");\r\n        }\r\n    }\r\n\r\n    function removeTrustedFournisseurs(string memory _fournisseurDID)\r\n        public\r\n        onlyStatekeepers\r\n    {\r\n        if (trustedFournisseurs.map[_fournisseurDID]) {\r\n            delete trustedFournisseurs.map[_fournisseurDID];\r\n        } else {\r\n            revert(\"This DID is not a Trusted Fournisseur!\");\r\n        }\r\n\r\n        int256 index = -1;\r\n        // You can't compare strings in Solidity -> compare hashes\r\n        // https://ethereum.stackexchange.com/questions/45813/compare-strings-in-solidity\r\n        for (uint256 i = 0; i < trustedFournisseurs.keys.length; i++) {\r\n            if (\r\n                keccak256(abi.encodePacked(trustedFournisseurs.keys[i])) ==\r\n                keccak256(abi.encodePacked(_fournisseurDID))\r\n            ) {\r\n                index = int256(i);\r\n            }\r\n        }\r\n\r\n        if (index > -1) {\r\n            // Move to be delete element to last position and then pop it out -> this prevents \"gaps\" in the array\r\n            trustedFournisseurs.keys[uint256(index)] = trustedFournisseurs.keys[\r\n                trustedFournisseurs.keys.length - 1\r\n            ];\r\n            trustedFournisseurs.keys.pop();\r\n        } else {\r\n            revert(\"This DID is not a Trusted Fournisseur!\");\r\n        }\r\n    }\r\n\r\n    // This will be called by verifiers to get all trusted issuer DIDs\r\n    function getTrustedFournisseurs() public view returns (string[] memory) {\r\n        return trustedFournisseurs.keys;\r\n    }\r\n\r\n    // This will be called by verifiers to check for a singular DID\r\n    function isTrustedFournisseur(string memory _fournisseurDID)\r\n        public\r\n        view\r\n        returns (bool)\r\n    {\r\n        return trustedFournisseurs.map[_fournisseurDID];\r\n    }\r\n\r\n    // This removes all bytecode from the contract address\r\n    function killContract() internal {\r\n        selfdestruct(payable(msg.sender));\r\n    }\r\n\r\n    // Structs and Enums\r\n\r\n    enum State {\r\n        ACCEPTED,\r\n        REJECTED,\r\n        IN_PROGRESS\r\n    }\r\n    enum StoreTypes {\r\n        STATEKEEPERS,\r\n        TRUSTEDISSUERS\r\n    }\r\n\r\n    // We can't get all keys of a map in Solidity -> we use it together with an array to get all keys\r\n    struct AddressStore {\r\n        mapping(address => bool) map;\r\n        address[] keys;\r\n    }\r\n\r\n    // We can't get all keys of a map in Solidity -> we use it together with an array to get all keys\r\n    struct DIDStore {\r\n        mapping(string => bool) map; // We store string to support every type of DID. Only did:ethr? -> address type sufficient\r\n        mapping(string => string) names;\r\n        string[] keys;\r\n    }\r\n\r\n    // Modifiers/ Middleware\r\n\r\n    modifier onlyStatekeepers() {\r\n        require(\r\n            statekeepers.map[msg.sender] == true,\r\n            \"Caller is not a statekeeper\"\r\n        );\r\n        _;\r\n    }\r\n}\r\n",
  "sourcePath": "C:\\Users\\habou\\OneDrive\\Bureau\\blockchain\\edf-poc-beta\\dapps\\edf-dapp\\truffle\\contracts\\DidRegistry.sol",
  "compiler": {
    "name": "solc",
    "version": "0.8.17+commit.8df45f5f.Emscripten.clang"
  },
  "schemaVersion": "3.4.11",
  "updatedAt": "2023-01-21T20:23:42.427Z",
  "networkType": "ethereum",
  "devdoc": {
    "kind": "dev",
    "methods": {},
    "version": 1
  },
  "userdoc": {
    "kind": "user",
    "methods": {},
    "version": 1
  }
}