{
  "contractName": "DidRegistry",
  "abi": [
    {
      "inputs": [],
      "name": "laboratorieCount",
      "outputs": [
        {
          "internalType": "uint256",
          "name": "",
          "type": "uint256"
        }
      ],
      "stateMutability": "view",
      "type": "function",
      "constant": true
    },
    {
      "inputs": [
        {
          "internalType": "uint256",
          "name": "",
          "type": "uint256"
        }
      ],
      "name": "laboratories",
      "outputs": [
        {
          "internalType": "string",
          "name": "addressL",
          "type": "string"
        },
        {
          "internalType": "string",
          "name": "didL",
          "type": "string"
        },
        {
          "internalType": "string",
          "name": "nameL",
          "type": "string"
        }
      ],
      "stateMutability": "view",
      "type": "function",
      "constant": true
    },
    {
      "inputs": [],
      "name": "ownerCount",
      "outputs": [
        {
          "internalType": "uint256",
          "name": "",
          "type": "uint256"
        }
      ],
      "stateMutability": "view",
      "type": "function",
      "constant": true
    },
    {
      "inputs": [
        {
          "internalType": "uint256",
          "name": "",
          "type": "uint256"
        }
      ],
      "name": "owners",
      "outputs": [
        {
          "internalType": "string",
          "name": "addressO",
          "type": "string"
        },
        {
          "internalType": "string",
          "name": "didO",
          "type": "string"
        },
        {
          "internalType": "string",
          "name": "nameO",
          "type": "string"
        }
      ],
      "stateMutability": "view",
      "type": "function",
      "constant": true
    },
    {
      "inputs": [],
      "name": "supplierCount",
      "outputs": [
        {
          "internalType": "uint256",
          "name": "",
          "type": "uint256"
        }
      ],
      "stateMutability": "view",
      "type": "function",
      "constant": true
    },
    {
      "inputs": [
        {
          "internalType": "uint256",
          "name": "",
          "type": "uint256"
        }
      ],
      "name": "suppliers",
      "outputs": [
        {
          "internalType": "string",
          "name": "addressS",
          "type": "string"
        },
        {
          "internalType": "string",
          "name": "didS",
          "type": "string"
        },
        {
          "internalType": "string",
          "name": "nameS",
          "type": "string"
        }
      ],
      "stateMutability": "view",
      "type": "function",
      "constant": true
    },
    {
      "inputs": [
        {
          "internalType": "string",
          "name": "_address",
          "type": "string"
        },
        {
          "internalType": "string",
          "name": "_did",
          "type": "string"
        },
        {
          "internalType": "string",
          "name": "_name",
          "type": "string"
        }
      ],
      "name": "addOwner",
      "outputs": [],
      "stateMutability": "nonpayable",
      "type": "function"
    },
    {
      "inputs": [
        {
          "internalType": "string",
          "name": "_address",
          "type": "string"
        },
        {
          "internalType": "string",
          "name": "_did",
          "type": "string"
        },
        {
          "internalType": "string",
          "name": "_name",
          "type": "string"
        }
      ],
      "name": "addSupplier",
      "outputs": [],
      "stateMutability": "nonpayable",
      "type": "function"
    },
    {
      "inputs": [
        {
          "internalType": "string",
          "name": "_address",
          "type": "string"
        },
        {
          "internalType": "string",
          "name": "_did",
          "type": "string"
        },
        {
          "internalType": "string",
          "name": "_name",
          "type": "string"
        }
      ],
      "name": "addLaboratory",
      "outputs": [],
      "stateMutability": "nonpayable",
      "type": "function"
    },
    {
      "inputs": [],
      "name": "getAllLaboratories",
      "outputs": [
        {
          "components": [
            {
              "internalType": "string",
              "name": "addressL",
              "type": "string"
            },
            {
              "internalType": "string",
              "name": "didL",
              "type": "string"
            },
            {
              "internalType": "string",
              "name": "nameL",
              "type": "string"
            }
          ],
          "internalType": "struct DidRegistry.Laboratory[]",
          "name": "",
          "type": "tuple[]"
        }
      ],
      "stateMutability": "view",
      "type": "function",
      "constant": true
    },
    {
      "inputs": [],
      "name": "getAllSuppliers",
      "outputs": [
        {
          "components": [
            {
              "internalType": "string",
              "name": "addressS",
              "type": "string"
            },
            {
              "internalType": "string",
              "name": "didS",
              "type": "string"
            },
            {
              "internalType": "string",
              "name": "nameS",
              "type": "string"
            }
          ],
          "internalType": "struct DidRegistry.Supplier[]",
          "name": "",
          "type": "tuple[]"
        }
      ],
      "stateMutability": "view",
      "type": "function",
      "constant": true
    },
    {
      "inputs": [
        {
          "internalType": "string",
          "name": "_address",
          "type": "string"
        }
      ],
      "name": "getDataByAddress",
      "outputs": [
        {
          "internalType": "string",
          "name": "",
          "type": "string"
        },
        {
          "internalType": "string",
          "name": "",
          "type": "string"
        },
        {
          "internalType": "string",
          "name": "",
          "type": "string"
        }
      ],
      "stateMutability": "view",
      "type": "function",
      "constant": true
    }
  ],
  "bytecode": "0x608060405234801561001057600080fd5b506121e5806100206000396000f3fe608060405234801561001057600080fd5b50600436106100b45760003560e01c806386d3c72c1161007157806386d3c72c1461017b5780639cad5d4c14610199578063a62b17d2146101cb578063b53305dc146101e9578063cea2312114610207578063f206567914610239576100b4565b8063025e7c27146100b95780630db02622146100eb578063140c6b91146101095780631f2be72e1461012757806346f04195146101435780634e8ca5241461015f575b600080fd5b6100d360048036038101906100ce91906116ac565b61026b565b6040516100e293929190611769565b60405180910390f35b6100f361042d565b60405161010091906117c4565b60405180910390f35b610111610433565b60405161011e91906117c4565b60405180910390f35b610141600480360381019061013c9190611914565b610439565b005b61015d60048036038101906101589190611914565b610539565b005b61017960048036038101906101749190611914565b610639565b005b610183610737565b60405161019091906117c4565b60405180910390f35b6101b360048036038101906101ae91906116ac565b61073d565b6040516101c293929190611769565b60405180910390f35b6101d36108ff565b6040516101e09190611b25565b60405180910390f35b6101f1610b75565b6040516101fe9190611c67565b60405180910390f35b610221600480360381019061021c91906116ac565b610deb565b60405161023093929190611769565b60405180910390f35b610253600480360381019061024e9190611c89565b610fad565b60405161026293929190611769565b60405180910390f35b600160205280600052604060002060009150905080600001805461028e90611d01565b80601f01602080910402602001604051908101604052809291908181526020018280546102ba90611d01565b80156103075780601f106102dc57610100808354040283529160200191610307565b820191906000526020600020905b8154815290600101906020018083116102ea57829003601f168201915b50505050509080600101805461031c90611d01565b80601f016020809104026020016040519081016040528092919081815260200182805461034890611d01565b80156103955780601f1061036a57610100808354040283529160200191610395565b820191906000526020600020905b81548152906001019060200180831161037857829003601f168201915b5050505050908060020180546103aa90611d01565b80601f01602080910402602001604051908101604052809291908181526020018280546103d690611d01565b80156104235780601f106103f857610100808354040283529160200191610423565b820191906000526020600020905b81548152906001019060200180831161040657829003601f168201915b5050505050905083565b60005481565b60025481565b3373ffffffffffffffffffffffffffffffffffffffff163373ffffffffffffffffffffffffffffffffffffffff16146104a7576040517f08c379a000000000000000000000000000000000000000000000000000000000815260040161049e90611d7e565b60405180910390fd5b60405180606001604052808481526020018381526020018281525060056000600454815260200190815260200160002060008201518160000190816104ec9190611f4a565b5060208201518160010190816105029190611f4a565b5060408201518160020190816105189190611f4a565b509050506004600081548092919061052f9061204b565b9190505550505050565b3373ffffffffffffffffffffffffffffffffffffffff163373ffffffffffffffffffffffffffffffffffffffff16146105a7576040517f08c379a000000000000000000000000000000000000000000000000000000000815260040161059e90611d7e565b60405180910390fd5b60405180606001604052808481526020018381526020018281525060036000600254815260200190815260200160002060008201518160000190816105ec9190611f4a565b5060208201518160010190816106029190611f4a565b5060408201518160020190816106189190611f4a565b509050506002600081548092919061062f9061204b565b9190505550505050565b3373ffffffffffffffffffffffffffffffffffffffff163373ffffffffffffffffffffffffffffffffffffffff16146106a7576040517f08c379a000000000000000000000000000000000000000000000000000000000815260040161069e90611d7e565b60405180910390fd5b604051806060016040528084815260200183815260200182815250600160008054815260200190815260200160002060008201518160000190816106eb9190611f4a565b5060208201518160010190816107019190611f4a565b5060408201518160020190816107179190611f4a565b5090505060008081548092919061072d9061204b565b9190505550505050565b60045481565b600560205280600052604060002060009150905080600001805461076090611d01565b80601f016020809104026020016040519081016040528092919081815260200182805461078c90611d01565b80156107d95780601f106107ae576101008083540402835291602001916107d9565b820191906000526020600020905b8154815290600101906020018083116107bc57829003601f168201915b5050505050908060010180546107ee90611d01565b80601f016020809104026020016040519081016040528092919081815260200182805461081a90611d01565b80156108675780601f1061083c57610100808354040283529160200191610867565b820191906000526020600020905b81548152906001019060200180831161084a57829003601f168201915b50505050509080600201805461087c90611d01565b80601f01602080910402602001604051908101604052809291908181526020018280546108a890611d01565b80156108f55780601f106108ca576101008083540402835291602001916108f5565b820191906000526020600020905b8154815290600101906020018083116108d857829003601f168201915b5050505050905083565b6060600060045467ffffffffffffffff81111561091f5761091e6117e9565b5b60405190808252806020026020018201604052801561095857816020015b610945611620565b81526020019060019003908161093d5790505b50905060005b600454811015610b6d576005600082815260200190815260200160002060405180606001604052908160008201805461099690611d01565b80601f01602080910402602001604051908101604052809291908181526020018280546109c290611d01565b8015610a0f5780601f106109e457610100808354040283529160200191610a0f565b820191906000526020600020905b8154815290600101906020018083116109f257829003601f168201915b50505050508152602001600182018054610a2890611d01565b80601f0160208091040260200160405190810160405280929190818152602001828054610a5490611d01565b8015610aa15780601f10610a7657610100808354040283529160200191610aa1565b820191906000526020600020905b815481529060010190602001808311610a8457829003601f168201915b50505050508152602001600282018054610aba90611d01565b80601f0160208091040260200160405190810160405280929190818152602001828054610ae690611d01565b8015610b335780601f10610b0857610100808354040283529160200191610b33565b820191906000526020600020905b815481529060010190602001808311610b1657829003601f168201915b505050505081525050828281518110610b4f57610b4e612093565b5b60200260200101819052508080610b659061204b565b91505061095e565b508091505090565b6060600060025467ffffffffffffffff811115610b9557610b946117e9565b5b604051908082528060200260200182016040528015610bce57816020015b610bbb611641565b815260200190600190039081610bb35790505b50905060005b600254811015610de35760036000828152602001908152602001600020604051806060016040529081600082018054610c0c90611d01565b80601f0160208091040260200160405190810160405280929190818152602001828054610c3890611d01565b8015610c855780601f10610c5a57610100808354040283529160200191610c85565b820191906000526020600020905b815481529060010190602001808311610c6857829003601f168201915b50505050508152602001600182018054610c9e90611d01565b80601f0160208091040260200160405190810160405280929190818152602001828054610cca90611d01565b8015610d175780601f10610cec57610100808354040283529160200191610d17565b820191906000526020600020905b815481529060010190602001808311610cfa57829003601f168201915b50505050508152602001600282018054610d3090611d01565b80601f0160208091040260200160405190810160405280929190818152602001828054610d5c90611d01565b8015610da95780601f10610d7e57610100808354040283529160200191610da9565b820191906000526020600020905b815481529060010190602001808311610d8c57829003601f168201915b505050505081525050828281518110610dc557610dc4612093565b5b60200260200101819052508080610ddb9061204b565b915050610bd4565b508091505090565b6003602052806000526040600020600091509050806000018054610e0e90611d01565b80601f0160208091040260200160405190810160405280929190818152602001828054610e3a90611d01565b8015610e875780601f10610e5c57610100808354040283529160200191610e87565b820191906000526020600020905b815481529060010190602001808311610e6a57829003601f168201915b505050505090806001018054610e9c90611d01565b80601f0160208091040260200160405190810160405280929190818152602001828054610ec890611d01565b8015610f155780601f10610eea57610100808354040283529160200191610f15565b820191906000526020600020905b815481529060010190602001808311610ef857829003601f168201915b505050505090806002018054610f2a90611d01565b80601f0160208091040260200160405190810160405280929190818152602001828054610f5690611d01565b8015610fa35780601f10610f7857610100808354040283529160200191610fa3565b820191906000526020600020905b815481529060010190602001808311610f8657829003601f168201915b5050505050905083565b606080606060005b6000548110156111c15784604051602001610fd091906120fe565b604051602081830303815290604052805190602001206001600083815260200190815260200160002060000160405160200161100c9190612198565b60405160208183030381529060405280519060200120036111ae57600160008281526020019081526020016000206001016001600083815260200190815260200160002060020181805461105f90611d01565b80601f016020809104026020016040519081016040528092919081815260200182805461108b90611d01565b80156110d85780601f106110ad576101008083540402835291602001916110d8565b820191906000526020600020905b8154815290600101906020018083116110bb57829003601f168201915b505050505091506040518060400160405280600681526020017f636c69656e7400000000000000000000000000000000000000000000000000008152509080805461112290611d01565b80601f016020809104026020016040519081016040528092919081815260200182805461114e90611d01565b801561119b5780601f106111705761010080835404028352916020019161119b565b820191906000526020600020905b81548152906001019060200180831161117e57829003601f168201915b5050505050905093509350935050611619565b80806111b99061204b565b915050610fb5565b5060005b6002548110156113d157846040516020016111e091906120fe565b604051602081830303815290604052805190602001206003600083815260200190815260200160002060000160405160200161121c9190612198565b60405160208183030381529060405280519060200120036113be57600360008281526020019081526020016000206001016003600083815260200190815260200160002060020181805461126f90611d01565b80601f016020809104026020016040519081016040528092919081815260200182805461129b90611d01565b80156112e85780601f106112bd576101008083540402835291602001916112e8565b820191906000526020600020905b8154815290600101906020018083116112cb57829003601f168201915b505050505091506040518060400160405280600b81526020017f666f75726e6973736575720000000000000000000000000000000000000000008152509080805461133290611d01565b80601f016020809104026020016040519081016040528092919081815260200182805461135e90611d01565b80156113ab5780601f10611380576101008083540402835291602001916113ab565b820191906000526020600020905b81548152906001019060200180831161138e57829003601f168201915b5050505050905093509350935050611619565b80806113c99061204b565b9150506111c5565b5060005b6004548110156115e157846040516020016113f091906120fe565b604051602081830303815290604052805190602001206005600083815260200190815260200160002060000160405160200161142c9190612198565b60405160208183030381529060405280519060200120036115ce57600560008281526020019081526020016000206001016005600083815260200190815260200160002060020181805461147f90611d01565b80601f01602080910402602001604051908101604052809291908181526020018280546114ab90611d01565b80156114f85780601f106114cd576101008083540402835291602001916114f8565b820191906000526020600020905b8154815290600101906020018083116114db57829003601f168201915b505050505091506040518060400160405280600481526020017f6c61626f000000000000000000000000000000000000000000000000000000008152509080805461154290611d01565b80601f016020809104026020016040519081016040528092919081815260200182805461156e90611d01565b80156115bb5780601f10611590576101008083540402835291602001916115bb565b820191906000526020600020905b81548152906001019060200180831161159e57829003601f168201915b5050505050905093509350935050611619565b80806115d99061204b565b9150506113d5565b506040518060200160405280600081525060405180602001604052806000815250604051806020016040528060008152509250925092505b9193909250565b60405180606001604052806060815260200160608152602001606081525090565b60405180606001604052806060815260200160608152602001606081525090565b6000604051905090565b600080fd5b600080fd5b6000819050919050565b61168981611676565b811461169457600080fd5b50565b6000813590506116a681611680565b92915050565b6000602082840312156116c2576116c161166c565b5b60006116d084828501611697565b91505092915050565b600081519050919050565b600082825260208201905092915050565b60005b838110156117135780820151818401526020810190506116f8565b60008484015250505050565b6000601f19601f8301169050919050565b600061173b826116d9565b61174581856116e4565b93506117558185602086016116f5565b61175e8161171f565b840191505092915050565b600060608201905081810360008301526117838186611730565b905081810360208301526117978185611730565b905081810360408301526117ab8184611730565b9050949350505050565b6117be81611676565b82525050565b60006020820190506117d960008301846117b5565b92915050565b600080fd5b600080fd5b7f4e487b7100000000000000000000000000000000000000000000000000000000600052604160045260246000fd5b6118218261171f565b810181811067ffffffffffffffff821117156118405761183f6117e9565b5b80604052505050565b6000611853611662565b905061185f8282611818565b919050565b600067ffffffffffffffff82111561187f5761187e6117e9565b5b6118888261171f565b9050602081019050919050565b82818337600083830152505050565b60006118b76118b284611864565b611849565b9050828152602081018484840111156118d3576118d26117e4565b5b6118de848285611895565b509392505050565b600082601f8301126118fb576118fa6117df565b5b813561190b8482602086016118a4565b91505092915050565b60008060006060848603121561192d5761192c61166c565b5b600084013567ffffffffffffffff81111561194b5761194a611671565b5b611957868287016118e6565b935050602084013567ffffffffffffffff81111561197857611977611671565b5b611984868287016118e6565b925050604084013567ffffffffffffffff8111156119a5576119a4611671565b5b6119b1868287016118e6565b9150509250925092565b600081519050919050565b600082825260208201905092915050565b6000819050602082019050919050565b600082825260208201905092915050565b6000611a03826116d9565b611a0d81856119e7565b9350611a1d8185602086016116f5565b611a268161171f565b840191505092915050565b60006060830160008301518482036000860152611a4e82826119f8565b91505060208301518482036020860152611a6882826119f8565b91505060408301518482036040860152611a8282826119f8565b9150508091505092915050565b6000611a9b8383611a31565b905092915050565b6000602082019050919050565b6000611abb826119bb565b611ac581856119c6565b935083602082028501611ad7856119d7565b8060005b85811015611b135784840389528151611af48582611a8f565b9450611aff83611aa3565b925060208a01995050600181019050611adb565b50829750879550505050505092915050565b60006020820190508181036000830152611b3f8184611ab0565b905092915050565b600081519050919050565b600082825260208201905092915050565b6000819050602082019050919050565b60006060830160008301518482036000860152611b9082826119f8565b91505060208301518482036020860152611baa82826119f8565b91505060408301518482036040860152611bc482826119f8565b9150508091505092915050565b6000611bdd8383611b73565b905092915050565b6000602082019050919050565b6000611bfd82611b47565b611c078185611b52565b935083602082028501611c1985611b63565b8060005b85811015611c555784840389528151611c368582611bd1565b9450611c4183611be5565b925060208a01995050600181019050611c1d565b50829750879550505050505092915050565b60006020820190508181036000830152611c818184611bf2565b905092915050565b600060208284031215611c9f57611c9e61166c565b5b600082013567ffffffffffffffff811115611cbd57611cbc611671565b5b611cc9848285016118e6565b91505092915050565b7f4e487b7100000000000000000000000000000000000000000000000000000000600052602260045260246000fd5b60006002820490506001821680611d1957607f821691505b602082108103611d2c57611d2b611cd2565b5b50919050565b7f6f6e6c79206f776e65722063616e206164642068697320646964000000000000600082015250565b6000611d68601a836116e4565b9150611d7382611d32565b602082019050919050565b60006020820190508181036000830152611d9781611d5b565b9050919050565b60008190508160005260206000209050919050565b60006020601f8301049050919050565b600082821b905092915050565b600060088302611e007fffffffffffffffffffffffffffffffffffffffffffffffffffffffffffffffff82611dc3565b611e0a8683611dc3565b95508019841693508086168417925050509392505050565b6000819050919050565b6000611e47611e42611e3d84611676565b611e22565b611676565b9050919050565b6000819050919050565b611e6183611e2c565b611e75611e6d82611e4e565b848454611dd0565b825550505050565b600090565b611e8a611e7d565b611e95818484611e58565b505050565b5b81811015611eb957611eae600082611e82565b600181019050611e9b565b5050565b601f821115611efe57611ecf81611d9e565b611ed884611db3565b81016020851015611ee7578190505b611efb611ef385611db3565b830182611e9a565b50505b505050565b600082821c905092915050565b6000611f2160001984600802611f03565b1980831691505092915050565b6000611f3a8383611f10565b9150826002028217905092915050565b611f53826116d9565b67ffffffffffffffff811115611f6c57611f6b6117e9565b5b611f768254611d01565b611f81828285611ebd565b600060209050601f831160018114611fb45760008415611fa2578287015190505b611fac8582611f2e565b865550612014565b601f198416611fc286611d9e565b60005b82811015611fea57848901518255600182019150602085019450602081019050611fc5565b868310156120075784890151612003601f891682611f10565b8355505b6001600288020188555050505b505050505050565b7f4e487b7100000000000000000000000000000000000000000000000000000000600052601160045260246000fd5b600061205682611676565b91507fffffffffffffffffffffffffffffffffffffffffffffffffffffffffffffffff82036120885761208761201c565b5b600182019050919050565b7f4e487b7100000000000000000000000000000000000000000000000000000000600052603260045260246000fd5b600081905092915050565b60006120d8826116d9565b6120e281856120c2565b93506120f28185602086016116f5565b80840191505092915050565b600061210a82846120cd565b915081905092915050565b6000815461212281611d01565b61212c81866120c2565b94506001821660008114612147576001811461215c5761218f565b60ff198316865281151582028601935061218f565b61216585611d9e565b60005b8381101561218757815481890152600182019150602081019050612168565b838801955050505b50505092915050565b60006121a48284612115565b91508190509291505056fea2646970667358221220d2f0c6fbc4de7ce40bde507f47b2d0dac4d4edcf03d19cc99cf13fd21351088e64736f6c63430008120033",
  "immutableReferences": {},
  "source": "// SPDX-License-Identifier: MIT\r\npragma solidity ^0.8.0;\r\n\r\ncontract DidRegistry {\r\n    uint256 public ownerCount;\r\n    struct Owner {\r\n        string addressO;\r\n        string didO;\r\n        string nameO;\r\n    }\r\n    mapping(uint256 => Owner) public owners;\r\n\r\n    uint256 public supplierCount;\r\n    struct Supplier {\r\n        string addressS;\r\n        string didS;\r\n        string nameS;\r\n    }\r\n    mapping(uint256 => Supplier) public suppliers;\r\n\r\n    uint256 public laboratorieCount;\r\n    struct Laboratory {\r\n        string addressL;\r\n        string didL;\r\n        string nameL;\r\n    }\r\n    mapping(uint256 => Laboratory) public laboratories;\r\n\r\n    function addOwner(\r\n        string memory _address,\r\n        string memory _did,\r\n        string memory _name\r\n    ) public {\r\n        require(msg.sender == msg.sender, \"only owner can add his did\");\r\n        owners[ownerCount] = Owner(_address, _did, _name);\r\n        ownerCount++;\r\n    }\r\n\r\n    function addSupplier(\r\n        string memory _address,\r\n        string memory _did,\r\n        string memory _name\r\n    ) public {\r\n        require(msg.sender == msg.sender, \"only owner can add his did\");\r\n        suppliers[supplierCount] = Supplier(_address, _did, _name);\r\n        supplierCount++;\r\n    }\r\n\r\n    function addLaboratory(\r\n        string memory _address,\r\n        string memory _did,\r\n        string memory _name\r\n    ) public {\r\n        require(msg.sender == msg.sender, \"only owner can add his did\");\r\n        laboratories[laboratorieCount] = Laboratory(_address, _did, _name);\r\n        laboratorieCount++;\r\n    }\r\n\r\n    function getAllLaboratories() public view returns (Laboratory[] memory) {\r\n        Laboratory[] memory result = new Laboratory[](laboratorieCount);\r\n        for (uint256 i = 0; i < laboratorieCount; i++) {\r\n            result[i] = laboratories[i];\r\n        }\r\n        return result;\r\n    }\r\n\r\n    function getAllSuppliers() public view returns (Supplier[] memory) {\r\n        Supplier[] memory result = new Supplier[](supplierCount);\r\n        for (uint256 i = 0; i < supplierCount; i++) {\r\n            result[i] = suppliers[i];\r\n        }\r\n        return result;\r\n    }\r\n\r\n    function getDataByAddress(string memory _address)\r\n        public\r\n        view\r\n        returns (\r\n            string memory,\r\n            string memory,\r\n            string memory\r\n        )\r\n    {\r\n        for (uint256 i = 0; i < ownerCount; i++) {\r\n            if (\r\n                keccak256(abi.encodePacked(owners[i].addressO)) ==\r\n                keccak256(abi.encodePacked(_address))\r\n            ) {\r\n                return (owners[i].didO, \"client\", owners[i].nameO);\r\n            }\r\n        }\r\n        for (uint256 i = 0; i < supplierCount; i++) {\r\n            if (\r\n                keccak256(abi.encodePacked(suppliers[i].addressS)) ==\r\n                keccak256(abi.encodePacked(_address))\r\n            ) {\r\n                return (suppliers[i].didS, \"fournisseur\", suppliers[i].nameS);\r\n            }\r\n        }\r\n        for (uint256 i = 0; i < laboratorieCount; i++) {\r\n            if (\r\n                keccak256(abi.encodePacked(laboratories[i].addressL)) ==\r\n                keccak256(abi.encodePacked(_address))\r\n            ) {\r\n                return (laboratories[i].didL, \"labo\", laboratories[i].nameL);\r\n            }\r\n        }\r\n        return (\"\", \"\", \"\");\r\n    }\r\n}\r\n",
  "sourcePath": "C:\\Users\\habou\\OneDrive\\Bureau\\blockchain\\edf-poc-beta\\dapps\\edf-dapp\\truffle\\contracts\\DidRegistry.sol",
  "compiler": {
    "name": "solc",
    "version": "0.8.18+commit.87f61d96.Emscripten.clang"
  },
  "schemaVersion": "3.4.11",
  "updatedAt": "2023-02-07T12:43:37.017Z",
  "networkType": "ethereum",
  "devdoc": {
    "kind": "dev",
    "methods": {},
    "version": 1
  },
  "userdoc": {
    "kind": "user",
    "methods": {},
    "version": 1
  }
}