{
  "contractName": "ProcessList",
  "abi": [
    {
      "inputs": [],
      "name": "processCount",
      "outputs": [
        {
          "internalType": "uint256",
          "name": "",
          "type": "uint256"
        }
      ],
      "stateMutability": "view",
      "type": "function",
      "constant": true
    },
    {
      "inputs": [
        {
          "internalType": "uint256",
          "name": "",
          "type": "uint256"
        }
      ],
      "name": "processes",
      "outputs": [
        {
          "internalType": "uint256",
          "name": "id",
          "type": "uint256"
        },
        {
          "internalType": "uint8",
          "name": "state",
          "type": "uint8"
        },
        {
          "internalType": "string",
          "name": "owner",
          "type": "string"
        },
        {
          "internalType": "string",
          "name": "laboratory",
          "type": "string"
        },
        {
          "internalType": "string",
          "name": "supplier",
          "type": "string"
        }
      ],
      "stateMutability": "view",
      "type": "function",
      "constant": true
    },
    {
      "inputs": [
        {
          "internalType": "string",
          "name": "_hash",
          "type": "string"
        },
        {
          "internalType": "string",
          "name": "_owner",
          "type": "string"
        },
        {
          "internalType": "string",
          "name": "_supplier",
          "type": "string"
        }
      ],
      "name": "addProcess",
      "outputs": [],
      "stateMutability": "nonpayable",
      "type": "function"
    },
    {
      "inputs": [
        {
          "internalType": "uint256",
          "name": "_id",
          "type": "uint256"
        }
      ],
      "name": "getProcessData",
      "outputs": [
        {
          "internalType": "uint256",
          "name": "",
          "type": "uint256"
        },
        {
          "internalType": "string[]",
          "name": "",
          "type": "string[]"
        },
        {
          "internalType": "enum ProcessList.ProcessState",
          "name": "",
          "type": "uint8"
        },
        {
          "internalType": "string",
          "name": "",
          "type": "string"
        },
        {
          "internalType": "string",
          "name": "",
          "type": "string"
        },
        {
          "internalType": "string",
          "name": "",
          "type": "string"
        }
      ],
      "stateMutability": "view",
      "type": "function",
      "constant": true
    },
    {
      "inputs": [
        {
          "internalType": "uint256",
          "name": "_id",
          "type": "uint256"
        },
        {
          "internalType": "string",
          "name": "_hash",
          "type": "string"
        }
      ],
      "name": "updateProcessHashes",
      "outputs": [],
      "stateMutability": "nonpayable",
      "type": "function"
    },
    {
      "inputs": [
        {
          "internalType": "uint256",
          "name": "_id",
          "type": "uint256"
        },
        {
          "internalType": "uint8",
          "name": "_state",
          "type": "uint8"
        }
      ],
      "name": "updateProcessState",
      "outputs": [],
      "stateMutability": "nonpayable",
      "type": "function"
    },
    {
      "inputs": [
        {
          "internalType": "uint256",
          "name": "_id",
          "type": "uint256"
        },
        {
          "internalType": "uint8",
          "name": "_state",
          "type": "uint8"
        },
        {
          "internalType": "string",
          "name": "_hash",
          "type": "string"
        },
        {
          "internalType": "string",
          "name": "_laboratory",
          "type": "string"
        }
      ],
      "name": "updateProcess",
      "outputs": [],
      "stateMutability": "nonpayable",
      "type": "function"
    },
    {
      "inputs": [
        {
          "internalType": "uint256",
          "name": "_id",
          "type": "uint256"
        },
        {
          "internalType": "uint8",
          "name": "_state",
          "type": "uint8"
        },
        {
          "internalType": "string",
          "name": "_hash",
          "type": "string"
        }
      ],
      "name": "updateLastProcess",
      "outputs": [],
      "stateMutability": "nonpayable",
      "type": "function"
    },
    {
      "inputs": [
        {
          "internalType": "uint256",
          "name": "_id",
          "type": "uint256"
        },
        {
          "internalType": "string",
          "name": "_laboratory",
          "type": "string"
        }
      ],
      "name": "updateProcessLaboratory",
      "outputs": [],
      "stateMutability": "nonpayable",
      "type": "function"
    },
    {
      "inputs": [
        {
          "internalType": "uint256",
          "name": "_id",
          "type": "uint256"
        }
      ],
      "name": "getProcessState",
      "outputs": [
        {
          "internalType": "uint8",
          "name": "",
          "type": "uint8"
        }
      ],
      "stateMutability": "view",
      "type": "function",
      "constant": true
    },
    {
      "inputs": [
        {
          "internalType": "uint256",
          "name": "_id",
          "type": "uint256"
        }
      ],
      "name": "getProcessHashes",
      "outputs": [
        {
          "internalType": "string[]",
          "name": "",
          "type": "string[]"
        }
      ],
      "stateMutability": "view",
      "type": "function",
      "constant": true
    },
    {
      "inputs": [
        {
          "internalType": "uint256",
          "name": "_id",
          "type": "uint256"
        }
      ],
      "name": "getFirstProcessHash",
      "outputs": [
        {
          "internalType": "string",
          "name": "",
          "type": "string"
        }
      ],
      "stateMutability": "view",
      "type": "function",
      "constant": true
    },
    {
      "inputs": [
        {
          "internalType": "string",
          "name": "_owner",
          "type": "string"
        }
      ],
      "name": "getOwnerProcesses",
      "outputs": [
        {
          "components": [
            {
              "internalType": "uint256",
              "name": "id",
              "type": "uint256"
            },
            {
              "internalType": "string[]",
              "name": "hashes",
              "type": "string[]"
            },
            {
              "internalType": "uint8",
              "name": "state",
              "type": "uint8"
            },
            {
              "internalType": "string",
              "name": "owner",
              "type": "string"
            },
            {
              "internalType": "string",
              "name": "laboratory",
              "type": "string"
            },
            {
              "internalType": "string",
              "name": "supplier",
              "type": "string"
            }
          ],
          "internalType": "struct ProcessList.Process[]",
          "name": "",
          "type": "tuple[]"
        }
      ],
      "stateMutability": "view",
      "type": "function",
      "constant": true
    },
    {
      "inputs": [
        {
          "internalType": "string",
          "name": "_laboratory",
          "type": "string"
        }
      ],
      "name": "getLaboratoryProcesses",
      "outputs": [
        {
          "components": [
            {
              "internalType": "uint256",
              "name": "id",
              "type": "uint256"
            },
            {
              "internalType": "string[]",
              "name": "hashes",
              "type": "string[]"
            },
            {
              "internalType": "uint8",
              "name": "state",
              "type": "uint8"
            },
            {
              "internalType": "string",
              "name": "owner",
              "type": "string"
            },
            {
              "internalType": "string",
              "name": "laboratory",
              "type": "string"
            },
            {
              "internalType": "string",
              "name": "supplier",
              "type": "string"
            }
          ],
          "internalType": "struct ProcessList.Process[]",
          "name": "",
          "type": "tuple[]"
        }
      ],
      "stateMutability": "view",
      "type": "function",
      "constant": true
    },
    {
      "inputs": [],
      "name": "getProcessCount",
      "outputs": [
        {
          "internalType": "uint256",
          "name": "",
          "type": "uint256"
        }
      ],
      "stateMutability": "view",
      "type": "function",
      "constant": true
    },
    {
      "inputs": [
        {
          "internalType": "string",
          "name": "_supplier",
          "type": "string"
        }
      ],
      "name": "getSupplierProcesses",
      "outputs": [
        {
          "components": [
            {
              "internalType": "uint256",
              "name": "id",
              "type": "uint256"
            },
            {
              "internalType": "string[]",
              "name": "hashes",
              "type": "string[]"
            },
            {
              "internalType": "uint8",
              "name": "state",
              "type": "uint8"
            },
            {
              "internalType": "string",
              "name": "owner",
              "type": "string"
            },
            {
              "internalType": "string",
              "name": "laboratory",
              "type": "string"
            },
            {
              "internalType": "string",
              "name": "supplier",
              "type": "string"
            }
          ],
          "internalType": "struct ProcessList.Process[]",
          "name": "",
          "type": "tuple[]"
        }
      ],
      "stateMutability": "view",
      "type": "function",
      "constant": true
    }
  ],
  "bytecode": "0x608060405234801561001057600080fd5b50612afa806100206000396000f3fe608060405234801561001057600080fd5b50600436106101005760003560e01c8063853a0f4811610097578063c46fee1211610066578063c46fee12146102d8578063cdb56c90146102f4578063cf13cd4f14610312578063e07365e41461034257610100565b8063853a0f481461025457806397625ecf14610270578063b4de8bb41461028c578063bf45f490146102a857610100565b80635df3906d116100d35780635df3906d146101ba5780636f36f962146101ea578063759e12e014610206578063848df5401461023657610100565b80630a3dbb011461010557806329f6fc551461013a578063414b7b9b1461016a578063579e51c714610186575b600080fd5b61011f600480360381019061011a9190611bfc565b610372565b60405161013196959493929190611e4b565b60405180910390f35b610154600480360381019061014f9190611bfc565b61065c565b6040516101619190611ec8565b60405180910390f35b610184600480360381019061017f9190611f23565b61076b565b005b6101a0600480360381019061019b9190611bfc565b6107f8565b6040516101b1959493929190611f72565b60405180910390f35b6101d460048036038101906101cf919061210f565b6109d3565b6040516101e1919061235c565b60405180910390f35b61020460048036038101906101ff919061237e565b610e74565b005b610220600480360381019061021b9190611bfc565b610ec6565b60405161022d91906123da565b60405180910390f35b61023e610fb4565b60405161024b91906123fc565b60405180910390f35b61026e60048036038101906102699190612417565b610fba565b005b61028a6004803603810190610285919061237e565b611098565b005b6102a660048036038101906102a191906124b6565b6110c5565b005b6102c260048036038101906102bd9190611bfc565b611191565b6040516102cf919061255d565b60405180910390f35b6102f260048036038101906102ed9190612578565b6111bd565b005b6102fc61122d565b60405161030991906123fc565b60405180910390f35b61032c6004803603810190610327919061210f565b611237565b604051610339919061235c565b60405180910390f35b61035c6004803603810190610357919061210f565b6116d8565b604051610369919061235c565b60405180910390f35b6000606060006060806060600080600089815260200190815260200160002090508060000154816001018260020160009054906101000a900460ff1660ff1660078111156103c3576103c2611d8a565b5b83600301846004018560050184805480602002602001604051908101604052809291908181526020016000905b8282101561049c57838290600052602060002001805461040f90612616565b80601f016020809104026020016040519081016040528092919081815260200182805461043b90612616565b80156104885780601f1061045d57610100808354040283529160200191610488565b820191906000526020600020905b81548152906001019060200180831161046b57829003601f168201915b5050505050815260200190600101906103f0565b5050505094508280546104ae90612616565b80601f01602080910402602001604051908101604052809291908181526020018280546104da90612616565b80156105275780601f106104fc57610100808354040283529160200191610527565b820191906000526020600020905b81548152906001019060200180831161050a57829003601f168201915b5050505050925081805461053a90612616565b80601f016020809104026020016040519081016040528092919081815260200182805461056690612616565b80156105b35780601f10610588576101008083540402835291602001916105b3565b820191906000526020600020905b81548152906001019060200180831161059657829003601f168201915b505050505091508080546105c690612616565b80601f01602080910402602001604051908101604052809291908181526020018280546105f290612616565b801561063f5780601f106106145761010080835404028352916020019161063f565b820191906000526020600020905b81548152906001019060200180831161062257829003601f168201915b505050505090509650965096509650965096505091939550919395565b60606000806000848152602001908152602001600020600101805480602002602001604051908101604052809291908181526020016000905b828210156107415783829060005260206000200180546106b490612616565b80601f01602080910402602001604051908101604052809291908181526020018280546106e090612616565b801561072d5780601f106107025761010080835404028352916020019161072d565b820191906000526020600020905b81548152906001019060200180831161071057829003601f168201915b505050505081526020019060010190610695565b5050505090508060008151811061075b5761075a612647565b5b6020026020010151915050919050565b60078081111561077e5761077d611d8a565b5b60ff168160ff1611156107c6576040517f08c379a00000000000000000000000000000000000000000000000000000000081526004016107bd906126c2565b60405180910390fd5b8060008084815260200190815260200160002060020160006101000a81548160ff021916908360ff1602179055505050565b60006020528060005260406000206000915090508060000154908060020160009054906101000a900460ff169080600301805461083490612616565b80601f016020809104026020016040519081016040528092919081815260200182805461086090612616565b80156108ad5780601f10610882576101008083540402835291602001916108ad565b820191906000526020600020905b81548152906001019060200180831161089057829003601f168201915b5050505050908060040180546108c290612616565b80601f01602080910402602001604051908101604052809291908181526020018280546108ee90612616565b801561093b5780601f106109105761010080835404028352916020019161093b565b820191906000526020600020905b81548152906001019060200180831161091e57829003601f168201915b50505050509080600501805461095090612616565b80601f016020809104026020016040519081016040528092919081815260200182805461097c90612616565b80156109c95780601f1061099e576101008083540402835291602001916109c9565b820191906000526020600020905b8154815290600101906020018083116109ac57829003601f168201915b5050505050905085565b6060600060015467ffffffffffffffff8111156109f3576109f2611fe4565b5b604051908082528060200260200182016040528015610a215781602001602082028036833780820191505090505b50905060008084604051602001610a38919061271e565b60405160208183030381529060405280519060200120905060005b6001548111610ae5576000806000838152602001908152602001600020600301604051602001610a8391906127cd565b604051602081830303815290604052805190602001209050808303610ad15781858581518110610ab657610ab5612647565b5b6020026020010181815250508380610acd90612813565b9450505b508080610add90612813565b915050610a53565b5060008267ffffffffffffffff811115610b0257610b01611fe4565b5b604051908082528060200260200182016040528015610b3b57816020015b610b28611b79565b815260200190600190039081610b205790505b50905060005b83811015610e6757600080868381518110610b5f57610b5e612647565b5b602002602001015181526020019081526020016000206040518060c00160405290816000820154815260200160018201805480602002602001604051908101604052809291908181526020016000905b82821015610c5b578382906000526020600020018054610bce90612616565b80601f0160208091040260200160405190810160405280929190818152602001828054610bfa90612616565b8015610c475780601f10610c1c57610100808354040283529160200191610c47565b820191906000526020600020905b815481529060010190602001808311610c2a57829003601f168201915b505050505081526020019060010190610baf565b5050505081526020016002820160009054906101000a900460ff1660ff1660ff168152602001600382018054610c9090612616565b80601f0160208091040260200160405190810160405280929190818152602001828054610cbc90612616565b8015610d095780601f10610cde57610100808354040283529160200191610d09565b820191906000526020600020905b815481529060010190602001808311610cec57829003601f168201915b50505050508152602001600482018054610d2290612616565b80601f0160208091040260200160405190810160405280929190818152602001828054610d4e90612616565b8015610d9b5780601f10610d7057610100808354040283529160200191610d9b565b820191906000526020600020905b815481529060010190602001808311610d7e57829003601f168201915b50505050508152602001600582018054610db490612616565b80601f0160208091040260200160405190810160405280929190818152602001828054610de090612616565b8015610e2d5780601f10610e0257610100808354040283529160200191610e2d565b820191906000526020600020905b815481529060010190602001808311610e1057829003601f168201915b505050505081525050828281518110610e4957610e48612647565b5b60200260200101819052508080610e5f90612813565b915050610b41565b5080945050505050919050565b600080600084815260200190815260200160002090508060010182908060018154018082558091505060019003906000526020600020016000909190919091509081610ec091906129f2565b50505050565b6060600080838152602001908152602001600020600101805480602002602001604051908101604052809291908181526020016000905b82821015610fa9578382906000526020600020018054610f1c90612616565b80601f0160208091040260200160405190810160405280929190818152602001828054610f4890612616565b8015610f955780601f10610f6a57610100808354040283529160200191610f95565b820191906000526020600020905b815481529060010190602001808311610f7857829003601f168201915b505050505081526020019060010190610efd565b505050509050919050565b60015481565b600780811115610fcd57610fcc611d8a565b5b60ff168360ff161115611015576040517f08c379a000000000000000000000000000000000000000000000000000000000815260040161100c906126c2565b60405180910390fd5b60008060008681526020019081526020016000209050838160020160006101000a81548160ff021916908360ff160217905550806001018390806001815401808255809150506001900390600052602060002001600090919091909150908161107e91906129f2565b508181600401908161109091906129f2565b505050505050565b60008060008481526020019081526020016000209050818160040190816110bf91906129f2565b50505050565b600160008154809291906110d890612813565b919050555060008060006001548152602001908152602001600020905060015481600001819055508281600301908161111191906129f2565b508181600501908161112391906129f2565b50806001018490806001815401808255809150506001900390600052602060002001600090919091909150908161115a91906129f2565b506001600781111561116f5761116e611d8a565b5b8160020160006101000a81548160ff021916908360ff16021790555050505050565b600080600083815260200190815260200160002060020160009054906101000a900460ff169050919050565b60008060008581526020019081526020016000209050828160020160006101000a81548160ff021916908360ff160217905550806001018290806001815401808255809150506001900390600052602060002001600090919091909150908161122691906129f2565b5050505050565b6000600154905090565b6060600060015467ffffffffffffffff81111561125757611256611fe4565b5b6040519080825280602002602001820160405280156112855781602001602082028036833780820191505090505b5090506000808460405160200161129c919061271e565b60405160208183030381529060405280519060200120905060005b60015481116113495760008060008381526020019081526020016000206004016040516020016112e791906127cd565b604051602081830303815290604052805190602001209050808303611335578185858151811061131a57611319612647565b5b602002602001018181525050838061133190612813565b9450505b50808061134190612813565b9150506112b7565b5060008267ffffffffffffffff81111561136657611365611fe4565b5b60405190808252806020026020018201604052801561139f57816020015b61138c611b79565b8152602001906001900390816113845790505b50905060005b838110156116cb576000808683815181106113c3576113c2612647565b5b602002602001015181526020019081526020016000206040518060c00160405290816000820154815260200160018201805480602002602001604051908101604052809291908181526020016000905b828210156114bf57838290600052602060002001805461143290612616565b80601f016020809104026020016040519081016040528092919081815260200182805461145e90612616565b80156114ab5780601f10611480576101008083540402835291602001916114ab565b820191906000526020600020905b81548152906001019060200180831161148e57829003601f168201915b505050505081526020019060010190611413565b5050505081526020016002820160009054906101000a900460ff1660ff1660ff1681526020016003820180546114f490612616565b80601f016020809104026020016040519081016040528092919081815260200182805461152090612616565b801561156d5780601f106115425761010080835404028352916020019161156d565b820191906000526020600020905b81548152906001019060200180831161155057829003601f168201915b5050505050815260200160048201805461158690612616565b80601f01602080910402602001604051908101604052809291908181526020018280546115b290612616565b80156115ff5780601f106115d4576101008083540402835291602001916115ff565b820191906000526020600020905b8154815290600101906020018083116115e257829003601f168201915b5050505050815260200160058201805461161890612616565b80601f016020809104026020016040519081016040528092919081815260200182805461164490612616565b80156116915780601f1061166657610100808354040283529160200191611691565b820191906000526020600020905b81548152906001019060200180831161167457829003601f168201915b5050505050815250508282815181106116ad576116ac612647565b5b602002602001018190525080806116c390612813565b9150506113a5565b5080945050505050919050565b6060600060015467ffffffffffffffff8111156116f8576116f7611fe4565b5b6040519080825280602002602001820160405280156117265781602001602082028036833780820191505090505b5090506000808460405160200161173d919061271e565b60405160208183030381529060405280519060200120905060005b60015481116117ea57600080600083815260200190815260200160002060050160405160200161178891906127cd565b6040516020818303038152906040528051906020012090508083036117d657818585815181106117bb576117ba612647565b5b60200260200101818152505083806117d290612813565b9450505b5080806117e290612813565b915050611758565b5060008267ffffffffffffffff81111561180757611806611fe4565b5b60405190808252806020026020018201604052801561184057816020015b61182d611b79565b8152602001906001900390816118255790505b50905060005b83811015611b6c5760008086838151811061186457611863612647565b5b602002602001015181526020019081526020016000206040518060c00160405290816000820154815260200160018201805480602002602001604051908101604052809291908181526020016000905b828210156119605783829060005260206000200180546118d390612616565b80601f01602080910402602001604051908101604052809291908181526020018280546118ff90612616565b801561194c5780601f106119215761010080835404028352916020019161194c565b820191906000526020600020905b81548152906001019060200180831161192f57829003601f168201915b5050505050815260200190600101906118b4565b5050505081526020016002820160009054906101000a900460ff1660ff1660ff16815260200160038201805461199590612616565b80601f01602080910402602001604051908101604052809291908181526020018280546119c190612616565b8015611a0e5780601f106119e357610100808354040283529160200191611a0e565b820191906000526020600020905b8154815290600101906020018083116119f157829003601f168201915b50505050508152602001600482018054611a2790612616565b80601f0160208091040260200160405190810160405280929190818152602001828054611a5390612616565b8015611aa05780601f10611a7557610100808354040283529160200191611aa0565b820191906000526020600020905b815481529060010190602001808311611a8357829003601f168201915b50505050508152602001600582018054611ab990612616565b80601f0160208091040260200160405190810160405280929190818152602001828054611ae590612616565b8015611b325780601f10611b0757610100808354040283529160200191611b32565b820191906000526020600020905b815481529060010190602001808311611b1557829003601f168201915b505050505081525050828281518110611b4e57611b4d612647565b5b60200260200101819052508080611b6490612813565b915050611846565b5080945050505050919050565b6040518060c001604052806000815260200160608152602001600060ff1681526020016060815260200160608152602001606081525090565b6000604051905090565b600080fd5b600080fd5b6000819050919050565b611bd981611bc6565b8114611be457600080fd5b50565b600081359050611bf681611bd0565b92915050565b600060208284031215611c1257611c11611bbc565b5b6000611c2084828501611be7565b91505092915050565b611c3281611bc6565b82525050565b600081519050919050565b600082825260208201905092915050565b6000819050602082019050919050565b600081519050919050565b600082825260208201905092915050565b60005b83811015611c9e578082015181840152602081019050611c83565b60008484015250505050565b6000601f19601f8301169050919050565b6000611cc682611c64565b611cd08185611c6f565b9350611ce0818560208601611c80565b611ce981611caa565b840191505092915050565b6000611d008383611cbb565b905092915050565b6000602082019050919050565b6000611d2082611c38565b611d2a8185611c43565b935083602082028501611d3c85611c54565b8060005b85811015611d785784840389528151611d598582611cf4565b9450611d6483611d08565b925060208a01995050600181019050611d40565b50829750879550505050505092915050565b7f4e487b7100000000000000000000000000000000000000000000000000000000600052602160045260246000fd5b60088110611dca57611dc9611d8a565b5b50565b6000819050611ddb82611db9565b919050565b6000611deb82611dcd565b9050919050565b611dfb81611de0565b82525050565b600082825260208201905092915050565b6000611e1d82611c64565b611e278185611e01565b9350611e37818560208601611c80565b611e4081611caa565b840191505092915050565b600060c082019050611e606000830189611c29565b8181036020830152611e728188611d15565b9050611e816040830187611df2565b8181036060830152611e938186611e12565b90508181036080830152611ea78185611e12565b905081810360a0830152611ebb8184611e12565b9050979650505050505050565b60006020820190508181036000830152611ee28184611e12565b905092915050565b600060ff82169050919050565b611f0081611eea565b8114611f0b57600080fd5b50565b600081359050611f1d81611ef7565b92915050565b60008060408385031215611f3a57611f39611bbc565b5b6000611f4885828601611be7565b9250506020611f5985828601611f0e565b9150509250929050565b611f6c81611eea565b82525050565b600060a082019050611f876000830188611c29565b611f946020830187611f63565b8181036040830152611fa68186611e12565b90508181036060830152611fba8185611e12565b90508181036080830152611fce8184611e12565b90509695505050505050565b600080fd5b600080fd5b7f4e487b7100000000000000000000000000000000000000000000000000000000600052604160045260246000fd5b61201c82611caa565b810181811067ffffffffffffffff8211171561203b5761203a611fe4565b5b80604052505050565b600061204e611bb2565b905061205a8282612013565b919050565b600067ffffffffffffffff82111561207a57612079611fe4565b5b61208382611caa565b9050602081019050919050565b82818337600083830152505050565b60006120b26120ad8461205f565b612044565b9050828152602081018484840111156120ce576120cd611fdf565b5b6120d9848285612090565b509392505050565b600082601f8301126120f6576120f5611fda565b5b813561210684826020860161209f565b91505092915050565b60006020828403121561212557612124611bbc565b5b600082013567ffffffffffffffff81111561214357612142611bc1565b5b61214f848285016120e1565b91505092915050565b600081519050919050565b600082825260208201905092915050565b6000819050602082019050919050565b61218d81611bc6565b82525050565b600082825260208201905092915050565b60006121af82611c38565b6121b98185612193565b9350836020820285016121cb85611c54565b8060005b8581101561220757848403895281516121e88582611cf4565b94506121f383611d08565b925060208a019950506001810190506121cf565b50829750879550505050505092915050565b61222281611eea565b82525050565b600060c0830160008301516122406000860182612184565b506020830151848203602086015261225882826121a4565b915050604083015161226d6040860182612219565b50606083015184820360608601526122858282611cbb565b9150506080830151848203608086015261229f8282611cbb565b91505060a083015184820360a08601526122b98282611cbb565b9150508091505092915050565b60006122d28383612228565b905092915050565b6000602082019050919050565b60006122f282612158565b6122fc8185612163565b93508360208202850161230e85612174565b8060005b8581101561234a578484038952815161232b85826122c6565b9450612336836122da565b925060208a01995050600181019050612312565b50829750879550505050505092915050565b6000602082019050818103600083015261237681846122e7565b905092915050565b6000806040838503121561239557612394611bbc565b5b60006123a385828601611be7565b925050602083013567ffffffffffffffff8111156123c4576123c3611bc1565b5b6123d0858286016120e1565b9150509250929050565b600060208201905081810360008301526123f48184611d15565b905092915050565b60006020820190506124116000830184611c29565b92915050565b6000806000806080858703121561243157612430611bbc565b5b600061243f87828801611be7565b945050602061245087828801611f0e565b935050604085013567ffffffffffffffff81111561247157612470611bc1565b5b61247d878288016120e1565b925050606085013567ffffffffffffffff81111561249e5761249d611bc1565b5b6124aa878288016120e1565b91505092959194509250565b6000806000606084860312156124cf576124ce611bbc565b5b600084013567ffffffffffffffff8111156124ed576124ec611bc1565b5b6124f9868287016120e1565b935050602084013567ffffffffffffffff81111561251a57612519611bc1565b5b612526868287016120e1565b925050604084013567ffffffffffffffff81111561254757612546611bc1565b5b612553868287016120e1565b9150509250925092565b60006020820190506125726000830184611f63565b92915050565b60008060006060848603121561259157612590611bbc565b5b600061259f86828701611be7565b93505060206125b086828701611f0e565b925050604084013567ffffffffffffffff8111156125d1576125d0611bc1565b5b6125dd868287016120e1565b9150509250925092565b7f4e487b7100000000000000000000000000000000000000000000000000000000600052602260045260246000fd5b6000600282049050600182168061262e57607f821691505b602082108103612641576126406125e7565b5b50919050565b7f4e487b7100000000000000000000000000000000000000000000000000000000600052603260045260246000fd5b7f496e76616c69642073746174652076616c756500000000000000000000000000600082015250565b60006126ac601383611e01565b91506126b782612676565b602082019050919050565b600060208201905081810360008301526126db8161269f565b9050919050565b600081905092915050565b60006126f882611c64565b61270281856126e2565b9350612712818560208601611c80565b80840191505092915050565b600061272a82846126ed565b915081905092915050565b60008190508160005260206000209050919050565b6000815461275781612616565b61276181866126e2565b9450600182166000811461277c5760018114612791576127c4565b60ff19831686528115158202860193506127c4565b61279a85612735565b60005b838110156127bc5781548189015260018201915060208101905061279d565b838801955050505b50505092915050565b60006127d9828461274a565b915081905092915050565b7f4e487b7100000000000000000000000000000000000000000000000000000000600052601160045260246000fd5b600061281e82611bc6565b91507fffffffffffffffffffffffffffffffffffffffffffffffffffffffffffffffff82036128505761284f6127e4565b5b600182019050919050565b60006020601f8301049050919050565b600082821b905092915050565b6000600883026128a87fffffffffffffffffffffffffffffffffffffffffffffffffffffffffffffffff8261286b565b6128b2868361286b565b95508019841693508086168417925050509392505050565b6000819050919050565b60006128ef6128ea6128e584611bc6565b6128ca565b611bc6565b9050919050565b6000819050919050565b612909836128d4565b61291d612915826128f6565b848454612878565b825550505050565b600090565b612932612925565b61293d818484612900565b505050565b5b818110156129615761295660008261292a565b600181019050612943565b5050565b601f8211156129a65761297781612735565b6129808461285b565b8101602085101561298f578190505b6129a361299b8561285b565b830182612942565b50505b505050565b600082821c905092915050565b60006129c9600019846008026129ab565b1980831691505092915050565b60006129e283836129b8565b9150826002028217905092915050565b6129fb82611c64565b67ffffffffffffffff811115612a1457612a13611fe4565b5b612a1e8254612616565b612a29828285612965565b600060209050601f831160018114612a5c5760008415612a4a578287015190505b612a5485826129d6565b865550612abc565b601f198416612a6a86612735565b60005b82811015612a9257848901518255600182019150602085019450602081019050612a6d565b86831015612aaf5784890151612aab601f8916826129b8565b8355505b6001600288020188555050505b50505050505056fea26469706673582212201457803a4657d72b6b72fea7840a0acae3beeaae420ea6c58cd35cf80376233664736f6c63430008120033",
  "immutableReferences": {},
  "source": "// SPDX-License-Identifier: MIT\r\npragma solidity >=0.7.0 <0.9.0;\r\n\r\ncontract ProcessList {\r\n    // 8 POUR LE CLIENT\r\n    // 4 pour le labo\r\n    // 7  pour fournisseur\r\n    enum ProcessState {\r\n        Abandoned, //t1 pas valid F\r\n        Initiated, //t1 F\r\n        InProgress, //t1 valide\r\n        Testing, //t2 L\r\n        TestOK, //t2 valide L\r\n        TestKO, //t2 pas valide L\r\n        Sent, //t3 fournisseur client\r\n        PVDGenerated //t4 labo client (issue vc) L\r\n    }\r\n\r\n    struct Process {\r\n        uint256 id;\r\n        string[] hashes;\r\n        uint8 state;\r\n        string owner;\r\n        string laboratory;\r\n        string supplier;\r\n    }\r\n\r\n    mapping(uint256 => Process) public processes;\r\n    uint256 public processCount;\r\n\r\n    function addProcess(\r\n        string memory _hash,\r\n        string memory _owner,\r\n        string memory _supplier\r\n    ) public {\r\n        processCount++;\r\n        Process storage newProcess = processes[processCount];\r\n        newProcess.id = processCount;\r\n        newProcess.owner = _owner;\r\n        newProcess.supplier = _supplier;\r\n        newProcess.hashes.push(_hash);\r\n        newProcess.state = uint8(ProcessState.Initiated);\r\n    }\r\n\r\n    function getProcessData(uint256 _id)\r\n        public\r\n        view\r\n        returns (\r\n            uint256,\r\n            string[] memory,\r\n            ProcessState,\r\n            string memory,\r\n            string memory,\r\n            string memory\r\n        )\r\n    {\r\n        Process storage process = processes[_id];\r\n        return (\r\n            process.id,\r\n            process.hashes,\r\n            ProcessState(process.state),\r\n            process.owner,\r\n            process.laboratory,\r\n            process.supplier\r\n        );\r\n    }\r\n\r\n    function updateProcessHashes(uint256 _id, string memory _hash) public {\r\n        Process storage process = processes[_id];\r\n        process.hashes.push(_hash);\r\n    }\r\n\r\n    function updateProcessState(uint256 _id, uint8 _state) public {\r\n        require(\r\n            _state <= uint8(ProcessState.PVDGenerated),\r\n            \"Invalid state value\"\r\n        );\r\n        processes[_id].state = _state;\r\n    }\r\n\r\n    function updateProcess(\r\n        uint256 _id,\r\n        uint8 _state,\r\n        string memory _hash,\r\n        string memory _laboratory\r\n    ) public {\r\n        require(\r\n            _state <= uint8(ProcessState.PVDGenerated),\r\n            \"Invalid state value\"\r\n        );\r\n        Process storage process = processes[_id];\r\n        process.state = _state;\r\n        process.hashes.push(_hash);\r\n        process.laboratory = _laboratory;\r\n    }\r\n\r\n    function updateLastProcess(\r\n        uint256 _id,\r\n        uint8 _state,\r\n        string memory _hash\r\n    ) public {\r\n        Process storage process = processes[_id];\r\n        process.state = _state;\r\n        process.hashes.push(_hash);\r\n    }\r\n\r\n    function updateProcessLaboratory(uint256 _id, string memory _laboratory)\r\n        public\r\n    {\r\n        Process storage process = processes[_id];\r\n        process.laboratory = _laboratory;\r\n    }\r\n\r\n    function getProcessState(uint256 _id) public view returns (uint8) {\r\n        return (processes[_id].state);\r\n    }\r\n\r\n    function getProcessHashes(uint256 _id)\r\n        public\r\n        view\r\n        returns (string[] memory)\r\n    {\r\n        return processes[_id].hashes;\r\n    }\r\n\r\n    function getFirstProcessHash(uint256 _id)\r\n        public\r\n        view\r\n        returns (string memory)\r\n    {\r\n        string[] memory hashes = processes[_id].hashes;\r\n        return hashes[0];\r\n    }\r\n\r\n    function getOwnerProcesses(string memory _owner)\r\n        public\r\n        view\r\n        returns (Process[] memory)\r\n    {\r\n        uint256[] memory processIds = new uint256[](processCount);\r\n        uint256 count = 0;\r\n        bytes32 ownerHash = keccak256(abi.encodePacked(_owner));\r\n        for (uint256 i = 0; i <= processCount; i++) {\r\n            bytes32 processOwnerHash = keccak256(\r\n                abi.encodePacked(processes[i].owner)\r\n            );\r\n            if (ownerHash == processOwnerHash) {\r\n                processIds[count] = i;\r\n                count++;\r\n            }\r\n        }\r\n        Process[] memory ownerProcesses = new Process[](count);\r\n        for (uint256 i = 0; i < count; i++) {\r\n            ownerProcesses[i] = processes[processIds[i]];\r\n        }\r\n        return ownerProcesses;\r\n    }\r\n\r\n    function getLaboratoryProcesses(string memory _laboratory)\r\n        public\r\n        view\r\n        returns (Process[] memory)\r\n    {\r\n        uint256[] memory processIds = new uint256[](processCount);\r\n        uint256 count = 0;\r\n        bytes32 laboratoryHash = keccak256(abi.encodePacked(_laboratory));\r\n        for (uint256 i = 0; i <= processCount; i++) {\r\n            bytes32 processlaboratoryHash = keccak256(\r\n                abi.encodePacked(processes[i].laboratory)\r\n            );\r\n            if (laboratoryHash == processlaboratoryHash) {\r\n                processIds[count] = i;\r\n                count++;\r\n            }\r\n        }\r\n        Process[] memory laboratoryProcesses = new Process[](count);\r\n        for (uint256 i = 0; i < count; i++) {\r\n            laboratoryProcesses[i] = processes[processIds[i]];\r\n        }\r\n        return laboratoryProcesses;\r\n    }\r\n\r\n    function getProcessCount() public view returns (uint256) {\r\n        return (processCount);\r\n    }\r\n\r\n    function getSupplierProcesses(string memory _supplier)\r\n        public\r\n        view\r\n        returns (Process[] memory)\r\n    {\r\n        uint256[] memory processIds = new uint256[](processCount);\r\n        uint256 count = 0;\r\n        bytes32 supplierHash = keccak256(abi.encodePacked(_supplier));\r\n        for (uint256 i = 0; i <= processCount; i++) {\r\n            bytes32 processsupplierHash = keccak256(\r\n                abi.encodePacked(processes[i].supplier)\r\n            );\r\n            if (supplierHash == processsupplierHash) {\r\n                processIds[count] = i;\r\n                count++;\r\n            }\r\n        }\r\n        Process[] memory supplierProcesses = new Process[](count);\r\n        for (uint256 i = 0; i < count; i++) {\r\n            supplierProcesses[i] = processes[processIds[i]];\r\n        }\r\n        return supplierProcesses;\r\n    }\r\n}\r\n",
  "sourcePath": "C:\\Users\\habou\\OneDrive\\Bureau\\blockchain\\edf-poc-beta\\dapps\\edf-dapp\\truffle\\contracts\\ProcessList.sol",
  "compiler": {
    "name": "solc",
    "version": "0.8.18+commit.87f61d96.Emscripten.clang"
  },
  "schemaVersion": "3.4.11",
  "updatedAt": "2023-02-07T12:43:38.577Z",
  "networkType": "ethereum",
  "devdoc": {
    "kind": "dev",
    "methods": {},
    "version": 1
  },
  "userdoc": {
    "kind": "user",
    "methods": {},
    "version": 1
  }
}