{
  "contractName": "ProcessList",
  "abi": [
    {
      "inputs": [],
      "name": "processCount",
      "outputs": [
        {
          "internalType": "uint256",
          "name": "",
          "type": "uint256"
        }
      ],
      "stateMutability": "view",
      "type": "function",
      "constant": true
    },
    {
      "inputs": [
        {
          "internalType": "uint256",
          "name": "",
          "type": "uint256"
        }
      ],
      "name": "processes",
      "outputs": [
        {
          "internalType": "uint256",
          "name": "id",
          "type": "uint256"
        },
        {
          "internalType": "uint8",
          "name": "state",
          "type": "uint8"
        },
        {
          "internalType": "string",
          "name": "owner",
          "type": "string"
        },
        {
          "internalType": "string",
          "name": "laboratory",
          "type": "string"
        },
        {
          "internalType": "string",
          "name": "supplier",
          "type": "string"
        }
      ],
      "stateMutability": "view",
      "type": "function",
      "constant": true
    },
    {
      "inputs": [
        {
          "internalType": "string",
          "name": "_hash",
          "type": "string"
        },
        {
          "internalType": "string",
          "name": "_owner",
          "type": "string"
        },
        {
          "internalType": "string",
          "name": "_supplier",
          "type": "string"
        }
      ],
      "name": "addProcess",
      "outputs": [],
      "stateMutability": "nonpayable",
      "type": "function"
    },
    {
      "inputs": [
        {
          "internalType": "uint256",
          "name": "_id",
          "type": "uint256"
        }
      ],
      "name": "getProcessData",
      "outputs": [
        {
          "internalType": "uint256",
          "name": "",
          "type": "uint256"
        },
        {
          "internalType": "string[]",
          "name": "",
          "type": "string[]"
        },
        {
          "internalType": "enum ProcessList.ProcessState",
          "name": "",
          "type": "uint8"
        },
        {
          "internalType": "string",
          "name": "",
          "type": "string"
        },
        {
          "internalType": "string",
          "name": "",
          "type": "string"
        },
        {
          "internalType": "string",
          "name": "",
          "type": "string"
        }
      ],
      "stateMutability": "view",
      "type": "function",
      "constant": true
    },
    {
      "inputs": [
        {
          "internalType": "uint256",
          "name": "_id",
          "type": "uint256"
        },
        {
          "internalType": "string",
          "name": "_hash",
          "type": "string"
        }
      ],
      "name": "updateProcessHashes",
      "outputs": [],
      "stateMutability": "nonpayable",
      "type": "function"
    },
    {
      "inputs": [
        {
          "internalType": "uint256",
          "name": "_id",
          "type": "uint256"
        },
        {
          "internalType": "string",
          "name": "_laboratory",
          "type": "string"
        }
      ],
      "name": "updateProcessLaboratory",
      "outputs": [],
      "stateMutability": "nonpayable",
      "type": "function"
    },
    {
      "inputs": [
        {
          "internalType": "uint256",
          "name": "_id",
          "type": "uint256"
        }
      ],
      "name": "getProcessState",
      "outputs": [
        {
          "internalType": "uint8",
          "name": "",
          "type": "uint8"
        }
      ],
      "stateMutability": "view",
      "type": "function",
      "constant": true
    },
    {
      "inputs": [
        {
          "internalType": "uint256",
          "name": "_id",
          "type": "uint256"
        },
        {
          "internalType": "uint8",
          "name": "_state",
          "type": "uint8"
        }
      ],
      "name": "updateProcessState",
      "outputs": [],
      "stateMutability": "nonpayable",
      "type": "function"
    },
    {
      "inputs": [
        {
          "internalType": "uint256",
          "name": "_id",
          "type": "uint256"
        }
      ],
      "name": "getProcessHashes",
      "outputs": [
        {
          "internalType": "string[]",
          "name": "",
          "type": "string[]"
        }
      ],
      "stateMutability": "view",
      "type": "function",
      "constant": true
    },
    {
      "inputs": [
        {
          "internalType": "uint256",
          "name": "_id",
          "type": "uint256"
        }
      ],
      "name": "getFirstProcessHash",
      "outputs": [
        {
          "internalType": "string",
          "name": "",
          "type": "string"
        }
      ],
      "stateMutability": "view",
      "type": "function",
      "constant": true
    },
    {
      "inputs": [
        {
          "internalType": "string",
          "name": "_owner",
          "type": "string"
        }
      ],
      "name": "getOwnerProcesses",
      "outputs": [
        {
          "components": [
            {
              "internalType": "uint256",
              "name": "id",
              "type": "uint256"
            },
            {
              "internalType": "string[]",
              "name": "hashes",
              "type": "string[]"
            },
            {
              "internalType": "uint8",
              "name": "state",
              "type": "uint8"
            },
            {
              "internalType": "string",
              "name": "owner",
              "type": "string"
            },
            {
              "internalType": "string",
              "name": "laboratory",
              "type": "string"
            },
            {
              "internalType": "string",
              "name": "supplier",
              "type": "string"
            }
          ],
          "internalType": "struct ProcessList.Process[]",
          "name": "",
          "type": "tuple[]"
        }
      ],
      "stateMutability": "view",
      "type": "function",
      "constant": true
    },
    {
      "inputs": [
        {
          "internalType": "string",
          "name": "_laboratory",
          "type": "string"
        }
      ],
      "name": "getLaboratoryProcesses",
      "outputs": [
        {
          "components": [
            {
              "internalType": "uint256",
              "name": "id",
              "type": "uint256"
            },
            {
              "internalType": "string[]",
              "name": "hashes",
              "type": "string[]"
            },
            {
              "internalType": "uint8",
              "name": "state",
              "type": "uint8"
            },
            {
              "internalType": "string",
              "name": "owner",
              "type": "string"
            },
            {
              "internalType": "string",
              "name": "laboratory",
              "type": "string"
            },
            {
              "internalType": "string",
              "name": "supplier",
              "type": "string"
            }
          ],
          "internalType": "struct ProcessList.Process[]",
          "name": "",
          "type": "tuple[]"
        }
      ],
      "stateMutability": "view",
      "type": "function",
      "constant": true
    },
    {
      "inputs": [],
      "name": "getProcessCount",
      "outputs": [
        {
          "internalType": "uint256",
          "name": "",
          "type": "uint256"
        }
      ],
      "stateMutability": "view",
      "type": "function",
      "constant": true
    },
    {
      "inputs": [
        {
          "internalType": "string",
          "name": "_supplier",
          "type": "string"
        }
      ],
      "name": "getSupplierProcesses",
      "outputs": [
        {
          "components": [
            {
              "internalType": "uint256",
              "name": "id",
              "type": "uint256"
            },
            {
              "internalType": "string[]",
              "name": "hashes",
              "type": "string[]"
            },
            {
              "internalType": "uint8",
              "name": "state",
              "type": "uint8"
            },
            {
              "internalType": "string",
              "name": "owner",
              "type": "string"
            },
            {
              "internalType": "string",
              "name": "laboratory",
              "type": "string"
            },
            {
              "internalType": "string",
              "name": "supplier",
              "type": "string"
            }
          ],
          "internalType": "struct ProcessList.Process[]",
          "name": "",
          "type": "tuple[]"
        }
      ],
      "stateMutability": "view",
      "type": "function",
      "constant": true
    }
  ],
  "bytecode": "0x608060405234801561001057600080fd5b50612853806100206000396000f3fe608060405234801561001057600080fd5b50600436106100ea5760003560e01c8063848df5401161008c578063bf45f49011610066578063bf45f49014610276578063cdb56c90146102a6578063cf13cd4f146102c4578063e07365e4146102f4576100ea565b8063848df5401461022057806397625ecf1461023e578063b4de8bb41461025a576100ea565b8063579e51c7116100c8578063579e51c7146101705780635df3906d146101a45780636f36f962146101d4578063759e12e0146101f0576100ea565b80630a3dbb01146100ef57806329f6fc5514610124578063414b7b9b14610154575b600080fd5b61010960048036038101906101049190611a63565b610324565b60405161011b96959493929190611cb2565b60405180910390f35b61013e60048036038101906101399190611a63565b61060e565b60405161014b9190611d2f565b60405180910390f35b61016e60048036038101906101699190611d8a565b61071d565b005b61018a60048036038101906101859190611a63565b6107aa565b60405161019b959493929190611dd9565b60405180910390f35b6101be60048036038101906101b99190611f76565b610985565b6040516101cb91906121c3565b60405180910390f35b6101ee60048036038101906101e991906121e5565b610e27565b005b61020a60048036038101906102059190611a63565b610e79565b6040516102179190612241565b60405180910390f35b610228610f67565b6040516102359190612263565b60405180910390f35b610258600480360381019061025391906121e5565b610f6d565b005b610274600480360381019061026f919061227e565b610f9a565b005b610290600480360381019061028b9190611a63565b611066565b60405161029d9190612325565b60405180910390f35b6102ae611092565b6040516102bb9190612263565b60405180910390f35b6102de60048036038101906102d99190611f76565b61109c565b6040516102eb91906121c3565b60405180910390f35b61030e60048036038101906103099190611f76565b61153e565b60405161031b91906121c3565b60405180910390f35b6000606060006060806060600080600089815260200190815260200160002090508060000154816001018260020160009054906101000a900460ff1660ff16600781111561037557610374611bf1565b5b83600301846004018560050184805480602002602001604051908101604052809291908181526020016000905b8282101561044e5783829060005260206000200180546103c19061236f565b80601f01602080910402602001604051908101604052809291908181526020018280546103ed9061236f565b801561043a5780601f1061040f5761010080835404028352916020019161043a565b820191906000526020600020905b81548152906001019060200180831161041d57829003601f168201915b5050505050815260200190600101906103a2565b5050505094508280546104609061236f565b80601f016020809104026020016040519081016040528092919081815260200182805461048c9061236f565b80156104d95780601f106104ae576101008083540402835291602001916104d9565b820191906000526020600020905b8154815290600101906020018083116104bc57829003601f168201915b505050505092508180546104ec9061236f565b80601f01602080910402602001604051908101604052809291908181526020018280546105189061236f565b80156105655780601f1061053a57610100808354040283529160200191610565565b820191906000526020600020905b81548152906001019060200180831161054857829003601f168201915b505050505091508080546105789061236f565b80601f01602080910402602001604051908101604052809291908181526020018280546105a49061236f565b80156105f15780601f106105c6576101008083540402835291602001916105f1565b820191906000526020600020905b8154815290600101906020018083116105d457829003601f168201915b505050505090509650965096509650965096505091939550919395565b60606000806000848152602001908152602001600020600101805480602002602001604051908101604052809291908181526020016000905b828210156106f35783829060005260206000200180546106669061236f565b80601f01602080910402602001604051908101604052809291908181526020018280546106929061236f565b80156106df5780601f106106b4576101008083540402835291602001916106df565b820191906000526020600020905b8154815290600101906020018083116106c257829003601f168201915b505050505081526020019060010190610647565b5050505090508060008151811061070d5761070c6123a0565b5b6020026020010151915050919050565b6007808111156107305761072f611bf1565b5b60ff168160ff161115610778576040517f08c379a000000000000000000000000000000000000000000000000000000000815260040161076f9061241b565b60405180910390fd5b8060008084815260200190815260200160002060020160006101000a81548160ff021916908360ff1602179055505050565b60006020528060005260406000206000915090508060000154908060020160009054906101000a900460ff16908060030180546107e69061236f565b80601f01602080910402602001604051908101604052809291908181526020018280546108129061236f565b801561085f5780601f106108345761010080835404028352916020019161085f565b820191906000526020600020905b81548152906001019060200180831161084257829003601f168201915b5050505050908060040180546108749061236f565b80601f01602080910402602001604051908101604052809291908181526020018280546108a09061236f565b80156108ed5780601f106108c2576101008083540402835291602001916108ed565b820191906000526020600020905b8154815290600101906020018083116108d057829003601f168201915b5050505050908060050180546109029061236f565b80601f016020809104026020016040519081016040528092919081815260200182805461092e9061236f565b801561097b5780601f106109505761010080835404028352916020019161097b565b820191906000526020600020905b81548152906001019060200180831161095e57829003601f168201915b5050505050905085565b6060600060015467ffffffffffffffff8111156109a5576109a4611e4b565b5b6040519080825280602002602001820160405280156109d35781602001602082028036833780820191505090505b509050600080846040516020016109ea9190612477565b60405160208183030381529060405280519060200120905060005b600154811015610a98576000806000838152602001908152602001600020600301604051602001610a369190612526565b604051602081830303815290604052805190602001209050808303610a845781858581518110610a6957610a686123a0565b5b6020026020010181815250508380610a809061256c565b9450505b508080610a909061256c565b915050610a05565b5060008267ffffffffffffffff811115610ab557610ab4611e4b565b5b604051908082528060200260200182016040528015610aee57816020015b610adb6119e0565b815260200190600190039081610ad35790505b50905060005b83811015610e1a57600080868381518110610b1257610b116123a0565b5b602002602001015181526020019081526020016000206040518060c00160405290816000820154815260200160018201805480602002602001604051908101604052809291908181526020016000905b82821015610c0e578382906000526020600020018054610b819061236f565b80601f0160208091040260200160405190810160405280929190818152602001828054610bad9061236f565b8015610bfa5780601f10610bcf57610100808354040283529160200191610bfa565b820191906000526020600020905b815481529060010190602001808311610bdd57829003601f168201915b505050505081526020019060010190610b62565b5050505081526020016002820160009054906101000a900460ff1660ff1660ff168152602001600382018054610c439061236f565b80601f0160208091040260200160405190810160405280929190818152602001828054610c6f9061236f565b8015610cbc5780601f10610c9157610100808354040283529160200191610cbc565b820191906000526020600020905b815481529060010190602001808311610c9f57829003601f168201915b50505050508152602001600482018054610cd59061236f565b80601f0160208091040260200160405190810160405280929190818152602001828054610d019061236f565b8015610d4e5780601f10610d2357610100808354040283529160200191610d4e565b820191906000526020600020905b815481529060010190602001808311610d3157829003601f168201915b50505050508152602001600582018054610d679061236f565b80601f0160208091040260200160405190810160405280929190818152602001828054610d939061236f565b8015610de05780601f10610db557610100808354040283529160200191610de0565b820191906000526020600020905b815481529060010190602001808311610dc357829003601f168201915b505050505081525050828281518110610dfc57610dfb6123a0565b5b60200260200101819052508080610e129061256c565b915050610af4565b5080945050505050919050565b600080600084815260200190815260200160002090508060010182908060018154018082558091505060019003906000526020600020016000909190919091509081610e73919061274b565b50505050565b6060600080838152602001908152602001600020600101805480602002602001604051908101604052809291908181526020016000905b82821015610f5c578382906000526020600020018054610ecf9061236f565b80601f0160208091040260200160405190810160405280929190818152602001828054610efb9061236f565b8015610f485780601f10610f1d57610100808354040283529160200191610f48565b820191906000526020600020905b815481529060010190602001808311610f2b57829003601f168201915b505050505081526020019060010190610eb0565b505050509050919050565b60015481565b6000806000848152602001908152602001600020905081816004019081610f94919061274b565b50505050565b60016000815480929190610fad9061256c565b9190505550600080600060015481526020019081526020016000209050600154816000018190555082816003019081610fe6919061274b565b5081816005019081610ff8919061274b565b50806001018490806001815401808255809150506001900390600052602060002001600090919091909150908161102f919061274b565b506001600781111561104457611043611bf1565b5b8160020160006101000a81548160ff021916908360ff16021790555050505050565b600080600083815260200190815260200160002060020160009054906101000a900460ff169050919050565b6000600154905090565b6060600060015467ffffffffffffffff8111156110bc576110bb611e4b565b5b6040519080825280602002602001820160405280156110ea5781602001602082028036833780820191505090505b509050600080846040516020016111019190612477565b60405160208183030381529060405280519060200120905060005b6001548110156111af57600080600083815260200190815260200160002060040160405160200161114d9190612526565b60405160208183030381529060405280519060200120905080830361119b57818585815181106111805761117f6123a0565b5b60200260200101818152505083806111979061256c565b9450505b5080806111a79061256c565b91505061111c565b5060008267ffffffffffffffff8111156111cc576111cb611e4b565b5b60405190808252806020026020018201604052801561120557816020015b6111f26119e0565b8152602001906001900390816111ea5790505b50905060005b8381101561153157600080868381518110611229576112286123a0565b5b602002602001015181526020019081526020016000206040518060c00160405290816000820154815260200160018201805480602002602001604051908101604052809291908181526020016000905b828210156113255783829060005260206000200180546112989061236f565b80601f01602080910402602001604051908101604052809291908181526020018280546112c49061236f565b80156113115780601f106112e657610100808354040283529160200191611311565b820191906000526020600020905b8154815290600101906020018083116112f457829003601f168201915b505050505081526020019060010190611279565b5050505081526020016002820160009054906101000a900460ff1660ff1660ff16815260200160038201805461135a9061236f565b80601f01602080910402602001604051908101604052809291908181526020018280546113869061236f565b80156113d35780601f106113a8576101008083540402835291602001916113d3565b820191906000526020600020905b8154815290600101906020018083116113b657829003601f168201915b505050505081526020016004820180546113ec9061236f565b80601f01602080910402602001604051908101604052809291908181526020018280546114189061236f565b80156114655780601f1061143a57610100808354040283529160200191611465565b820191906000526020600020905b81548152906001019060200180831161144857829003601f168201915b5050505050815260200160058201805461147e9061236f565b80601f01602080910402602001604051908101604052809291908181526020018280546114aa9061236f565b80156114f75780601f106114cc576101008083540402835291602001916114f7565b820191906000526020600020905b8154815290600101906020018083116114da57829003601f168201915b505050505081525050828281518110611513576115126123a0565b5b602002602001018190525080806115299061256c565b91505061120b565b5080945050505050919050565b6060600060015467ffffffffffffffff81111561155e5761155d611e4b565b5b60405190808252806020026020018201604052801561158c5781602001602082028036833780820191505090505b509050600080846040516020016115a39190612477565b60405160208183030381529060405280519060200120905060005b6001548110156116515760008060008381526020019081526020016000206005016040516020016115ef9190612526565b60405160208183030381529060405280519060200120905080830361163d5781858581518110611622576116216123a0565b5b60200260200101818152505083806116399061256c565b9450505b5080806116499061256c565b9150506115be565b5060008267ffffffffffffffff81111561166e5761166d611e4b565b5b6040519080825280602002602001820160405280156116a757816020015b6116946119e0565b81526020019060019003908161168c5790505b50905060005b838110156119d3576000808683815181106116cb576116ca6123a0565b5b602002602001015181526020019081526020016000206040518060c00160405290816000820154815260200160018201805480602002602001604051908101604052809291908181526020016000905b828210156117c757838290600052602060002001805461173a9061236f565b80601f01602080910402602001604051908101604052809291908181526020018280546117669061236f565b80156117b35780601f10611788576101008083540402835291602001916117b3565b820191906000526020600020905b81548152906001019060200180831161179657829003601f168201915b50505050508152602001906001019061171b565b5050505081526020016002820160009054906101000a900460ff1660ff1660ff1681526020016003820180546117fc9061236f565b80601f01602080910402602001604051908101604052809291908181526020018280546118289061236f565b80156118755780601f1061184a57610100808354040283529160200191611875565b820191906000526020600020905b81548152906001019060200180831161185857829003601f168201915b5050505050815260200160048201805461188e9061236f565b80601f01602080910402602001604051908101604052809291908181526020018280546118ba9061236f565b80156119075780601f106118dc57610100808354040283529160200191611907565b820191906000526020600020905b8154815290600101906020018083116118ea57829003601f168201915b505050505081526020016005820180546119209061236f565b80601f016020809104026020016040519081016040528092919081815260200182805461194c9061236f565b80156119995780601f1061196e57610100808354040283529160200191611999565b820191906000526020600020905b81548152906001019060200180831161197c57829003601f168201915b5050505050815250508282815181106119b5576119b46123a0565b5b602002602001018190525080806119cb9061256c565b9150506116ad565b5080945050505050919050565b6040518060c001604052806000815260200160608152602001600060ff1681526020016060815260200160608152602001606081525090565b6000604051905090565b600080fd5b600080fd5b6000819050919050565b611a4081611a2d565b8114611a4b57600080fd5b50565b600081359050611a5d81611a37565b92915050565b600060208284031215611a7957611a78611a23565b5b6000611a8784828501611a4e565b91505092915050565b611a9981611a2d565b82525050565b600081519050919050565b600082825260208201905092915050565b6000819050602082019050919050565b600081519050919050565b600082825260208201905092915050565b60005b83811015611b05578082015181840152602081019050611aea565b60008484015250505050565b6000601f19601f8301169050919050565b6000611b2d82611acb565b611b378185611ad6565b9350611b47818560208601611ae7565b611b5081611b11565b840191505092915050565b6000611b678383611b22565b905092915050565b6000602082019050919050565b6000611b8782611a9f565b611b918185611aaa565b935083602082028501611ba385611abb565b8060005b85811015611bdf5784840389528151611bc08582611b5b565b9450611bcb83611b6f565b925060208a01995050600181019050611ba7565b50829750879550505050505092915050565b7f4e487b7100000000000000000000000000000000000000000000000000000000600052602160045260246000fd5b60088110611c3157611c30611bf1565b5b50565b6000819050611c4282611c20565b919050565b6000611c5282611c34565b9050919050565b611c6281611c47565b82525050565b600082825260208201905092915050565b6000611c8482611acb565b611c8e8185611c68565b9350611c9e818560208601611ae7565b611ca781611b11565b840191505092915050565b600060c082019050611cc76000830189611a90565b8181036020830152611cd98188611b7c565b9050611ce86040830187611c59565b8181036060830152611cfa8186611c79565b90508181036080830152611d0e8185611c79565b905081810360a0830152611d228184611c79565b9050979650505050505050565b60006020820190508181036000830152611d498184611c79565b905092915050565b600060ff82169050919050565b611d6781611d51565b8114611d7257600080fd5b50565b600081359050611d8481611d5e565b92915050565b60008060408385031215611da157611da0611a23565b5b6000611daf85828601611a4e565b9250506020611dc085828601611d75565b9150509250929050565b611dd381611d51565b82525050565b600060a082019050611dee6000830188611a90565b611dfb6020830187611dca565b8181036040830152611e0d8186611c79565b90508181036060830152611e218185611c79565b90508181036080830152611e358184611c79565b90509695505050505050565b600080fd5b600080fd5b7f4e487b7100000000000000000000000000000000000000000000000000000000600052604160045260246000fd5b611e8382611b11565b810181811067ffffffffffffffff82111715611ea257611ea1611e4b565b5b80604052505050565b6000611eb5611a19565b9050611ec18282611e7a565b919050565b600067ffffffffffffffff821115611ee157611ee0611e4b565b5b611eea82611b11565b9050602081019050919050565b82818337600083830152505050565b6000611f19611f1484611ec6565b611eab565b905082815260208101848484011115611f3557611f34611e46565b5b611f40848285611ef7565b509392505050565b600082601f830112611f5d57611f5c611e41565b5b8135611f6d848260208601611f06565b91505092915050565b600060208284031215611f8c57611f8b611a23565b5b600082013567ffffffffffffffff811115611faa57611fa9611a28565b5b611fb684828501611f48565b91505092915050565b600081519050919050565b600082825260208201905092915050565b6000819050602082019050919050565b611ff481611a2d565b82525050565b600082825260208201905092915050565b600061201682611a9f565b6120208185611ffa565b93508360208202850161203285611abb565b8060005b8581101561206e578484038952815161204f8582611b5b565b945061205a83611b6f565b925060208a01995050600181019050612036565b50829750879550505050505092915050565b61208981611d51565b82525050565b600060c0830160008301516120a76000860182611feb565b50602083015184820360208601526120bf828261200b565b91505060408301516120d46040860182612080565b50606083015184820360608601526120ec8282611b22565b915050608083015184820360808601526121068282611b22565b91505060a083015184820360a08601526121208282611b22565b9150508091505092915050565b6000612139838361208f565b905092915050565b6000602082019050919050565b600061215982611fbf565b6121638185611fca565b93508360208202850161217585611fdb565b8060005b858110156121b15784840389528151612192858261212d565b945061219d83612141565b925060208a01995050600181019050612179565b50829750879550505050505092915050565b600060208201905081810360008301526121dd818461214e565b905092915050565b600080604083850312156121fc576121fb611a23565b5b600061220a85828601611a4e565b925050602083013567ffffffffffffffff81111561222b5761222a611a28565b5b61223785828601611f48565b9150509250929050565b6000602082019050818103600083015261225b8184611b7c565b905092915050565b60006020820190506122786000830184611a90565b92915050565b60008060006060848603121561229757612296611a23565b5b600084013567ffffffffffffffff8111156122b5576122b4611a28565b5b6122c186828701611f48565b935050602084013567ffffffffffffffff8111156122e2576122e1611a28565b5b6122ee86828701611f48565b925050604084013567ffffffffffffffff81111561230f5761230e611a28565b5b61231b86828701611f48565b9150509250925092565b600060208201905061233a6000830184611dca565b92915050565b7f4e487b7100000000000000000000000000000000000000000000000000000000600052602260045260246000fd5b6000600282049050600182168061238757607f821691505b60208210810361239a57612399612340565b5b50919050565b7f4e487b7100000000000000000000000000000000000000000000000000000000600052603260045260246000fd5b7f496e76616c69642073746174652076616c756500000000000000000000000000600082015250565b6000612405601383611c68565b9150612410826123cf565b602082019050919050565b60006020820190508181036000830152612434816123f8565b9050919050565b600081905092915050565b600061245182611acb565b61245b818561243b565b935061246b818560208601611ae7565b80840191505092915050565b60006124838284612446565b915081905092915050565b60008190508160005260206000209050919050565b600081546124b08161236f565b6124ba818661243b565b945060018216600081146124d557600181146124ea5761251d565b60ff198316865281151582028601935061251d565b6124f38561248e565b60005b83811015612515578154818901526001820191506020810190506124f6565b838801955050505b50505092915050565b600061253282846124a3565b915081905092915050565b7f4e487b7100000000000000000000000000000000000000000000000000000000600052601160045260246000fd5b600061257782611a2d565b91507fffffffffffffffffffffffffffffffffffffffffffffffffffffffffffffffff82036125a9576125a861253d565b5b600182019050919050565b60006020601f8301049050919050565b600082821b905092915050565b6000600883026126017fffffffffffffffffffffffffffffffffffffffffffffffffffffffffffffffff826125c4565b61260b86836125c4565b95508019841693508086168417925050509392505050565b6000819050919050565b600061264861264361263e84611a2d565b612623565b611a2d565b9050919050565b6000819050919050565b6126628361262d565b61267661266e8261264f565b8484546125d1565b825550505050565b600090565b61268b61267e565b612696818484612659565b505050565b5b818110156126ba576126af600082612683565b60018101905061269c565b5050565b601f8211156126ff576126d08161248e565b6126d9846125b4565b810160208510156126e8578190505b6126fc6126f4856125b4565b83018261269b565b50505b505050565b600082821c905092915050565b600061272260001984600802612704565b1980831691505092915050565b600061273b8383612711565b9150826002028217905092915050565b61275482611acb565b67ffffffffffffffff81111561276d5761276c611e4b565b5b612777825461236f565b6127828282856126be565b600060209050601f8311600181146127b557600084156127a3578287015190505b6127ad858261272f565b865550612815565b601f1984166127c38661248e565b60005b828110156127eb578489015182556001820191506020850194506020810190506127c6565b868310156128085784890151612804601f891682612711565b8355505b6001600288020188555050505b50505050505056fea2646970667358221220a1c95fa3f03065e35c581bce6579684d61aff442914bfef05f58fe70b8f863e264736f6c63430008110033",
  "immutableReferences": {},
  "source": "// SPDX-License-Identifier: MIT\r\npragma solidity >=0.7.0 <0.9.0;\r\n\r\ncontract ProcessList {\r\n    enum ProcessState {\r\n        Abandoned,\r\n        Initiated,\r\n        InProgress,\r\n        Testing,\r\n        TestOK,\r\n        TestKO,\r\n        Sent,\r\n        PVDGenerated\r\n    }\r\n\r\n    struct Process {\r\n        uint256 id;\r\n        string[] hashes;\r\n        uint8 state;\r\n        string owner;\r\n        string laboratory;\r\n        string supplier;\r\n    }\r\n\r\n    mapping(uint256 => Process) public processes;\r\n    uint256 public processCount;\r\n\r\n    function addProcess(\r\n        string memory _hash,\r\n        string memory _owner,\r\n        string memory _supplier\r\n    ) public {\r\n        processCount++;\r\n        Process storage newProcess = processes[processCount];\r\n        newProcess.id = processCount;\r\n        newProcess.owner = _owner;\r\n        newProcess.supplier = _supplier;\r\n        newProcess.hashes.push(_hash);\r\n        newProcess.state = uint8(ProcessState.Initiated);\r\n    }\r\n\r\n    function getProcessData(uint256 _id)\r\n        public\r\n        view\r\n        returns (\r\n            uint256,\r\n            string[] memory,\r\n            ProcessState,\r\n            string memory,\r\n            string memory,\r\n            string memory\r\n        )\r\n    {\r\n        Process storage process = processes[_id];\r\n        return (\r\n            process.id,\r\n            process.hashes,\r\n            ProcessState(process.state),\r\n            process.owner,\r\n            process.laboratory,\r\n            process.supplier\r\n        );\r\n    }\r\n\r\n    function updateProcessHashes(uint256 _id, string memory _hash) public {\r\n        Process storage process = processes[_id];\r\n        process.hashes.push(_hash);\r\n    }\r\n\r\n    function updateProcessLaboratory(uint256 _id, string memory _laboratory)\r\n        public\r\n    {\r\n        Process storage process = processes[_id];\r\n        process.laboratory = _laboratory;\r\n    }\r\n\r\n    function getProcessState(uint256 _id) public view returns (uint8) {\r\n        return (processes[_id].state);\r\n    }\r\n\r\n    function updateProcessState(uint256 _id, uint8 _state) public {\r\n        require(\r\n            _state <= uint8(ProcessState.PVDGenerated),\r\n            \"Invalid state value\"\r\n        );\r\n        processes[_id].state = _state;\r\n    }\r\n\r\n    function getProcessHashes(uint256 _id)\r\n        public\r\n        view\r\n        returns (string[] memory)\r\n    {\r\n        return processes[_id].hashes;\r\n    }\r\n\r\n    function getFirstProcessHash(uint256 _id)\r\n        public\r\n        view\r\n        returns (string memory)\r\n    {\r\n        string[] memory hashes = processes[_id].hashes;\r\n        return hashes[0];\r\n    }\r\n\r\n    function getOwnerProcesses(string memory _owner)\r\n        public\r\n        view\r\n        returns (Process[] memory)\r\n    {\r\n        uint256[] memory processIds = new uint256[](processCount);\r\n        uint256 count = 0;\r\n        bytes32 ownerHash = keccak256(abi.encodePacked(_owner));\r\n        for (uint256 i = 0; i < processCount; i++) {\r\n            bytes32 processOwnerHash = keccak256(\r\n                abi.encodePacked(processes[i].owner)\r\n            );\r\n            if (ownerHash == processOwnerHash) {\r\n                processIds[count] = i;\r\n                count++;\r\n            }\r\n        }\r\n        Process[] memory ownerProcesses = new Process[](count);\r\n        for (uint256 i = 0; i < count; i++) {\r\n            ownerProcesses[i] = processes[processIds[i]];\r\n        }\r\n        return ownerProcesses;\r\n    }\r\n\r\n    function getLaboratoryProcesses(string memory _laboratory)\r\n        public\r\n        view\r\n        returns (Process[] memory)\r\n    {\r\n        uint256[] memory processIds = new uint256[](processCount);\r\n        uint256 count = 0;\r\n        bytes32 laboratoryHash = keccak256(abi.encodePacked(_laboratory));\r\n        for (uint256 i = 0; i < processCount; i++) {\r\n            bytes32 processlaboratoryHash = keccak256(\r\n                abi.encodePacked(processes[i].laboratory)\r\n            );\r\n            if (laboratoryHash == processlaboratoryHash) {\r\n                processIds[count] = i;\r\n                count++;\r\n            }\r\n        }\r\n        Process[] memory laboratoryProcesses = new Process[](count);\r\n        for (uint256 i = 0; i < count; i++) {\r\n            laboratoryProcesses[i] = processes[processIds[i]];\r\n        }\r\n        return laboratoryProcesses;\r\n    }\r\n\r\n    function getProcessCount() public view returns (uint256) {\r\n        return (processCount);\r\n    }\r\n\r\n    function getSupplierProcesses(string memory _supplier)\r\n        public\r\n        view\r\n        returns (Process[] memory)\r\n    {\r\n        uint256[] memory processIds = new uint256[](processCount);\r\n        uint256 count = 0;\r\n        bytes32 supplierHash = keccak256(abi.encodePacked(_supplier));\r\n        for (uint256 i = 0; i < processCount; i++) {\r\n            bytes32 processsupplierHash = keccak256(\r\n                abi.encodePacked(processes[i].supplier)\r\n            );\r\n            if (supplierHash == processsupplierHash) {\r\n                processIds[count] = i;\r\n                count++;\r\n            }\r\n        }\r\n        Process[] memory supplierProcesses = new Process[](count);\r\n        for (uint256 i = 0; i < count; i++) {\r\n            supplierProcesses[i] = processes[processIds[i]];\r\n        }\r\n        return supplierProcesses;\r\n    }\r\n}\r\n",
  "sourcePath": "C:\\Users\\habou\\OneDrive\\Bureau\\blockchain\\edf-poc-beta\\dapps\\edf-dapp\\truffle\\contracts\\ProcessList.sol",
  "compiler": {
    "name": "solc",
    "version": "0.8.17+commit.8df45f5f.Emscripten.clang"
  },
  "schemaVersion": "3.4.11",
  "updatedAt": "2023-01-27T16:26:45.946Z",
  "networkType": "ethereum",
  "devdoc": {
    "kind": "dev",
    "methods": {},
    "version": 1
  },
  "userdoc": {
    "kind": "user",
    "methods": {},
    "version": 1
  }
}