{
  "contractName": "Tracabilite",
  "abi": [
    {
      "inputs": [],
      "name": "getTransactionFournisseurClient",
      "outputs": [
        {
          "components": [
            {
              "components": [
                {
                  "internalType": "string",
                  "name": "didFrom",
                  "type": "string"
                },
                {
                  "internalType": "string",
                  "name": "didTo",
                  "type": "string"
                },
                {
                  "internalType": "string",
                  "name": "dateTime",
                  "type": "string"
                }
              ],
              "internalType": "struct Tracabilite.Common",
              "name": "transactionDonnees",
              "type": "tuple"
            },
            {
              "components": [
                {
                  "internalType": "string",
                  "name": "item",
                  "type": "string"
                },
                {
                  "internalType": "string[]",
                  "name": "materials",
                  "type": "string[]"
                },
                {
                  "internalType": "string[]",
                  "name": "informations",
                  "type": "string[]"
                },
                {
                  "internalType": "string[]",
                  "name": "tests",
                  "type": "string[]"
                }
              ],
              "internalType": "struct Tracabilite.Specifications[]",
              "name": "specifications",
              "type": "tuple[]"
            }
          ],
          "internalType": "struct Tracabilite.TransactionClientFournisseur",
          "name": "",
          "type": "tuple"
        }
      ],
      "stateMutability": "view",
      "type": "function",
      "constant": true
    },
    {
      "inputs": [
        {
          "internalType": "string",
          "name": "_didFrom",
          "type": "string"
        },
        {
          "internalType": "string",
          "name": "_didTo",
          "type": "string"
        },
        {
          "internalType": "string",
          "name": "_dateTime",
          "type": "string"
        },
        {
          "components": [
            {
              "internalType": "string",
              "name": "item",
              "type": "string"
            },
            {
              "internalType": "string[]",
              "name": "materials",
              "type": "string[]"
            },
            {
              "internalType": "string[]",
              "name": "informations",
              "type": "string[]"
            },
            {
              "internalType": "string[]",
              "name": "tests",
              "type": "string[]"
            }
          ],
          "internalType": "struct Tracabilite.Specifications[]",
          "name": "_specifications",
          "type": "tuple[]"
        }
      ],
      "name": "setTransactionClientFournisseur",
      "outputs": [],
      "stateMutability": "nonpayable",
      "type": "function"
    },
    {
      "inputs": [],
      "name": "geTtransactionFournisseurClient",
      "outputs": [
        {
          "components": [
            {
              "components": [
                {
                  "internalType": "string",
                  "name": "didFrom",
                  "type": "string"
                },
                {
                  "internalType": "string",
                  "name": "didTo",
                  "type": "string"
                },
                {
                  "internalType": "string",
                  "name": "dateTime",
                  "type": "string"
                }
              ],
              "internalType": "struct Tracabilite.Common",
              "name": "transactionDonnees",
              "type": "tuple"
            },
            {
              "internalType": "bool",
              "name": "feedback",
              "type": "bool"
            }
          ],
          "internalType": "struct Tracabilite.TransactionFournisseurClient",
          "name": "",
          "type": "tuple"
        }
      ],
      "stateMutability": "view",
      "type": "function",
      "constant": true
    },
    {
      "inputs": [
        {
          "internalType": "string",
          "name": "_didFrom",
          "type": "string"
        },
        {
          "internalType": "string",
          "name": "_didTo",
          "type": "string"
        },
        {
          "internalType": "string",
          "name": "_dateTime",
          "type": "string"
        },
        {
          "internalType": "bool",
          "name": "_feedback",
          "type": "bool"
        }
      ],
      "name": "seTtransactionFournisseurClient",
      "outputs": [],
      "stateMutability": "nonpayable",
      "type": "function"
    },
    {
      "inputs": [],
      "name": "getTransactionFournisseurLabo",
      "outputs": [
        {
          "components": [
            {
              "components": [
                {
                  "internalType": "string",
                  "name": "didFrom",
                  "type": "string"
                },
                {
                  "internalType": "string",
                  "name": "didTo",
                  "type": "string"
                },
                {
                  "internalType": "string",
                  "name": "dateTime",
                  "type": "string"
                }
              ],
              "internalType": "struct Tracabilite.Common",
              "name": "transactionDonnees",
              "type": "tuple"
            },
            {
              "components": [
                {
                  "internalType": "string",
                  "name": "item",
                  "type": "string"
                },
                {
                  "internalType": "string[]",
                  "name": "materials",
                  "type": "string[]"
                },
                {
                  "internalType": "string[]",
                  "name": "informations",
                  "type": "string[]"
                },
                {
                  "internalType": "string[]",
                  "name": "tests",
                  "type": "string[]"
                }
              ],
              "internalType": "struct Tracabilite.Specifications[]",
              "name": "specifications",
              "type": "tuple[]"
            }
          ],
          "internalType": "struct Tracabilite.TransactionFournisseurLabo",
          "name": "",
          "type": "tuple"
        }
      ],
      "stateMutability": "view",
      "type": "function",
      "constant": true
    },
    {
      "inputs": [
        {
          "internalType": "string",
          "name": "_didFrom",
          "type": "string"
        },
        {
          "internalType": "string",
          "name": "_didTo",
          "type": "string"
        },
        {
          "internalType": "string",
          "name": "_dateTime",
          "type": "string"
        },
        {
          "components": [
            {
              "internalType": "string",
              "name": "item",
              "type": "string"
            },
            {
              "internalType": "string[]",
              "name": "materials",
              "type": "string[]"
            },
            {
              "internalType": "string[]",
              "name": "informations",
              "type": "string[]"
            },
            {
              "internalType": "string[]",
              "name": "tests",
              "type": "string[]"
            }
          ],
          "internalType": "struct Tracabilite.Specifications[]",
          "name": "_specifications",
          "type": "tuple[]"
        }
      ],
      "name": "setTransactionFournisseurLabo",
      "outputs": [],
      "stateMutability": "nonpayable",
      "type": "function"
    },
    {
      "inputs": [],
      "name": "getTransactionLaboFournisseur",
      "outputs": [
        {
          "components": [
            {
              "components": [
                {
                  "internalType": "string",
                  "name": "didFrom",
                  "type": "string"
                },
                {
                  "internalType": "string",
                  "name": "didTo",
                  "type": "string"
                },
                {
                  "internalType": "string",
                  "name": "dateTime",
                  "type": "string"
                }
              ],
              "internalType": "struct Tracabilite.Common",
              "name": "transactionDonnees",
              "type": "tuple"
            },
            {
              "internalType": "bool",
              "name": "feedback",
              "type": "bool"
            }
          ],
          "internalType": "struct Tracabilite.TransactionLaboFournisseur",
          "name": "",
          "type": "tuple"
        }
      ],
      "stateMutability": "view",
      "type": "function",
      "constant": true
    },
    {
      "inputs": [
        {
          "internalType": "string",
          "name": "_didFrom",
          "type": "string"
        },
        {
          "internalType": "string",
          "name": "_didTo",
          "type": "string"
        },
        {
          "internalType": "string",
          "name": "_dateTime",
          "type": "string"
        },
        {
          "internalType": "bool",
          "name": "_feedback",
          "type": "bool"
        }
      ],
      "name": "setTransactionLaboFournisseur",
      "outputs": [],
      "stateMutability": "nonpayable",
      "type": "function"
    },
    {
      "inputs": [],
      "name": "getTransactionLaboFournisseur2",
      "outputs": [
        {
          "components": [
            {
              "components": [
                {
                  "internalType": "string",
                  "name": "didFrom",
                  "type": "string"
                },
                {
                  "internalType": "string",
                  "name": "didTo",
                  "type": "string"
                },
                {
                  "internalType": "string",
                  "name": "dateTime",
                  "type": "string"
                }
              ],
              "internalType": "struct Tracabilite.Common",
              "name": "transactionDonnees",
              "type": "tuple"
            },
            {
              "internalType": "bool",
              "name": "testsValidated",
              "type": "bool"
            }
          ],
          "internalType": "struct Tracabilite.TransactionLaboFournisseur2",
          "name": "",
          "type": "tuple"
        }
      ],
      "stateMutability": "view",
      "type": "function",
      "constant": true
    },
    {
      "inputs": [
        {
          "internalType": "string",
          "name": "_didFrom",
          "type": "string"
        },
        {
          "internalType": "string",
          "name": "_didTo",
          "type": "string"
        },
        {
          "internalType": "string",
          "name": "_dateTime",
          "type": "string"
        },
        {
          "internalType": "bool",
          "name": "_testValidated",
          "type": "bool"
        }
      ],
      "name": "setTransactionLaboFournisseur2",
      "outputs": [],
      "stateMutability": "nonpayable",
      "type": "function"
    },
    {
      "inputs": [],
      "name": "getTransactionLaboClient",
      "outputs": [
        {
          "components": [
            {
              "components": [
                {
                  "internalType": "string",
                  "name": "didFrom",
                  "type": "string"
                },
                {
                  "internalType": "string",
                  "name": "didTo",
                  "type": "string"
                },
                {
                  "internalType": "string",
                  "name": "dateTime",
                  "type": "string"
                }
              ],
              "internalType": "struct Tracabilite.Common",
              "name": "transactionDonnees",
              "type": "tuple"
            },
            {
              "internalType": "uint256",
              "name": "idPvd",
              "type": "uint256"
            }
          ],
          "internalType": "struct Tracabilite.TransactionLaboClient",
          "name": "",
          "type": "tuple"
        }
      ],
      "stateMutability": "view",
      "type": "function",
      "constant": true
    },
    {
      "inputs": [
        {
          "internalType": "string",
          "name": "_didFrom",
          "type": "string"
        },
        {
          "internalType": "string",
          "name": "_didTo",
          "type": "string"
        },
        {
          "internalType": "string",
          "name": "_dateTime",
          "type": "string"
        },
        {
          "internalType": "uint256",
          "name": "_idPvd",
          "type": "uint256"
        }
      ],
      "name": "setTransactionLaboClient",
      "outputs": [],
      "stateMutability": "nonpayable",
      "type": "function"
    },
    {
      "inputs": [],
      "name": "getTransactionFournisseurClientLast",
      "outputs": [
        {
          "components": [
            {
              "components": [
                {
                  "internalType": "string",
                  "name": "didFrom",
                  "type": "string"
                },
                {
                  "internalType": "string",
                  "name": "didTo",
                  "type": "string"
                },
                {
                  "internalType": "string",
                  "name": "dateTime",
                  "type": "string"
                }
              ],
              "internalType": "struct Tracabilite.Common",
              "name": "transactionDonnees",
              "type": "tuple"
            },
            {
              "components": [
                {
                  "internalType": "string",
                  "name": "item",
                  "type": "string"
                },
                {
                  "internalType": "uint256",
                  "name": "quantity",
                  "type": "uint256"
                }
              ],
              "internalType": "struct Tracabilite.ListItems[]",
              "name": "listItems",
              "type": "tuple[]"
            }
          ],
          "internalType": "struct Tracabilite.TransactionFournisseurClientLast",
          "name": "",
          "type": "tuple"
        }
      ],
      "stateMutability": "view",
      "type": "function",
      "constant": true
    },
    {
      "inputs": [
        {
          "internalType": "string",
          "name": "_didFrom",
          "type": "string"
        },
        {
          "internalType": "string",
          "name": "_didTo",
          "type": "string"
        },
        {
          "internalType": "string",
          "name": "_dateTime",
          "type": "string"
        },
        {
          "components": [
            {
              "internalType": "string",
              "name": "item",
              "type": "string"
            },
            {
              "internalType": "uint256",
              "name": "quantity",
              "type": "uint256"
            }
          ],
          "internalType": "struct Tracabilite.ListItems[]",
          "name": "_listItems",
          "type": "tuple[]"
        }
      ],
      "name": "setTransactionFournisseurClientLast",
      "outputs": [],
      "stateMutability": "nonpayable",
      "type": "function"
    }
  ],
  "bytecode": "0x608060405234801561001057600080fd5b506131d1806100206000396000f3fe608060405234801561001057600080fd5b50600436106100ea5760003560e01c8063907d2a8d1161008c578063d439fa4c11610066578063d439fa4c1461020f578063f15425211461022d578063f1db99361461024b578063fab952cd14610269576100ea565b8063907d2a8d146101b95780639112ca84146101d5578063cdf59e48146101f3576100ea565b80636e1d3a41116100c85780636e1d3a41146101455780637c3b84df1461016357806381fce2ac1461017f5780638700c36b1461019d576100ea565b8063320494f9146100ef5780635df5d7841461010b578063699d164c14610129575b600080fd5b6101096004803603810190610104919061216d565b610285565b005b610113610358565b6040516101209190612379565b60405180910390f35b610143600480360381019061013e9190612645565b610557565b005b61014d610674565b60405161015a919061295c565b60405180910390f35b61017d60048036038101906101789190612645565b610bd4565b005b610187610cf4565b60405161019491906129bb565b60405180910390f35b6101b760048036038101906101b29190612a09565b610ef3565b005b6101d360048036038101906101ce9190612ac4565b610f58565b005b6101dd610faa565b6040516101ea9190612bbc565b60405180910390f35b61020d60048036038101906102089190612a09565b6111a9565b005b61021761120e565b6040516102249190612c22565b60405180910390f35b61023561176e565b6040516102429190612c90565b60405180910390f35b61025361195c565b6040516102609190612df5565b60405180910390f35b610283600480360381019061027e9190612a09565b611c3b565b005b836018600001600001908161029a9190613023565b5082601860000160010190816102b09190613023565b5081601860000160020190816102c69190613023565b5060005b81518110156103515760186003018282815181106102eb576102ea6130f5565b5b6020026020010151908060018154018082558091505060019003906000526020600020906002020160009091909190915060008201518160000190816103319190613023565b50602082015181600101555050808061034990613153565b9150506102ca565b5050505050565b610360611ca0565b60106040518060400160405290816000820160405180606001604052908160008201805461038d90612e46565b80601f01602080910402602001604051908101604052809291908181526020018280546103b990612e46565b80156104065780601f106103db57610100808354040283529160200191610406565b820191906000526020600020905b8154815290600101906020018083116103e957829003601f168201915b5050505050815260200160018201805461041f90612e46565b80601f016020809104026020016040519081016040528092919081815260200182805461044b90612e46565b80156104985780601f1061046d57610100808354040283529160200191610498565b820191906000526020600020905b81548152906001019060200180831161047b57829003601f168201915b505050505081526020016002820180546104b190612e46565b80601f01602080910402602001604051908101604052809291908181526020018280546104dd90612e46565b801561052a5780601f106104ff5761010080835404028352916020019161052a565b820191906000526020600020905b81548152906001019060200180831161050d57829003601f168201915b50505050508152505081526020016003820160009054906101000a900460ff161515151581525050905090565b8360008001600001908161056b9190613023565b50826000800160010190816105809190613023565b50816000800160020190816105959190613023565b5060005b815181101561066d5760006003018282815181106105ba576105b96130f5565b5b6020026020010151908060018154018082558091505060019003906000526020600020906004020160009091909190915060008201518160000190816106009190613023565b50602082015181600101908051906020019061061d929190611cc2565b50604082015181600201908051906020019061063a929190611cc2565b506060820151816003019080519060200190610657929190611cc2565b505050808061066590613153565b915050610599565b5050505050565b61067c611d1b565b6008604051806040016040529081600082016040518060600160405290816000820180546106a990612e46565b80601f01602080910402602001604051908101604052809291908181526020018280546106d590612e46565b80156107225780601f106106f757610100808354040283529160200191610722565b820191906000526020600020905b81548152906001019060200180831161070557829003601f168201915b5050505050815260200160018201805461073b90612e46565b80601f016020809104026020016040519081016040528092919081815260200182805461076790612e46565b80156107b45780601f10610789576101008083540402835291602001916107b4565b820191906000526020600020905b81548152906001019060200180831161079757829003601f168201915b505050505081526020016002820180546107cd90612e46565b80601f01602080910402602001604051908101604052809291908181526020018280546107f990612e46565b80156108465780601f1061081b57610100808354040283529160200191610846565b820191906000526020600020905b81548152906001019060200180831161082957829003601f168201915b505050505081525050815260200160038201805480602002602001604051908101604052809291908181526020016000905b82821015610bc757838290600052602060002090600402016040518060800160405290816000820180546108ab90612e46565b80601f01602080910402602001604051908101604052809291908181526020018280546108d790612e46565b80156109245780601f106108f957610100808354040283529160200191610924565b820191906000526020600020905b81548152906001019060200180831161090757829003601f168201915b5050505050815260200160018201805480602002602001604051908101604052809291908181526020016000905b828210156109fe57838290600052602060002001805461097190612e46565b80601f016020809104026020016040519081016040528092919081815260200182805461099d90612e46565b80156109ea5780601f106109bf576101008083540402835291602001916109ea565b820191906000526020600020905b8154815290600101906020018083116109cd57829003601f168201915b505050505081526020019060010190610952565b50505050815260200160028201805480602002602001604051908101604052809291908181526020016000905b82821015610ad7578382906000526020600020018054610a4a90612e46565b80601f0160208091040260200160405190810160405280929190818152602001828054610a7690612e46565b8015610ac35780601f10610a9857610100808354040283529160200191610ac3565b820191906000526020600020905b815481529060010190602001808311610aa657829003601f168201915b505050505081526020019060010190610a2b565b50505050815260200160038201805480602002602001604051908101604052809291908181526020016000905b82821015610bb0578382906000526020600020018054610b2390612e46565b80601f0160208091040260200160405190810160405280929190818152602001828054610b4f90612e46565b8015610b9c5780601f10610b7157610100808354040283529160200191610b9c565b820191906000526020600020905b815481529060010190602001808311610b7f57829003601f168201915b505050505081526020019060010190610b04565b505050508152505081526020019060010190610878565b5050505081525050905090565b8360086000016000019081610be99190613023565b508260086000016001019081610bff9190613023565b508160086000016002019081610c159190613023565b5060005b8151811015610ced576008600301828281518110610c3a57610c396130f5565b5b602002602001015190806001815401808255809150506001900390600052602060002090600402016000909190919091506000820151816000019081610c809190613023565b506020820151816001019080519060200190610c9d929190611cc2565b506040820151816002019080519060200190610cba929190611cc2565b506060820151816003019080519060200190610cd7929190611cc2565b5050508080610ce590613153565b915050610c19565b5050505050565b610cfc611d3b565b600c60405180604001604052908160008201604051806060016040529081600082018054610d2990612e46565b80601f0160208091040260200160405190810160405280929190818152602001828054610d5590612e46565b8015610da25780601f10610d7757610100808354040283529160200191610da2565b820191906000526020600020905b815481529060010190602001808311610d8557829003601f168201915b50505050508152602001600182018054610dbb90612e46565b80601f0160208091040260200160405190810160405280929190818152602001828054610de790612e46565b8015610e345780601f10610e0957610100808354040283529160200191610e34565b820191906000526020600020905b815481529060010190602001808311610e1757829003601f168201915b50505050508152602001600282018054610e4d90612e46565b80601f0160208091040260200160405190810160405280929190818152602001828054610e7990612e46565b8015610ec65780601f10610e9b57610100808354040283529160200191610ec6565b820191906000526020600020905b815481529060010190602001808311610ea957829003601f168201915b50505050508152505081526020016003820160009054906101000a900460ff161515151581525050905090565b8360046000016000019081610f089190613023565b508260046000016001019081610f1e9190613023565b508160046000016002019081610f349190613023565b5080600460030160006101000a81548160ff02191690831515021790555050505050565b8360146000016000019081610f6d9190613023565b508260146000016001019081610f839190613023565b508160146000016002019081610f999190613023565b508060146003018190555050505050565b610fb2611d5d565b600460405180604001604052908160008201604051806060016040529081600082018054610fdf90612e46565b80601f016020809104026020016040519081016040528092919081815260200182805461100b90612e46565b80156110585780601f1061102d57610100808354040283529160200191611058565b820191906000526020600020905b81548152906001019060200180831161103b57829003601f168201915b5050505050815260200160018201805461107190612e46565b80601f016020809104026020016040519081016040528092919081815260200182805461109d90612e46565b80156110ea5780601f106110bf576101008083540402835291602001916110ea565b820191906000526020600020905b8154815290600101906020018083116110cd57829003601f168201915b5050505050815260200160028201805461110390612e46565b80601f016020809104026020016040519081016040528092919081815260200182805461112f90612e46565b801561117c5780601f106111515761010080835404028352916020019161117c565b820191906000526020600020905b81548152906001019060200180831161115f57829003601f168201915b50505050508152505081526020016003820160009054906101000a900460ff161515151581525050905090565b83600c60000160000190816111be9190613023565b5082600c60000160010190816111d49190613023565b5081600c60000160020190816111ea9190613023565b5080600c60030160006101000a81548160ff02191690831515021790555050505050565b611216611d7f565b60006040518060400160405290816000820160405180606001604052908160008201805461124390612e46565b80601f016020809104026020016040519081016040528092919081815260200182805461126f90612e46565b80156112bc5780601f10611291576101008083540402835291602001916112bc565b820191906000526020600020905b81548152906001019060200180831161129f57829003601f168201915b505050505081526020016001820180546112d590612e46565b80601f016020809104026020016040519081016040528092919081815260200182805461130190612e46565b801561134e5780601f106113235761010080835404028352916020019161134e565b820191906000526020600020905b81548152906001019060200180831161133157829003601f168201915b5050505050815260200160028201805461136790612e46565b80601f016020809104026020016040519081016040528092919081815260200182805461139390612e46565b80156113e05780601f106113b5576101008083540402835291602001916113e0565b820191906000526020600020905b8154815290600101906020018083116113c357829003601f168201915b505050505081525050815260200160038201805480602002602001604051908101604052809291908181526020016000905b82821015611761578382906000526020600020906004020160405180608001604052908160008201805461144590612e46565b80601f016020809104026020016040519081016040528092919081815260200182805461147190612e46565b80156114be5780601f10611493576101008083540402835291602001916114be565b820191906000526020600020905b8154815290600101906020018083116114a157829003601f168201915b5050505050815260200160018201805480602002602001604051908101604052809291908181526020016000905b8282101561159857838290600052602060002001805461150b90612e46565b80601f016020809104026020016040519081016040528092919081815260200182805461153790612e46565b80156115845780601f1061155957610100808354040283529160200191611584565b820191906000526020600020905b81548152906001019060200180831161156757829003601f168201915b5050505050815260200190600101906114ec565b50505050815260200160028201805480602002602001604051908101604052809291908181526020016000905b828210156116715783829060005260206000200180546115e490612e46565b80601f016020809104026020016040519081016040528092919081815260200182805461161090612e46565b801561165d5780601f106116325761010080835404028352916020019161165d565b820191906000526020600020905b81548152906001019060200180831161164057829003601f168201915b5050505050815260200190600101906115c5565b50505050815260200160038201805480602002602001604051908101604052809291908181526020016000905b8282101561174a5783829060005260206000200180546116bd90612e46565b80601f01602080910402602001604051908101604052809291908181526020018280546116e990612e46565b80156117365780601f1061170b57610100808354040283529160200191611736565b820191906000526020600020905b81548152906001019060200180831161171957829003601f168201915b50505050508152602001906001019061169e565b505050508152505081526020019060010190611412565b5050505081525050905090565b611776611d9f565b6014604051806040016040529081600082016040518060600160405290816000820180546117a390612e46565b80601f01602080910402602001604051908101604052809291908181526020018280546117cf90612e46565b801561181c5780601f106117f15761010080835404028352916020019161181c565b820191906000526020600020905b8154815290600101906020018083116117ff57829003601f168201915b5050505050815260200160018201805461183590612e46565b80601f016020809104026020016040519081016040528092919081815260200182805461186190612e46565b80156118ae5780601f10611883576101008083540402835291602001916118ae565b820191906000526020600020905b81548152906001019060200180831161189157829003601f168201915b505050505081526020016002820180546118c790612e46565b80601f01602080910402602001604051908101604052809291908181526020018280546118f390612e46565b80156119405780601f1061191557610100808354040283529160200191611940565b820191906000526020600020905b81548152906001019060200180831161192357829003601f168201915b5050505050815250508152602001600382015481525050905090565b611964611dbf565b60186040518060400160405290816000820160405180606001604052908160008201805461199190612e46565b80601f01602080910402602001604051908101604052809291908181526020018280546119bd90612e46565b8015611a0a5780601f106119df57610100808354040283529160200191611a0a565b820191906000526020600020905b8154815290600101906020018083116119ed57829003601f168201915b50505050508152602001600182018054611a2390612e46565b80601f0160208091040260200160405190810160405280929190818152602001828054611a4f90612e46565b8015611a9c5780601f10611a7157610100808354040283529160200191611a9c565b820191906000526020600020905b815481529060010190602001808311611a7f57829003601f168201915b50505050508152602001600282018054611ab590612e46565b80601f0160208091040260200160405190810160405280929190818152602001828054611ae190612e46565b8015611b2e5780601f10611b0357610100808354040283529160200191611b2e565b820191906000526020600020905b815481529060010190602001808311611b1157829003601f168201915b505050505081525050815260200160038201805480602002602001604051908101604052809291908181526020016000905b82821015611c2e5783829060005260206000209060020201604051806040016040529081600082018054611b9390612e46565b80601f0160208091040260200160405190810160405280929190818152602001828054611bbf90612e46565b8015611c0c5780601f10611be157610100808354040283529160200191611c0c565b820191906000526020600020905b815481529060010190602001808311611bef57829003601f168201915b5050505050815260200160018201548152505081526020019060010190611b60565b5050505081525050905090565b8360106000016000019081611c509190613023565b508260106000016001019081611c669190613023565b508160106000016002019081611c7c9190613023565b5080601060030160006101000a81548160ff02191690831515021790555050505050565b6040518060400160405280611cb3611ddf565b81526020016000151581525090565b828054828255906000526020600020908101928215611d0a579160200282015b82811115611d09578251829081611cf99190613023565b5091602001919060010190611ce2565b5b509050611d179190611e00565b5090565b6040518060400160405280611d2e611ddf565b8152602001606081525090565b6040518060400160405280611d4e611ddf565b81526020016000151581525090565b6040518060400160405280611d70611ddf565b81526020016000151581525090565b6040518060400160405280611d92611ddf565b8152602001606081525090565b6040518060400160405280611db2611ddf565b8152602001600081525090565b6040518060400160405280611dd2611ddf565b8152602001606081525090565b60405180606001604052806060815260200160608152602001606081525090565b5b80821115611e205760008181611e179190611e24565b50600101611e01565b5090565b508054611e3090612e46565b6000825580601f10611e425750611e61565b601f016020900490600052602060002090810190611e609190611e64565b5b50565b5b80821115611e7d576000816000905550600101611e65565b5090565b6000604051905090565b600080fd5b600080fd5b600080fd5b600080fd5b6000601f19601f8301169050919050565b7f4e487b7100000000000000000000000000000000000000000000000000000000600052604160045260246000fd5b611ee882611e9f565b810181811067ffffffffffffffff82111715611f0757611f06611eb0565b5b80604052505050565b6000611f1a611e81565b9050611f268282611edf565b919050565b600067ffffffffffffffff821115611f4657611f45611eb0565b5b611f4f82611e9f565b9050602081019050919050565b82818337600083830152505050565b6000611f7e611f7984611f2b565b611f10565b905082815260208101848484011115611f9a57611f99611e9a565b5b611fa5848285611f5c565b509392505050565b600082601f830112611fc257611fc1611e95565b5b8135611fd2848260208601611f6b565b91505092915050565b600067ffffffffffffffff821115611ff657611ff5611eb0565b5b602082029050602081019050919050565b600080fd5b600080fd5b600080fd5b6000819050919050565b61202981612016565b811461203457600080fd5b50565b60008135905061204681612020565b92915050565b6000604082840312156120625761206161200c565b5b61206c6040611f10565b9050600082013567ffffffffffffffff81111561208c5761208b612011565b5b61209884828501611fad565b60008301525060206120ac84828501612037565b60208301525092915050565b60006120cb6120c684611fdb565b611f10565b905080838252602082019050602084028301858111156120ee576120ed612007565b5b835b8181101561213557803567ffffffffffffffff81111561211357612112611e95565b5b808601612120898261204c565b855260208501945050506020810190506120f0565b5050509392505050565b600082601f83011261215457612153611e95565b5b81356121648482602086016120b8565b91505092915050565b6000806000806080858703121561218757612186611e8b565b5b600085013567ffffffffffffffff8111156121a5576121a4611e90565b5b6121b187828801611fad565b945050602085013567ffffffffffffffff8111156121d2576121d1611e90565b5b6121de87828801611fad565b935050604085013567ffffffffffffffff8111156121ff576121fe611e90565b5b61220b87828801611fad565b925050606085013567ffffffffffffffff81111561222c5761222b611e90565b5b6122388782880161213f565b91505092959194509250565b600081519050919050565b600082825260208201905092915050565b60005b8381101561227e578082015181840152602081019050612263565b60008484015250505050565b600061229582612244565b61229f818561224f565b93506122af818560208601612260565b6122b881611e9f565b840191505092915050565b600060608301600083015184820360008601526122e0828261228a565b915050602083015184820360208601526122fa828261228a565b91505060408301518482036040860152612314828261228a565b9150508091505092915050565b60008115159050919050565b61233681612321565b82525050565b6000604083016000830151848203600086015261235982826122c3565b915050602083015161236e602086018261232d565b508091505092915050565b60006020820190508181036000830152612393818461233c565b905092915050565b600067ffffffffffffffff8211156123b6576123b5611eb0565b5b602082029050602081019050919050565b600067ffffffffffffffff8211156123e2576123e1611eb0565b5b602082029050602081019050919050565b6000612406612401846123c7565b611f10565b9050808382526020820190506020840283018581111561242957612428612007565b5b835b8181101561247057803567ffffffffffffffff81111561244e5761244d611e95565b5b80860161245b8982611fad565b8552602085019450505060208101905061242b565b5050509392505050565b600082601f83011261248f5761248e611e95565b5b813561249f8482602086016123f3565b91505092915050565b6000608082840312156124be576124bd61200c565b5b6124c86080611f10565b9050600082013567ffffffffffffffff8111156124e8576124e7612011565b5b6124f484828501611fad565b600083015250602082013567ffffffffffffffff81111561251857612517612011565b5b6125248482850161247a565b602083015250604082013567ffffffffffffffff81111561254857612547612011565b5b6125548482850161247a565b604083015250606082013567ffffffffffffffff81111561257857612577612011565b5b6125848482850161247a565b60608301525092915050565b60006125a361259e8461239b565b611f10565b905080838252602082019050602084028301858111156125c6576125c5612007565b5b835b8181101561260d57803567ffffffffffffffff8111156125eb576125ea611e95565b5b8086016125f889826124a8565b855260208501945050506020810190506125c8565b5050509392505050565b600082601f83011261262c5761262b611e95565b5b813561263c848260208601612590565b91505092915050565b6000806000806080858703121561265f5761265e611e8b565b5b600085013567ffffffffffffffff81111561267d5761267c611e90565b5b61268987828801611fad565b945050602085013567ffffffffffffffff8111156126aa576126a9611e90565b5b6126b687828801611fad565b935050604085013567ffffffffffffffff8111156126d7576126d6611e90565b5b6126e387828801611fad565b925050606085013567ffffffffffffffff81111561270457612703611e90565b5b61271087828801612617565b91505092959194509250565b600081519050919050565b600082825260208201905092915050565b6000819050602082019050919050565b600081519050919050565b600082825260208201905092915050565b6000819050602082019050919050565b6000612780838361228a565b905092915050565b6000602082019050919050565b60006127a082612748565b6127aa8185612753565b9350836020820285016127bc85612764565b8060005b858110156127f857848403895281516127d98582612774565b94506127e483612788565b925060208a019950506001810190506127c0565b50829750879550505050505092915050565b60006080830160008301518482036000860152612827828261228a565b915050602083015184820360208601526128418282612795565b9150506040830151848203604086015261285b8282612795565b915050606083015184820360608601526128758282612795565b9150508091505092915050565b600061288e838361280a565b905092915050565b6000602082019050919050565b60006128ae8261271c565b6128b88185612727565b9350836020820285016128ca85612738565b8060005b8581101561290657848403895281516128e78582612882565b94506128f283612896565b925060208a019950506001810190506128ce565b50829750879550505050505092915050565b6000604083016000830151848203600086015261293582826122c3565b9150506020830151848203602086015261294f82826128a3565b9150508091505092915050565b600060208201905081810360008301526129768184612918565b905092915050565b6000604083016000830151848203600086015261299b82826122c3565b91505060208301516129b0602086018261232d565b508091505092915050565b600060208201905081810360008301526129d5818461297e565b905092915050565b6129e681612321565b81146129f157600080fd5b50565b600081359050612a03816129dd565b92915050565b60008060008060808587031215612a2357612a22611e8b565b5b600085013567ffffffffffffffff811115612a4157612a40611e90565b5b612a4d87828801611fad565b945050602085013567ffffffffffffffff811115612a6e57612a6d611e90565b5b612a7a87828801611fad565b935050604085013567ffffffffffffffff811115612a9b57612a9a611e90565b5b612aa787828801611fad565b9250506060612ab8878288016129f4565b91505092959194509250565b60008060008060808587031215612ade57612add611e8b565b5b600085013567ffffffffffffffff811115612afc57612afb611e90565b5b612b0887828801611fad565b945050602085013567ffffffffffffffff811115612b2957612b28611e90565b5b612b3587828801611fad565b935050604085013567ffffffffffffffff811115612b5657612b55611e90565b5b612b6287828801611fad565b9250506060612b7387828801612037565b91505092959194509250565b60006040830160008301518482036000860152612b9c82826122c3565b9150506020830151612bb1602086018261232d565b508091505092915050565b60006020820190508181036000830152612bd68184612b7f565b905092915050565b60006040830160008301518482036000860152612bfb82826122c3565b91505060208301518482036020860152612c1582826128a3565b9150508091505092915050565b60006020820190508181036000830152612c3c8184612bde565b905092915050565b612c4d81612016565b82525050565b60006040830160008301518482036000860152612c7082826122c3565b9150506020830151612c856020860182612c44565b508091505092915050565b60006020820190508181036000830152612caa8184612c53565b905092915050565b600081519050919050565b600082825260208201905092915050565b6000819050602082019050919050565b60006040830160008301518482036000860152612cfb828261228a565b9150506020830151612d106020860182612c44565b508091505092915050565b6000612d278383612cde565b905092915050565b6000602082019050919050565b6000612d4782612cb2565b612d518185612cbd565b935083602082028501612d6385612cce565b8060005b85811015612d9f5784840389528151612d808582612d1b565b9450612d8b83612d2f565b925060208a01995050600181019050612d67565b50829750879550505050505092915050565b60006040830160008301518482036000860152612dce82826122c3565b91505060208301518482036020860152612de88282612d3c565b9150508091505092915050565b60006020820190508181036000830152612e0f8184612db1565b905092915050565b7f4e487b7100000000000000000000000000000000000000000000000000000000600052602260045260246000fd5b60006002820490506001821680612e5e57607f821691505b602082108103612e7157612e70612e17565b5b50919050565b60008190508160005260206000209050919050565b60006020601f8301049050919050565b600082821b905092915050565b600060088302612ed97fffffffffffffffffffffffffffffffffffffffffffffffffffffffffffffffff82612e9c565b612ee38683612e9c565b95508019841693508086168417925050509392505050565b6000819050919050565b6000612f20612f1b612f1684612016565b612efb565b612016565b9050919050565b6000819050919050565b612f3a83612f05565b612f4e612f4682612f27565b848454612ea9565b825550505050565b600090565b612f63612f56565b612f6e818484612f31565b505050565b5b81811015612f9257612f87600082612f5b565b600181019050612f74565b5050565b601f821115612fd757612fa881612e77565b612fb184612e8c565b81016020851015612fc0578190505b612fd4612fcc85612e8c565b830182612f73565b50505b505050565b600082821c905092915050565b6000612ffa60001984600802612fdc565b1980831691505092915050565b60006130138383612fe9565b9150826002028217905092915050565b61302c82612244565b67ffffffffffffffff81111561304557613044611eb0565b5b61304f8254612e46565b61305a828285612f96565b600060209050601f83116001811461308d576000841561307b578287015190505b6130858582613007565b8655506130ed565b601f19841661309b86612e77565b60005b828110156130c35784890151825560018201915060208501945060208101905061309e565b868310156130e057848901516130dc601f891682612fe9565b8355505b6001600288020188555050505b505050505050565b7f4e487b7100000000000000000000000000000000000000000000000000000000600052603260045260246000fd5b7f4e487b7100000000000000000000000000000000000000000000000000000000600052601160045260246000fd5b600061315e82612016565b91507fffffffffffffffffffffffffffffffffffffffffffffffffffffffffffffffff82036131905761318f613124565b5b60018201905091905056fea264697066735822122014ccd63d2906aca689d014d7b6a3e0782979dbf383330b702a03fab81c26005564736f6c63430008110033",
  "immutableReferences": {},
  "source": "// SPDX-License-Identifier: GPL-3.0\r\n\r\npragma solidity ^0.8.16;\r\n\r\n/**\r\n * @title Ballot\r\n * @dev Implements voting process along with vote delegation\r\n */\r\ncontract Tracabilite {\r\n    //attributs\r\n    struct Common {\r\n        string didFrom;\r\n        string didTo;\r\n        string dateTime;\r\n    }\r\n    struct Specifications {\r\n        string item;\r\n        string[] materials;\r\n        string[] informations;\r\n        string[] tests;\r\n    }\r\n\r\n    struct ListItems {\r\n        string item;\r\n        uint256 quantity;\r\n    }\r\n    struct TransactionClientFournisseur {\r\n        Common transactionDonnees;\r\n        Specifications[] specifications;\r\n    }\r\n    //t1\r\n    TransactionClientFournisseur transactionClientFournisseur;\r\n\r\n    struct TransactionFournisseurClient {\r\n        Common transactionDonnees;\r\n        bool feedback;\r\n    }\r\n    //t2\r\n    TransactionFournisseurClient transactionFournisseurClient;\r\n    //t3\r\n    struct TransactionFournisseurLabo {\r\n        Common transactionDonnees;\r\n        Specifications[] specifications;\r\n    }\r\n    TransactionFournisseurLabo transactionFournisseurLabo;\r\n    //t4\r\n    struct TransactionLaboFournisseur {\r\n        Common transactionDonnees;\r\n        bool feedback;\r\n    }\r\n    //t5\r\n    TransactionLaboFournisseur transactionLaboFournisseur;\r\n    struct TransactionLaboFournisseur2 {\r\n        Common transactionDonnees;\r\n        bool testsValidated;\r\n    }\r\n    TransactionLaboFournisseur2 transactionLaboFournisseur2;\r\n    //t6\r\n    struct TransactionLaboClient {\r\n        Common transactionDonnees;\r\n        uint256 idPvd;\r\n    }\r\n    TransactionLaboClient transactionLaboClient;\r\n\r\n    struct TransactionFournisseurClientLast {\r\n        Common transactionDonnees;\r\n        ListItems[] listItems;\r\n    }\r\n    TransactionFournisseurClientLast transactionFournisseurClientLast;\r\n\r\n    //T1 : transaction client vers fournisseur\r\n    function getTransactionFournisseurClient()\r\n        public\r\n        view\r\n        returns (TransactionClientFournisseur memory)\r\n    {\r\n        return transactionClientFournisseur;\r\n    }\r\n\r\n    function setTransactionClientFournisseur(\r\n        string memory _didFrom,\r\n        string memory _didTo,\r\n        string memory _dateTime,\r\n        Specifications[] memory _specifications\r\n    ) public {\r\n        transactionClientFournisseur.transactionDonnees.didFrom = _didFrom;\r\n        transactionClientFournisseur.transactionDonnees.didTo = _didTo;\r\n        transactionClientFournisseur.transactionDonnees.dateTime = _dateTime;\r\n        for (uint256 _y = 0; _y < _specifications.length; _y++) {\r\n            transactionClientFournisseur.specifications.push(\r\n                _specifications[_y]\r\n            );\r\n        }\r\n    }\r\n\r\n    //T2 : transaction fournisseur vers client\r\n    function geTtransactionFournisseurClient()\r\n        public\r\n        view\r\n        returns (TransactionFournisseurClient memory)\r\n    {\r\n        return transactionFournisseurClient;\r\n    }\r\n\r\n    function seTtransactionFournisseurClient(\r\n        string memory _didFrom,\r\n        string memory _didTo,\r\n        string memory _dateTime,\r\n        bool _feedback\r\n    ) public {\r\n        transactionFournisseurClient.transactionDonnees.didFrom = _didFrom;\r\n        transactionFournisseurClient.transactionDonnees.didTo = _didTo;\r\n        transactionFournisseurClient.transactionDonnees.dateTime = _dateTime;\r\n        transactionFournisseurClient.feedback = _feedback;\r\n    }\r\n\r\n    //T3 :transaction fournisseur vers labo\r\n    function getTransactionFournisseurLabo()\r\n        public\r\n        view\r\n        returns (TransactionFournisseurLabo memory)\r\n    {\r\n        return transactionFournisseurLabo;\r\n    }\r\n\r\n    function setTransactionFournisseurLabo(\r\n        string memory _didFrom,\r\n        string memory _didTo,\r\n        string memory _dateTime,\r\n        Specifications[] memory _specifications\r\n    ) public {\r\n        transactionFournisseurLabo.transactionDonnees.didFrom = _didFrom;\r\n        transactionFournisseurLabo.transactionDonnees.didTo = _didTo;\r\n        transactionFournisseurLabo.transactionDonnees.dateTime = _dateTime;\r\n        for (uint256 _y = 0; _y < _specifications.length; _y++) {\r\n            transactionFournisseurLabo.specifications.push(_specifications[_y]);\r\n        }\r\n    }\r\n\r\n    //T4 : transaction Labo vers Fournisseur\r\n    function getTransactionLaboFournisseur()\r\n        public\r\n        view\r\n        returns (TransactionLaboFournisseur memory)\r\n    {\r\n        return transactionLaboFournisseur;\r\n    }\r\n\r\n    function setTransactionLaboFournisseur(\r\n        string memory _didFrom,\r\n        string memory _didTo,\r\n        string memory _dateTime,\r\n        bool _feedback\r\n    ) public {\r\n        transactionLaboFournisseur.transactionDonnees.didFrom = _didFrom;\r\n        transactionLaboFournisseur.transactionDonnees.didTo = _didTo;\r\n        transactionLaboFournisseur.transactionDonnees.dateTime = _dateTime;\r\n        transactionLaboFournisseur.feedback = _feedback;\r\n    }\r\n\r\n    //T5 : transaction Labo vers Fournisseur 2\r\n    function getTransactionLaboFournisseur2()\r\n        public\r\n        view\r\n        returns (TransactionLaboFournisseur2 memory)\r\n    {\r\n        return transactionLaboFournisseur2;\r\n    }\r\n\r\n    function setTransactionLaboFournisseur2(\r\n        string memory _didFrom,\r\n        string memory _didTo,\r\n        string memory _dateTime,\r\n        bool _testValidated\r\n    ) public {\r\n        transactionLaboFournisseur2.transactionDonnees.didFrom = _didFrom;\r\n        transactionLaboFournisseur2.transactionDonnees.didTo = _didTo;\r\n        transactionLaboFournisseur2.transactionDonnees.dateTime = _dateTime;\r\n        transactionLaboFournisseur2.testsValidated = _testValidated;\r\n    }\r\n\r\n    //T6 : transaction Labo vers client\r\n    function getTransactionLaboClient()\r\n        public\r\n        view\r\n        returns (TransactionLaboClient memory)\r\n    {\r\n        return transactionLaboClient;\r\n    }\r\n\r\n    function setTransactionLaboClient(\r\n        string memory _didFrom,\r\n        string memory _didTo,\r\n        string memory _dateTime,\r\n        uint256 _idPvd\r\n    ) public {\r\n        transactionLaboClient.transactionDonnees.didFrom = _didFrom;\r\n        transactionLaboClient.transactionDonnees.didTo = _didTo;\r\n        transactionLaboClient.transactionDonnees.dateTime = _dateTime;\r\n        transactionLaboClient.idPvd = _idPvd;\r\n    }\r\n\r\n    //T7 : transaction finale fournisseur vers client\r\n    function getTransactionFournisseurClientLast()\r\n        public\r\n        view\r\n        returns (TransactionFournisseurClientLast memory)\r\n    {\r\n        return transactionFournisseurClientLast;\r\n    }\r\n\r\n    function setTransactionFournisseurClientLast(\r\n        string memory _didFrom,\r\n        string memory _didTo,\r\n        string memory _dateTime,\r\n        ListItems[] memory _listItems\r\n    ) public {\r\n        transactionFournisseurClientLast.transactionDonnees.didFrom = _didFrom;\r\n        transactionFournisseurClientLast.transactionDonnees.didTo = _didTo;\r\n        transactionFournisseurClientLast\r\n            .transactionDonnees\r\n            .dateTime = _dateTime;\r\n        for (uint256 _y = 0; _y < _listItems.length; _y++) {\r\n            transactionFournisseurClientLast.listItems.push(_listItems[_y]);\r\n        }\r\n    }\r\n}\r\n",
  "sourcePath": "C:\\Users\\habou\\OneDrive\\Bureau\\blockchain\\edf-poc-beta\\dapps\\edf-dapp\\truffle\\contracts\\Tracalibilite.sol",
  "compiler": {
    "name": "solc",
    "version": "0.8.17+commit.8df45f5f.Emscripten.clang"
  },
  "schemaVersion": "3.4.11",
  "updatedAt": "2022-12-30T20:59:47.229Z",
  "networkType": "ethereum",
  "devdoc": {
    "details": "Implements voting process along with vote delegation",
    "kind": "dev",
    "methods": {},
    "title": "Ballot",
    "version": 1
  },
  "userdoc": {
    "kind": "user",
    "methods": {},
    "version": 1
  }
}