{
  "contractName": "TrustedIssuerList",
  "abi": [
    {
      "inputs": [],
      "stateMutability": "nonpayable",
      "type": "constructor"
    },
    {
      "inputs": [
        {
          "internalType": "enum TrustedIssuerList.ProposalType",
          "name": "_proposalType",
          "type": "uint8"
        },
        {
          "internalType": "address",
          "name": "_statekeeper",
          "type": "address"
        },
        {
          "internalType": "uint256",
          "name": "_newRate",
          "type": "uint256"
        },
        {
          "internalType": "enum TrustedIssuerList.ProposalType",
          "name": "_rateType",
          "type": "uint8"
        }
      ],
      "name": "createProposal",
      "outputs": [],
      "stateMutability": "nonpayable",
      "type": "function"
    },
    {
      "inputs": [],
      "name": "getProposals",
      "outputs": [
        {
          "components": [
            {
              "internalType": "enum TrustedIssuerList.ProposalType",
              "name": "proposalType",
              "type": "uint8"
            },
            {
              "internalType": "address",
              "name": "statekeeper",
              "type": "address"
            },
            {
              "internalType": "enum TrustedIssuerList.ProposalType",
              "name": "rateType",
              "type": "uint8"
            },
            {
              "internalType": "uint256",
              "name": "rate",
              "type": "uint256"
            },
            {
              "internalType": "address[]",
              "name": "yea",
              "type": "address[]"
            },
            {
              "internalType": "address[]",
              "name": "nay",
              "type": "address[]"
            },
            {
              "internalType": "enum TrustedIssuerList.State",
              "name": "state",
              "type": "uint8"
            }
          ],
          "internalType": "struct TrustedIssuerList.Proposal[]",
          "name": "allProposals",
          "type": "tuple[]"
        }
      ],
      "stateMutability": "view",
      "type": "function"
    },
    {
      "inputs": [
        {
          "internalType": "uint256",
          "name": "_proposalId",
          "type": "uint256"
        },
        {
          "internalType": "bool",
          "name": "_yea",
          "type": "bool"
        }
      ],
      "name": "vote",
      "outputs": [],
      "stateMutability": "nonpayable",
      "type": "function"
    },
    {
      "inputs": [
        {
          "internalType": "uint256",
          "name": "_proposalId",
          "type": "uint256"
        }
      ],
      "name": "enforceProposal",
      "outputs": [],
      "stateMutability": "nonpayable",
      "type": "function"
    },
    {
      "inputs": [],
      "name": "getStatekeepers",
      "outputs": [
        {
          "internalType": "address[]",
          "name": "",
          "type": "address[]"
        }
      ],
      "stateMutability": "view",
      "type": "function"
    },
    {
      "inputs": [
        {
          "internalType": "string",
          "name": "_issuerDID",
          "type": "string"
        }
      ],
      "name": "addTrustedIssuer",
      "outputs": [],
      "stateMutability": "nonpayable",
      "type": "function"
    },
    {
      "inputs": [
        {
          "internalType": "string",
          "name": "_issuerDID",
          "type": "string"
        }
      ],
      "name": "removeTrustedIssuer",
      "outputs": [],
      "stateMutability": "nonpayable",
      "type": "function"
    },
    {
      "inputs": [],
      "name": "getTrustedIssuers",
      "outputs": [
        {
          "internalType": "string[]",
          "name": "",
          "type": "string[]"
        }
      ],
      "stateMutability": "view",
      "type": "function"
    },
    {
      "inputs": [
        {
          "internalType": "string",
          "name": "_issuerDID",
          "type": "string"
        }
      ],
      "name": "isTrustedIssuer",
      "outputs": [
        {
          "internalType": "bool",
          "name": "",
          "type": "bool"
        }
      ],
      "stateMutability": "view",
      "type": "function"
    },
    {
      "inputs": [
        {
          "internalType": "uint256",
          "name": "_proposalId",
          "type": "uint256"
        }
      ],
      "name": "getNeededVotes",
      "outputs": [
        {
          "internalType": "uint256",
          "name": "neededVotes",
          "type": "uint256"
        }
      ],
      "stateMutability": "view",
      "type": "function"
    }
  ],
  "bytecode": "0x60806040523480156200001157600080fd5b5060018060000160003373ffffffffffffffffffffffffffffffffffffffff1673ffffffffffffffffffffffffffffffffffffffff16815260200190815260200160002060006101000a81548160ff02191690831515021790555060018001339080600181540180825580915050600190039060005260206000200160009091909190916101000a81548173ffffffffffffffffffffffffffffffffffffffff021916908373ffffffffffffffffffffffffffffffffffffffff160217905550605060056000806003811115620000ed57620000ec620001e5565b5b6003811115620001025762000101620001e5565b5b81526020019081526020016000208190555060506005600060016003811115620001315762000130620001e5565b5b6003811115620001465762000145620001e5565b5b81526020019081526020016000208190555060646005600060026003811115620001755762000174620001e5565b5b60038111156200018a5762000189620001e5565b5b815260200190815260200160002081905550606460056000600380811115620001b857620001b7620001e5565b5b6003811115620001cd57620001cc620001e5565b5b81526020019081526020016000208190555062000214565b7f4e487b7100000000000000000000000000000000000000000000000000000000600052602160045260246000fd5b61328d80620002246000396000f3fe608060405234801561001057600080fd5b506004361061009e5760003560e01c8063b304a00611610066578063b304a00614610159578063c9d27afe14610177578063cb0d232f14610193578063d9dd24c5146101af578063ff929bae146101cd5761009e565b8063299a7e58146100a35780632ae73ee1146100d357806362564c481461010357806364312cd7146101215780639e031f811461013d575b600080fd5b6100bd60048036038101906100b89190611ed2565b6101e9565b6040516100ca9190611f0e565b60405180910390f35b6100ed60048036038101906100e8919061206f565b610279565b6040516100fa91906120d3565b60405180910390f35b61010b6102b1565b6040516101189190612411565b60405180910390f35b61013b6004803603810190610136919061206f565b61053d565b005b6101576004803603810190610152919061206f565b6106bb565b005b6101616109bb565b60405161016e91906124a2565b60405180910390f35b610191600480360381019061018c91906124f0565b610a4b565b005b6101ad60048036038101906101a89190612581565b610ea0565b005b6101b7611161565b6040516101c49190612729565b60405180910390f35b6101e760048036038101906101e29190611ed2565b61123d565b005b60006064600560008085815481106102045761020361274b565b5b906000526020600020906005020160000160009054906101000a900460ff1660038111156102355761023461211a565b5b60038111156102475761024661211a565b5b815260200190815260200160002054600180018054905061026891906127a9565b610272919061281a565b9050919050565b600060036000018260405161028e9190612887565b908152602001604051809103902060009054906101000a900460ff169050919050565b60606000805480602002602001604051908101604052809291908181526020016000905b8282101561053457838290600052602060002090600502016040518060e00160405290816000820160009054906101000a900460ff16600381111561031d5761031c61211a565b5b600381111561032f5761032e61211a565b5b81526020016000820160019054906101000a900473ffffffffffffffffffffffffffffffffffffffff1673ffffffffffffffffffffffffffffffffffffffff1673ffffffffffffffffffffffffffffffffffffffff1681526020016000820160159054906101000a900460ff1660038111156103ae576103ad61211a565b5b60038111156103c0576103bf61211a565b5b8152602001600182015481526020016002820180548060200260200160405190810160405280929190818152602001828054801561045357602002820191906000526020600020905b8160009054906101000a900473ffffffffffffffffffffffffffffffffffffffff1673ffffffffffffffffffffffffffffffffffffffff1681526020019060010190808311610409575b50505050508152602001600382018054806020026020016040519081016040528092919081815260200182805480156104e157602002820191906000526020600020905b8160009054906101000a900473ffffffffffffffffffffffffffffffffffffffff1673ffffffffffffffffffffffffffffffffffffffff1681526020019060010190808311610497575b505050505081526020016004820160009054906101000a900460ff16600281111561050f5761050e61211a565b5b60028111156105215761052061211a565b5b81525050815260200190600101906102d5565b50505050905090565b60011515600160000160003373ffffffffffffffffffffffffffffffffffffffff1673ffffffffffffffffffffffffffffffffffffffff16815260200190815260200160002060009054906101000a900460ff161515146105d3576040517f08c379a00000000000000000000000000000000000000000000000000000000081526004016105ca906128fb565b60405180910390fd5b6003600001816040516105e69190612887565b908152602001604051809103902060009054906101000a900460ff1661067d57600160036000018260405161061b9190612887565b908152602001604051809103902060006101000a81548160ff0219169083151502179055506003600101819080600181540180825580915050600190039060005260206000200160009091909190915090816106779190612b27565b506106b8565b6040517f08c379a00000000000000000000000000000000000000000000000000000000081526004016106af90612c45565b60405180910390fd5b50565b60011515600160000160003373ffffffffffffffffffffffffffffffffffffffff1673ffffffffffffffffffffffffffffffffffffffff16815260200190815260200160002060009054906101000a900460ff16151514610751576040517f08c379a0000000000000000000000000000000000000000000000000000000008152600401610748906128fb565b60405180910390fd5b6003600001816040516107649190612887565b908152602001604051809103902060009054906101000a900460ff16156107bb576003600001816040516107989190612887565b908152602001604051809103902060006101000a81549060ff02191690556107f6565b6040517f08c379a00000000000000000000000000000000000000000000000000000000081526004016107ed90612cd7565b60405180910390fd5b60007fffffffffffffffffffffffffffffffffffffffffffffffffffffffffffffffff905060005b6003600101805490508110156108b8578260405160200161083f9190612887565b604051602081830303815290604052805190602001206003600101828154811061086c5761086b61274b565b5b906000526020600020016040516020016108869190612d7a565b60405160208183030381529060405280519060200120036108a5578091505b80806108b090612d91565b91505061081e565b507fffffffffffffffffffffffffffffffffffffffffffffffffffffffffffffffff81131561097c57600360010160016003600101805490506108fb9190612dd9565b8154811061090c5761090b61274b565b5b906000526020600020016003600101828154811061092d5761092c61274b565b5b9060005260206000200190816109439190612e38565b50600360010180548061095957610958612f20565b5b6001900381819060005260206000200160006109759190611d18565b90556109b7565b6040517f08c379a00000000000000000000000000000000000000000000000000000000081526004016109ae90612cd7565b60405180910390fd5b5050565b606060018001805480602002602001604051908101604052809291908181526020018280548015610a4157602002820191906000526020600020905b8160009054906101000a900473ffffffffffffffffffffffffffffffffffffffff1673ffffffffffffffffffffffffffffffffffffffff16815260200190600101908083116109f7575b5050505050905090565b60011515600160000160003373ffffffffffffffffffffffffffffffffffffffff1673ffffffffffffffffffffffffffffffffffffffff16815260200190815260200160002060009054906101000a900460ff16151514610ae1576040517f08c379a0000000000000000000000000000000000000000000000000000000008152600401610ad8906128fb565b60405180910390fd5b816000805b60008381548110610afa57610af961274b565b5b906000526020600020906005020160020180549050811015610bc2573373ffffffffffffffffffffffffffffffffffffffff1660008481548110610b4157610b4061274b565b5b90600052602060002090600502016002018281548110610b6457610b6361274b565b5b9060005260206000200160009054906101000a900473ffffffffffffffffffffffffffffffffffffffff1673ffffffffffffffffffffffffffffffffffffffff1603610baf57600191505b8080610bba90612d91565b915050610ae6565b5060005b60008381548110610bda57610bd961274b565b5b906000526020600020906005020160030180549050811015610ca2573373ffffffffffffffffffffffffffffffffffffffff1660008481548110610c2157610c2061274b565b5b90600052602060002090600502016003018281548110610c4457610c4361274b565b5b9060005260206000200160009054906101000a900473ffffffffffffffffffffffffffffffffffffffff1673ffffffffffffffffffffffffffffffffffffffff1603610c8f57600191505b8080610c9a90612d91565b915050610bc6565b506000151581151514610cea576040517f08c379a0000000000000000000000000000000000000000000000000000000008152600401610ce190612f9b565b60405180910390fd5b600280811115610cfd57610cfc61211a565b5b60008581548110610d1157610d1061274b565b5b906000526020600020906005020160040160009054906101000a900460ff166002811115610d4257610d4161211a565b5b14610d82576040517f08c379a0000000000000000000000000000000000000000000000000000000008152600401610d7990613007565b60405180910390fd5b8215610e135760008481548110610d9c57610d9b61274b565b5b9060005260206000209060050201600201339080600181540180825580915050600190039060005260206000200160009091909190916101000a81548173ffffffffffffffffffffffffffffffffffffffff021916908373ffffffffffffffffffffffffffffffffffffffff160217905550610e9a565b60008481548110610e2757610e2661274b565b5b9060005260206000209060050201600301339080600181540180825580915050600190039060005260206000200160009091909190916101000a81548173ffffffffffffffffffffffffffffffffffffffff021916908373ffffffffffffffffffffffffffffffffffffffff1602179055505b50505050565b60011515600160000160003373ffffffffffffffffffffffffffffffffffffffff1673ffffffffffffffffffffffffffffffffffffffff16815260200190815260200160002060009054906101000a900460ff16151514610f36576040517f08c379a0000000000000000000000000000000000000000000000000000000008152600401610f2d906128fb565b60405180910390fd5b610f3e611d58565b8481600001906003811115610f5657610f5561211a565b5b90816003811115610f6a57610f6961211a565b5b8152505083816020019073ffffffffffffffffffffffffffffffffffffffff16908173ffffffffffffffffffffffffffffffffffffffff1681525050828160600181815250508181604001906003811115610fc857610fc761211a565b5b90816003811115610fdc57610fdb61211a565b5b8152505060028160c001906002811115610ff957610ff861211a565b5b9081600281111561100d5761100c61211a565b5b81525050600081908060018154018082558091505060019003906000526020600020906005020160009091909190915060008201518160000160006101000a81548160ff021916908360038111156110685761106761211a565b5b021790555060208201518160000160016101000a81548173ffffffffffffffffffffffffffffffffffffffff021916908373ffffffffffffffffffffffffffffffffffffffff16021790555060408201518160000160156101000a81548160ff021916908360038111156110df576110de61211a565b5b021790555060608201518160010155608082015181600201908051906020019061110a929190611de1565b5060a0820151816003019080519060200190611127929190611de1565b5060c08201518160040160006101000a81548160ff021916908360028111156111535761115261211a565b5b021790555050505050505050565b60606003600101805480602002602001604051908101604052809291908181526020016000905b828210156112345783829060005260206000200180546111a79061294a565b80601f01602080910402602001604051908101604052809291908181526020018280546111d39061294a565b80156112205780601f106111f557610100808354040283529160200191611220565b820191906000526020600020905b81548152906001019060200180831161120357829003601f168201915b505050505081526020019060010190611188565b50505050905090565b60011515600160000160003373ffffffffffffffffffffffffffffffffffffffff1673ffffffffffffffffffffffffffffffffffffffff16815260200190815260200160002060009054906101000a900460ff161515146112d3576040517f08c379a00000000000000000000000000000000000000000000000000000000081526004016112ca906128fb565b60405180910390fd5b8060006112df826101e9565b905060008083815481106112f6576112f561274b565b5b9060005260206000209060050201600301805490506000848154811061131f5761131e61274b565b5b90600052602060002090600502016002018054905061133e9190613027565b905081811015611383576040517f08c379a000000000000000000000000000000000000000000000000000000000815260040161137a906130a7565b60405180910390fd5b6002808111156113965761139561211a565b5b600085815481106113aa576113a961274b565b5b906000526020600020906005020160040160009054906101000a900460ff1660028111156113db576113da61211a565b5b1461141b576040517f08c379a000000000000000000000000000000000000000000000000000000000815260040161141290613113565b60405180910390fd5b6000611426856101e9565b905060016000868154811061143e5761143d61274b565b5b906000526020600020906005020160040160006101000a81548160ff021916908360028111156114715761147061211a565b5b0217905550806000868154811061148b5761148a61274b565b5b90600052602060002090600502016002018054905010156114ac5750611893565b600060038111156114c0576114bf61211a565b5b600086815481106114d4576114d361274b565b5b906000526020600020906005020160000160009054906101000a900460ff1660038111156115055761150461211a565b5b036115a657600080868154811061151f5761151e61274b565b5b906000526020600020906005020160040160006101000a81548160ff021916908360028111156115525761155161211a565b5b02179055506115a56000868154811061156e5761156d61274b565b5b906000526020600020906005020160000160019054906101000a900473ffffffffffffffffffffffffffffffffffffffff16611899565b5b600160038111156115ba576115b961211a565b5b600086815481106115ce576115cd61274b565b5b906000526020600020906005020160000160009054906101000a900460ff1660038111156115ff576115fe61211a565b5b036116a05760008086815481106116195761161861274b565b5b906000526020600020906005020160040160006101000a81548160ff0219169083600281111561164c5761164b61211a565b5b021790555061169f600086815481106116685761166761274b565b5b906000526020600020906005020160000160019054906101000a900473ffffffffffffffffffffffffffffffffffffffff166119ef565b5b600260038111156116b4576116b361211a565b5b600086815481106116c8576116c761274b565b5b906000526020600020906005020160000160009054906101000a900460ff1660038111156116f9576116f861211a565b5b036117de5760008086815481106117135761171261274b565b5b906000526020600020906005020160040160006101000a81548160ff021916908360028111156117465761174561211a565b5b02179055506000858154811061175f5761175e61274b565b5b906000526020600020906005020160010154600560008088815481106117885761178761274b565b5b906000526020600020906005020160000160159054906101000a900460ff1660038111156117b9576117b861211a565b5b60038111156117cb576117ca61211a565b5b8152602001908152602001600020819055505b6003808111156117f1576117f061211a565b5b600086815481106118055761180461274b565b5b906000526020600020906005020160000160009054906101000a900460ff1660038111156118365761183561211a565b5b036118915760008086815481106118505761184f61274b565b5b906000526020600020906005020160040160006101000a81548160ff021916908360028111156118835761188261211a565b5b0217905550611890611cff565b5b505b50505050565b600160000160008273ffffffffffffffffffffffffffffffffffffffff1673ffffffffffffffffffffffffffffffffffffffff16815260200190815260200160002060009054906101000a900460ff166119b15760018060000160008373ffffffffffffffffffffffffffffffffffffffff1673ffffffffffffffffffffffffffffffffffffffff16815260200190815260200160002060006101000a81548160ff02191690831515021790555060018001819080600181540180825580915050600190039060005260206000200160009091909190916101000a81548173ffffffffffffffffffffffffffffffffffffffff021916908373ffffffffffffffffffffffffffffffffffffffff1602179055506119ec565b6040517f08c379a00000000000000000000000000000000000000000000000000000000081526004016119e3906131a5565b60405180910390fd5b50565b600160000160008273ffffffffffffffffffffffffffffffffffffffff1673ffffffffffffffffffffffffffffffffffffffff16815260200190815260200160002060009054906101000a900460ff1615611a9b57600160000160008273ffffffffffffffffffffffffffffffffffffffff1673ffffffffffffffffffffffffffffffffffffffff16815260200190815260200160002060006101000a81549060ff0219169055611ad6565b6040517f08c379a0000000000000000000000000000000000000000000000000000000008152600401611acd90613237565b60405180910390fd5b60007fffffffffffffffffffffffffffffffffffffffffffffffffffffffffffffffff905060005b6001800180549050811015611b97578273ffffffffffffffffffffffffffffffffffffffff16600180018281548110611b3a57611b3961274b565b5b9060005260206000200160009054906101000a900473ffffffffffffffffffffffffffffffffffffffff1673ffffffffffffffffffffffffffffffffffffffff1603611b84578091505b8080611b8f90612d91565b915050611afe565b507fffffffffffffffffffffffffffffffffffffffffffffffffffffffffffffffff811315611cc0576001800160018060010180549050611bd89190612dd9565b81548110611be957611be861274b565b5b9060005260206000200160009054906101000a900473ffffffffffffffffffffffffffffffffffffffff16600180018281548110611c2a57611c2961274b565b5b9060005260206000200160006101000a81548173ffffffffffffffffffffffffffffffffffffffff021916908373ffffffffffffffffffffffffffffffffffffffff16021790555060018001805480611c8657611c85612f20565b5b6001900381819060005260206000200160006101000a81549073ffffffffffffffffffffffffffffffffffffffff02191690559055611cfb565b6040517f08c379a0000000000000000000000000000000000000000000000000000000008152600401611cf290613237565b60405180910390fd5b5050565b3373ffffffffffffffffffffffffffffffffffffffff16ff5b508054611d249061294a565b6000825580601f10611d365750611d55565b601f016020900490600052602060002090810190611d549190611e6b565b5b50565b6040518060e0016040528060006003811115611d7757611d7661211a565b5b8152602001600073ffffffffffffffffffffffffffffffffffffffff16815260200160006003811115611dad57611dac61211a565b5b815260200160008152602001606081526020016060815260200160006002811115611ddb57611dda61211a565b5b81525090565b828054828255906000526020600020908101928215611e5a579160200282015b82811115611e595782518260006101000a81548173ffffffffffffffffffffffffffffffffffffffff021916908373ffffffffffffffffffffffffffffffffffffffff16021790555091602001919060010190611e01565b5b509050611e679190611e6b565b5090565b5b80821115611e84576000816000905550600101611e6c565b5090565b6000604051905090565b600080fd5b600080fd5b6000819050919050565b611eaf81611e9c565b8114611eba57600080fd5b50565b600081359050611ecc81611ea6565b92915050565b600060208284031215611ee857611ee7611e92565b5b6000611ef684828501611ebd565b91505092915050565b611f0881611e9c565b82525050565b6000602082019050611f236000830184611eff565b92915050565b600080fd5b600080fd5b6000601f19601f8301169050919050565b7f4e487b7100000000000000000000000000000000000000000000000000000000600052604160045260246000fd5b611f7c82611f33565b810181811067ffffffffffffffff82111715611f9b57611f9a611f44565b5b80604052505050565b6000611fae611e88565b9050611fba8282611f73565b919050565b600067ffffffffffffffff821115611fda57611fd9611f44565b5b611fe382611f33565b9050602081019050919050565b82818337600083830152505050565b600061201261200d84611fbf565b611fa4565b90508281526020810184848401111561202e5761202d611f2e565b5b612039848285611ff0565b509392505050565b600082601f83011261205657612055611f29565b5b8135612066848260208601611fff565b91505092915050565b60006020828403121561208557612084611e92565b5b600082013567ffffffffffffffff8111156120a3576120a2611e97565b5b6120af84828501612041565b91505092915050565b60008115159050919050565b6120cd816120b8565b82525050565b60006020820190506120e860008301846120c4565b92915050565b600081519050919050565b600082825260208201905092915050565b6000819050602082019050919050565b7f4e487b7100000000000000000000000000000000000000000000000000000000600052602160045260246000fd5b6004811061215a5761215961211a565b5b50565b600081905061216b82612149565b919050565b600061217b8261215d565b9050919050565b61218b81612170565b82525050565b600073ffffffffffffffffffffffffffffffffffffffff82169050919050565b60006121bc82612191565b9050919050565b6121cc816121b1565b82525050565b6121db81611e9c565b82525050565b600081519050919050565b600082825260208201905092915050565b6000819050602082019050919050565b600061221983836121c3565b60208301905092915050565b6000602082019050919050565b600061223d826121e1565b61224781856121ec565b9350612252836121fd565b8060005b8381101561228357815161226a888261220d565b975061227583612225565b925050600181019050612256565b5085935050505092915050565b600381106122a1576122a061211a565b5b50565b60008190506122b282612290565b919050565b60006122c2826122a4565b9050919050565b6122d2816122b7565b82525050565b600060e0830160008301516122f06000860182612182565b50602083015161230360208601826121c3565b5060408301516123166040860182612182565b50606083015161232960608601826121d2565b50608083015184820360808601526123418282612232565b91505060a083015184820360a086015261235b8282612232565b91505060c083015161237060c08601826122c9565b508091505092915050565b600061238783836122d8565b905092915050565b6000602082019050919050565b60006123a7826120ee565b6123b181856120f9565b9350836020820285016123c38561210a565b8060005b858110156123ff57848403895281516123e0858261237b565b94506123eb8361238f565b925060208a019950506001810190506123c7565b50829750879550505050505092915050565b6000602082019050818103600083015261242b818461239c565b905092915050565b600082825260208201905092915050565b600061244f826121e1565b6124598185612433565b9350612464836121fd565b8060005b8381101561249557815161247c888261220d565b975061248783612225565b925050600181019050612468565b5085935050505092915050565b600060208201905081810360008301526124bc8184612444565b905092915050565b6124cd816120b8565b81146124d857600080fd5b50565b6000813590506124ea816124c4565b92915050565b6000806040838503121561250757612506611e92565b5b600061251585828601611ebd565b9250506020612526858286016124db565b9150509250929050565b6004811061253d57600080fd5b50565b60008135905061254f81612530565b92915050565b61255e816121b1565b811461256957600080fd5b50565b60008135905061257b81612555565b92915050565b6000806000806080858703121561259b5761259a611e92565b5b60006125a987828801612540565b94505060206125ba8782880161256c565b93505060406125cb87828801611ebd565b92505060606125dc87828801612540565b91505092959194509250565b600081519050919050565b600082825260208201905092915050565b6000819050602082019050919050565b600081519050919050565b600082825260208201905092915050565b60005b8381101561264e578082015181840152602081019050612633565b60008484015250505050565b600061266582612614565b61266f818561261f565b935061267f818560208601612630565b61268881611f33565b840191505092915050565b600061269f838361265a565b905092915050565b6000602082019050919050565b60006126bf826125e8565b6126c981856125f3565b9350836020820285016126db85612604565b8060005b8581101561271757848403895281516126f88582612693565b9450612703836126a7565b925060208a019950506001810190506126df565b50829750879550505050505092915050565b6000602082019050818103600083015261274381846126b4565b905092915050565b7f4e487b7100000000000000000000000000000000000000000000000000000000600052603260045260246000fd5b7f4e487b7100000000000000000000000000000000000000000000000000000000600052601160045260246000fd5b60006127b482611e9c565b91506127bf83611e9c565b92508282026127cd81611e9c565b915082820484148315176127e4576127e361277a565b5b5092915050565b7f4e487b7100000000000000000000000000000000000000000000000000000000600052601260045260246000fd5b600061282582611e9c565b915061283083611e9c565b9250826128405761283f6127eb565b5b828204905092915050565b600081905092915050565b600061286182612614565b61286b818561284b565b935061287b818560208601612630565b80840191505092915050565b60006128938284612856565b915081905092915050565b600082825260208201905092915050565b7f43616c6c6572206973206e6f7420612073746174656b65657065720000000000600082015250565b60006128e5601b8361289e565b91506128f0826128af565b602082019050919050565b60006020820190508181036000830152612914816128d8565b9050919050565b7f4e487b7100000000000000000000000000000000000000000000000000000000600052602260045260246000fd5b6000600282049050600182168061296257607f821691505b6020821081036129755761297461291b565b5b50919050565b60008190508160005260206000209050919050565b60006020601f8301049050919050565b600082821b905092915050565b6000600883026129dd7fffffffffffffffffffffffffffffffffffffffffffffffffffffffffffffffff826129a0565b6129e786836129a0565b95508019841693508086168417925050509392505050565b6000819050919050565b6000612a24612a1f612a1a84611e9c565b6129ff565b611e9c565b9050919050565b6000819050919050565b612a3e83612a09565b612a52612a4a82612a2b565b8484546129ad565b825550505050565b600090565b612a67612a5a565b612a72818484612a35565b505050565b5b81811015612a9657612a8b600082612a5f565b600181019050612a78565b5050565b601f821115612adb57612aac8161297b565b612ab584612990565b81016020851015612ac4578190505b612ad8612ad085612990565b830182612a77565b50505b505050565b600082821c905092915050565b6000612afe60001984600802612ae0565b1980831691505092915050565b6000612b178383612aed565b9150826002028217905092915050565b612b3082612614565b67ffffffffffffffff811115612b4957612b48611f44565b5b612b53825461294a565b612b5e828285612a9a565b600060209050601f831160018114612b915760008415612b7f578287015190505b612b898582612b0b565b865550612bf1565b601f198416612b9f8661297b565b60005b82811015612bc757848901518255600182019150602085019450602081019050612ba2565b86831015612be45784890151612be0601f891682612aed565b8355505b6001600288020188555050505b505050505050565b7f44494420697320616c7265616479206120547275737465642049737375657221600082015250565b6000612c2f60208361289e565b9150612c3a82612bf9565b602082019050919050565b60006020820190508181036000830152612c5e81612c22565b9050919050565b7f5468697320444944206973206e6f74206120547275737465642049737375657260008201527f2100000000000000000000000000000000000000000000000000000000000000602082015250565b6000612cc160218361289e565b9150612ccc82612c65565b604082019050919050565b60006020820190508181036000830152612cf081612cb4565b9050919050565b60008154612d048161294a565b612d0e818661284b565b94506001821660008114612d295760018114612d3e57612d71565b60ff1983168652811515820286019350612d71565b612d478561297b565b60005b83811015612d6957815481890152600182019150602081019050612d4a565b838801955050505b50505092915050565b6000612d868284612cf7565b915081905092915050565b6000612d9c82611e9c565b91507fffffffffffffffffffffffffffffffffffffffffffffffffffffffffffffffff8203612dce57612dcd61277a565b5b600182019050919050565b6000612de482611e9c565b9150612def83611e9c565b9250828203905081811115612e0757612e0661277a565b5b92915050565b600081549050612e1c8161294a565b9050919050565b60008190508160005260206000209050919050565b818103612e46575050612f1e565b612e4f82612e0d565b67ffffffffffffffff811115612e6857612e67611f44565b5b612e72825461294a565b612e7d828285612a9a565b6000601f831160018114612eac5760008415612e9a578287015490505b612ea48582612b0b565b865550612f17565b601f198416612eba87612e23565b9650612ec58661297b565b60005b82811015612eed57848901548255600182019150600185019450602081019050612ec8565b86831015612f0a5784890154612f06601f891682612aed565b8355505b6001600288020188555050505b5050505050505b565b7f4e487b7100000000000000000000000000000000000000000000000000000000600052603160045260246000fd5b7f43616c6c65722068617320616c726561647920766f7465642e00000000000000600082015250565b6000612f8560198361289e565b9150612f9082612f4f565b602082019050919050565b60006020820190508181036000830152612fb481612f78565b9050919050565b7f50726f706f73616c2077617320616c726561647920766f746564206f6e2e0000600082015250565b6000612ff1601e8361289e565b9150612ffc82612fbb565b602082019050919050565b6000602082019050818103600083015261302081612fe4565b9050919050565b600061303282611e9c565b915061303d83611e9c565b92508282019050808211156130555761305461277a565b5b92915050565b7f4e6f7420656e6f75676820766f746573207265636569766564207965742e0000600082015250565b6000613091601e8361289e565b915061309c8261305b565b602082019050919050565b600060208201905081810360008301526130c081613084565b9050919050565b7f50726f706f73616c2077617320616c726561647920656e666f726365642e0000600082015250565b60006130fd601e8361289e565b9150613108826130c7565b602082019050919050565b6000602082019050818103600083015261312c816130f0565b9050919050565b7f4164647265737320697320616c726561647920612053746174656b656570657260008201527f2100000000000000000000000000000000000000000000000000000000000000602082015250565b600061318f60218361289e565b915061319a82613133565b604082019050919050565b600060208201905081810360008301526131be81613182565b9050919050565b7f546869732061646472657373206973206e6f7420612053746174656b6565706560008201527f7221000000000000000000000000000000000000000000000000000000000000602082015250565b600061322160228361289e565b915061322c826131c5565b604082019050919050565b6000602082019050818103600083015261325081613214565b905091905056fea2646970667358221220bdaae5925d6b0ed0d3ad7296abe8fe08d7a5ea2bd2067a23259e8f9a7243c05c64736f6c63430008110033",
  "immutableReferences": {},
  "source": "pragma solidity >=0.8.0 <0.9.0;\r\n\r\ncontract TrustedIssuerList {\r\n    // Stores\r\n    Proposal[] proposals;\r\n    AddressStore statekeepers;\r\n    DIDStore trustedIssuers;\r\n\r\n    // Store for the acceptance rates of the proposals\r\n    mapping(ProposalType => uint256) neededAcceptanceRate;\r\n\r\n    constructor() {\r\n        statekeepers.map[msg.sender] = true;\r\n        statekeepers.keys.push(msg.sender);\r\n\r\n        neededAcceptanceRate[ProposalType.ADD_STATEKEEPER] = 80;\r\n        neededAcceptanceRate[ProposalType.REMOVE_STATEKEEPER] = 80;\r\n        neededAcceptanceRate[ProposalType.CHANGE_ACCEPTANCE_RATE] = 100;\r\n        neededAcceptanceRate[ProposalType.RETIRE] = 100;\r\n    }\r\n\r\n    function createProposal(\r\n        ProposalType _proposalType,\r\n        address _statekeeper,\r\n        uint256 _newRate,\r\n        ProposalType _rateType\r\n    ) public onlyStatekeepers {\r\n        Proposal memory proposal;\r\n        proposal.proposalType = _proposalType;\r\n        proposal.statekeeper = _statekeeper; // Statkeeper address if its a ADD_STATEKEEPER or REMOVE_STATEKEEPER proposal, otherwise use empty address \"0x0000000000000000000000000000000000000000\"\r\n        proposal.rate = _newRate; // new acceptance rate if its a CHANGE_ACCEPTANCE_RATE proposal, otherwise use 0\r\n        proposal.rateType = _rateType; // proposal type you want to change if its a CHANGE_ACCEPTANCE_RATE proposal, otherwise use random proposal type\r\n        proposal.state = State.IN_PROGRESS;\r\n        proposals.push(proposal);\r\n    }\r\n\r\n    function getProposals()\r\n        public\r\n        view\r\n        returns (Proposal[] memory allProposals)\r\n    {\r\n        return proposals;\r\n    }\r\n\r\n    function vote(uint256 _proposalId, bool _yea)\r\n        public\r\n        onlyStatekeepers\r\n        notVotedYet(_proposalId)\r\n    {\r\n        require(\r\n            proposals[_proposalId].state == State.IN_PROGRESS,\r\n            \"Proposal was already voted on.\"\r\n        );\r\n        if (_yea) {\r\n            proposals[_proposalId].yea.push(msg.sender);\r\n        } else {\r\n            proposals[_proposalId].nay.push(msg.sender);\r\n        }\r\n    }\r\n\r\n    // If voting is finished, this will close the voting and execute the proposal if necessary amount votes is reached.\r\n    function enforceProposal(uint256 _proposalId)\r\n        public\r\n        onlyStatekeepers\r\n        neededVotesReached(_proposalId)\r\n    {\r\n        require(\r\n            proposals[_proposalId].state == State.IN_PROGRESS,\r\n            \"Proposal was already enforced.\"\r\n        );\r\n        uint256 needed = getNeededVotes(_proposalId);\r\n\r\n        // We now know that enough votes (either yea or nay) have been cast.\r\n        // Set a new default state\r\n        proposals[_proposalId].state = State.REJECTED;\r\n\r\n        if (proposals[_proposalId].yea.length < needed) {\r\n            return;\r\n        }\r\n\r\n        // The vote was accepted by the statekeepers. Whatever the proposal type is, we will now enforce it.\r\n\r\n        if (\r\n            proposals[_proposalId].proposalType == ProposalType.ADD_STATEKEEPER\r\n        ) {\r\n            proposals[_proposalId].state = State.ACCEPTED;\r\n            addStatekeeper(proposals[_proposalId].statekeeper);\r\n        }\r\n\r\n        if (\r\n            proposals[_proposalId].proposalType ==\r\n            ProposalType.REMOVE_STATEKEEPER\r\n        ) {\r\n            proposals[_proposalId].state = State.ACCEPTED;\r\n            removeStatekeeper(proposals[_proposalId].statekeeper);\r\n        }\r\n\r\n        if (\r\n            proposals[_proposalId].proposalType ==\r\n            ProposalType.CHANGE_ACCEPTANCE_RATE\r\n        ) {\r\n            proposals[_proposalId].state = State.ACCEPTED;\r\n            neededAcceptanceRate[proposals[_proposalId].rateType] = proposals[\r\n                _proposalId\r\n            ].rate;\r\n        }\r\n\r\n        if (proposals[_proposalId].proposalType == ProposalType.RETIRE) {\r\n            proposals[_proposalId].state = State.ACCEPTED;\r\n            killContract();\r\n        }\r\n    }\r\n\r\n    function addStatekeeper(address _statekeeperAddress) internal {\r\n        if (!statekeepers.map[_statekeeperAddress]) {\r\n            statekeepers.map[_statekeeperAddress] = true;\r\n            statekeepers.keys.push(_statekeeperAddress);\r\n        } else {\r\n            revert(\"Address is already a Statekeeper!\");\r\n        }\r\n    }\r\n\r\n    function removeStatekeeper(address _statekeeperAddress) internal {\r\n        if (statekeepers.map[_statekeeperAddress]) {\r\n            delete statekeepers.map[_statekeeperAddress];\r\n        } else {\r\n            revert(\"This address is not a Statekeeper!\");\r\n        }\r\n\r\n        int256 index = -1;\r\n        for (uint256 i = 0; i < statekeepers.keys.length; i++) {\r\n            if (statekeepers.keys[i] == _statekeeperAddress) {\r\n                index = int256(i);\r\n            }\r\n        }\r\n\r\n        if (index > -1) {\r\n            // Move to be delete element to last position and then pop it out -> this prevents \"gaps\" in the array\r\n            statekeepers.keys[uint256(index)] = statekeepers.keys[\r\n                statekeepers.keys.length - 1\r\n            ];\r\n            statekeepers.keys.pop();\r\n        } else {\r\n            revert(\"This address is not a Statekeeper!\");\r\n        }\r\n    }\r\n\r\n    function getStatekeepers() public view returns (address[] memory) {\r\n        return statekeepers.keys;\r\n    }\r\n\r\n    function addTrustedIssuer(string memory _issuerDID)\r\n        public\r\n        onlyStatekeepers\r\n    {\r\n        if (!trustedIssuers.map[_issuerDID]) {\r\n            trustedIssuers.map[_issuerDID] = true;\r\n            trustedIssuers.keys.push(_issuerDID);\r\n        } else {\r\n            revert(\"DID is already a Trusted Issuer!\");\r\n        }\r\n    }\r\n\r\n    function removeTrustedIssuer(string memory _issuerDID)\r\n        public\r\n        onlyStatekeepers\r\n    {\r\n        if (trustedIssuers.map[_issuerDID]) {\r\n            delete trustedIssuers.map[_issuerDID];\r\n        } else {\r\n            revert(\"This DID is not a Trusted Issuer!\");\r\n        }\r\n\r\n        int256 index = -1;\r\n        // You can't compare strings in Solidity -> compare hashes\r\n        // https://ethereum.stackexchange.com/questions/45813/compare-strings-in-solidity\r\n        for (uint256 i = 0; i < trustedIssuers.keys.length; i++) {\r\n            if (\r\n                keccak256(abi.encodePacked(trustedIssuers.keys[i])) ==\r\n                keccak256(abi.encodePacked(_issuerDID))\r\n            ) {\r\n                index = int256(i);\r\n            }\r\n        }\r\n\r\n        if (index > -1) {\r\n            // Move to be delete element to last position and then pop it out -> this prevents \"gaps\" in the array\r\n            trustedIssuers.keys[uint256(index)] = trustedIssuers.keys[\r\n                trustedIssuers.keys.length - 1\r\n            ];\r\n            trustedIssuers.keys.pop();\r\n        } else {\r\n            revert(\"This DID is not a Trusted Issuer!\");\r\n        }\r\n    }\r\n\r\n    // This will be called by verifiers to get all trusted issuer DIDs\r\n    function getTrustedIssuers() public view returns (string[] memory) {\r\n        return trustedIssuers.keys;\r\n    }\r\n\r\n    // This will be called by verifiers to check for a singular DID\r\n    function isTrustedIssuer(string memory _issuerDID)\r\n        public\r\n        view\r\n        returns (bool)\r\n    {\r\n        return trustedIssuers.map[_issuerDID];\r\n    }\r\n\r\n    // This removes all bytecode from the contract address\r\n    function killContract() internal {\r\n        selfdestruct(payable(msg.sender));\r\n    }\r\n\r\n    // Util functions\r\n\r\n    function getNeededVotes(uint256 _proposalId)\r\n        public\r\n        view\r\n        returns (uint256 neededVotes)\r\n    {\r\n        return ((statekeepers.keys.length *\r\n            neededAcceptanceRate[proposals[_proposalId].proposalType]) / 100);\r\n    }\r\n\r\n    // Structs and Enums\r\n\r\n    enum State {\r\n        ACCEPTED,\r\n        REJECTED,\r\n        IN_PROGRESS\r\n    }\r\n    enum StoreTypes {\r\n        STATEKEEPERS,\r\n        TRUSTEDISSUERS\r\n    }\r\n\r\n    // We can't get all keys of a map in Solidity -> we use it together with an array to get all keys\r\n    struct AddressStore {\r\n        mapping(address => bool) map;\r\n        address[] keys;\r\n    }\r\n\r\n    // We can't get all keys of a map in Solidity -> we use it together with an array to get all keys\r\n    struct DIDStore {\r\n        mapping(string => bool) map; // We store string to support every type of DID. Only did:ethr? -> address type sufficient\r\n        string[] keys;\r\n    }\r\n\r\n    enum ProposalType {\r\n        ADD_STATEKEEPER,\r\n        REMOVE_STATEKEEPER,\r\n        CHANGE_ACCEPTANCE_RATE,\r\n        RETIRE\r\n    }\r\n\r\n    // Proposals have are a generic type that has fields for every possible propsal type.\r\n    // This also means that with some proposals, a few fields will be left empty and not used at all.\r\n    // TODO: Think of if we should just create different proposal structs so we don't have to store all the data...\r\n    struct Proposal {\r\n        ProposalType proposalType;\r\n        address statekeeper;\r\n        ProposalType rateType;\r\n        uint256 rate;\r\n        address[] yea;\r\n        address[] nay;\r\n        State state;\r\n    }\r\n\r\n    // Modifiers/ Middleware\r\n\r\n    modifier onlyStatekeepers() {\r\n        require(\r\n            statekeepers.map[msg.sender] == true,\r\n            \"Caller is not a statekeeper\"\r\n        );\r\n        _;\r\n    }\r\n\r\n    modifier notVotedYet(uint256 _proposalId) {\r\n        bool hasVoted = false;\r\n        for (uint256 i = 0; i < proposals[_proposalId].yea.length; i++) {\r\n            if (proposals[_proposalId].yea[i] == msg.sender) hasVoted = true;\r\n        }\r\n        for (uint256 i = 0; i < proposals[_proposalId].nay.length; i++) {\r\n            if (proposals[_proposalId].nay[i] == msg.sender) hasVoted = true;\r\n        }\r\n        require(hasVoted == false, \"Caller has already voted.\");\r\n        _;\r\n    }\r\n\r\n    modifier neededVotesReached(uint256 _proposalId) {\r\n        // This approach always rounds DOWN\r\n        uint256 needed = getNeededVotes(_proposalId);\r\n        uint256 votes = proposals[_proposalId].yea.length +\r\n            proposals[_proposalId].nay.length;\r\n        require(votes >= needed, \"Not enough votes received yet.\");\r\n        _;\r\n    }\r\n}\r\n",
  "sourcePath": "C:\\Users\\habou\\OneDrive\\Bureau\\blockchain\\edf-poc-beta\\dapps\\edf-dapp\\truffle\\contracts\\TurstedIssuer.sol",
  "compiler": {
    "name": "solc",
    "version": "0.8.17+commit.8df45f5f.Emscripten.clang"
  },
  "schemaVersion": "3.4.11",
  "updatedAt": "2023-01-15T15:28:28.772Z",
  "devdoc": {
    "kind": "dev",
    "methods": {},
    "version": 1
  },
  "userdoc": {
    "kind": "user",
    "methods": {},
    "version": 1
  }
}